{
  "_format": "hh-sol-artifact-1",
  "contractName": "Kitchen",
  "sourceName": "contracts/Kitchen.sol",
  "abi": [
    {
      "anonymous": false,
      "inputs": [
        {
          "components": [
            {
              "internalType": "contract Recipe",
              "name": "recipe",
              "type": "address"
            },
            {
              "components": [
                {
                  "internalType": "uint256",
                  "name": "scalePercentage",
                  "type": "uint256"
                },
                {
                  "internalType": "uint256",
                  "name": "stepIndex",
                  "type": "uint256"
                }
              ],
              "internalType": "struct PreparationStatus",
              "name": "status",
              "type": "tuple"
            }
          ],
          "indexed": false,
          "internalType": "struct ActivePreparation",
          "name": "preparation",
          "type": "tuple"
        }
      ],
      "name": "PreparationUpdated",
      "type": "event"
    },
    {
      "inputs": [],
      "name": "activePreparations",
      "outputs": [
        {
          "components": [
            {
              "internalType": "contract Recipe",
              "name": "recipe",
              "type": "address"
            },
            {
              "components": [
                {
                  "internalType": "uint256",
                  "name": "scalePercentage",
                  "type": "uint256"
                },
                {
                  "internalType": "uint256",
                  "name": "stepIndex",
                  "type": "uint256"
                }
              ],
              "internalType": "struct PreparationStatus",
              "name": "status",
              "type": "tuple"
            }
          ],
          "internalType": "struct ActivePreparation[]",
          "name": "",
          "type": "tuple[]"
        }
      ],
      "stateMutability": "view",
      "type": "function"
    },
    {
      "inputs": [
        {
          "internalType": "contract Recipe",
          "name": "recipe",
          "type": "address"
        },
        {
          "internalType": "uint256",
          "name": "scalePercentage",
          "type": "uint256"
        }
      ],
      "name": "startRecipe",
      "outputs": [],
      "stateMutability": "nonpayable",
      "type": "function"
    },
    {
      "inputs": [
        {
          "internalType": "contract Recipe",
          "name": "recipe",
          "type": "address"
        }
      ],
      "name": "stopPreparation",
      "outputs": [],
      "stateMutability": "nonpayable",
      "type": "function"
    },
    {
      "inputs": [
        {
          "internalType": "contract Recipe",
          "name": "recipe",
          "type": "address"
        },
        {
          "internalType": "uint256",
          "name": "stepIndex",
          "type": "uint256"
        }
      ],
      "name": "updatePreparationStep",
      "outputs": [],
      "stateMutability": "nonpayable",
      "type": "function"
    }
  ],
  "bytecode": "0x608060405234801561001057600080fd5b50610b07806100206000396000f3fe608060405234801561001057600080fd5b506004361061004c5760003560e01c80635f37463d146100515780639cafa40b14610066578063e82ccc2b14610084578063f3bdcb1614610097575b600080fd5b61006461005f366004610789565b6100aa565b005b61006e6101b9565b60405161007b9190610952565b60405180910390f35b61006461009236600461076b565b610362565b6100646100a5366004610789565b610443565b600081116100d35760405162461bcd60e51b81526004016100ca9061096a565b60405180910390fd5b604080518082018252828152600060208201819052549151630a3b0a4f60e01b815290916001600160a01b031690630a3b0a4f90610115908690600401610944565b600060405180830381600087803b15801561012f57600080fd5b505af1158015610143573d6000803e3d6000fd5b505050506001600160a01b0383166000818152600160208181526040928390208551815585820151920191909155815180830183529283528201839052517f8e270fd8c2ff3c6ec2e3155907cf141d994ec734fc12f2277551832192718503916101ac916109c5565b60405180910390a1505050565b600080546040805163955c986760e01b81529051606093926001600160a01b03169163955c98679160048083019286929190829003018186803b1580156101ff57600080fd5b505afa158015610213573d6000803e3d6000fd5b505050506040513d6000823e601f3d908101601f1916820160405261023b9190810190610718565b90506000815167ffffffffffffffff81111561026757634e487b7160e01b600052604160045260246000fd5b6040519080825280602002602001820160405280156102a057816020015b61028d61060d565b8152602001906001900390816102855790505b50905060005b825181101561035b5760008382815181106102d157634e487b7160e01b600052603260045260246000fd5b6020908102919091018101516040805180820182526001600160a01b038316808252600090815260018086529083902083518085019094528054845201548285015292830152845190925084908490811061033c57634e487b7160e01b600052603260045260246000fd5b602002602001018190525050808061035390610a5c565b9150506102a6565b5092915050565b604080518082018252600080825260208201819052549151631484968760e11b815290916001600160a01b0316906329092d0e906103a4908590600401610944565b600060405180830381600087803b1580156103be57600080fd5b505af11580156103d2573d6000803e3d6000fd5b505050506001600160a01b03821660008181526001602081815260408084208481559092019290925580518082018252928352908201839052517f8e270fd8c2ff3c6ec2e3155907cf141d994ec734fc12f227755183219271850391610437916109c5565b60405180910390a15050565b600054604051630bb7c8fd60e31b81526001600160a01b0390911690635dbe47e890610473908590600401610944565b60206040518083038186803b15801561048b57600080fd5b505afa15801561049f573d6000803e3d6000fd5b505050506040513d601f19601f820116820180604052508101906104c3919061074d565b6104df5760405162461bcd60e51b81526004016100ca906109a5565b816001600160a01b03166377c267eb6040518163ffffffff1660e01b815260040160206040518083038186803b15801561051857600080fd5b505afa15801561052c573d6000803e3d6000fd5b505050506040513d601f19601f8201168201806040525081019061055091906107c3565b81111561056f5760405162461bcd60e51b81526004016100ca906109b5565b6001600160a01b0382166000818152600160208181526040808420815180830183528154815281850180548286015283518085018552825181528086018a8152978990529585528551909255945190558051808201825294855290840182905251919290917f8e270fd8c2ff3c6ec2e3155907cf141d994ec734fc12f2277551832192718503916105ff916109c5565b60405180910390a150505050565b604051806040016040528060006001600160a01b03168152602001610645604051806040016040528060008152602001600081525090565b905290565b600061065d610658846109ef565b6109d3565b9050808382526020820190508285602086028201111561067c57600080fd5b60005b858110156106a8578161069288826106b2565b845250602092830192919091019060010161067f565b5050509392505050565b80516106bd81610aa3565b92915050565b600082601f8301126106d457600080fd5b81516106e484826020860161064a565b949350505050565b80516106bd81610aba565b80356106bd81610ac2565b80356106bd81610acb565b80516106bd81610acb565b60006020828403121561072a57600080fd5b815167ffffffffffffffff81111561074157600080fd5b6106e4848285016106c3565b60006020828403121561075f57600080fd5b60006106e484846106ec565b60006020828403121561077d57600080fd5b60006106e484846106f7565b6000806040838503121561079c57600080fd5b60006107a885856106f7565b92505060206107b985828601610702565b9150509250929050565b6000602082840312156107d557600080fd5b60006106e4848461070d565b60006107ed83836108f4565b505060600190565b6107fe81610a13565b82525050565b600061080e825190565b80845260209384019383018060005b8381101561084257815161083188826107e1565b97506020830192505060010161081d565b509495945050505050565b6107fe81610a24565b602481526000602082017f526563697065206d75737420626520616e2061637469766520707265706172618152633a34b7b760e11b602082015291505b5060400190565b603f81526000602082017f5374657020696e646578206d757374206265206c657373207468616e206f722081527f657175616c207468616e20746865206e756d626572206f662073746570732e0060208201529150610893565b80516060830190610905848261084d565b506020820151610918602085018261091e565b50505050565b8051604083019061092f848261093e565b50602082015161091860208501825b806107fe565b602081016106bd82846107f5565b602080825281016109638184610804565b9392505050565b602080825281016106bd81601e81527f5363616c652070657263656e74616765206d757374206e6f7420626520300000602082015260400190565b602080825281016106bd81610856565b602080825281016106bd8161089a565b606081016106bd82846108f4565b60006109de60405190565b90506109ea8282610a2f565b919050565b600067ffffffffffffffff821115610a0957610a09610a8d565b5060209081020190565b60006001600160a01b0382166106bd565b60006106bd82610a13565b601f19601f830116810181811067ffffffffffffffff82111715610a5557610a55610a8d565b6040525050565b6000600019821415610a7057610a70610a77565b5060010190565b634e487b7160e01b600052601160045260246000fd5b634e487b7160e01b600052604160045260246000fd5b610aac81610a13565b8114610ab757600080fd5b50565b801515610aac565b610aac81610a24565b80610aac56fea26469706673582212206939b49ba1d411929b81e252aa8cabc4001ffdafeb1803abb6ec0cd11df11caf64736f6c63430008040033",
  "linkReferences": {},
  "deployedLinkReferences": {}
}