{
  "_format": "hh-sol-artifact-1",
  "contractName": "Recipe",
  "sourceName": "contracts/Recipe.sol",
  "abi": [
    {
      "inputs": [
        {
          "internalType": "address",
          "name": "_author",
          "type": "address"
        },
        {
          "internalType": "string",
          "name": "_name",
          "type": "string"
        },
        {
          "components": [
            {
              "internalType": "string",
              "name": "ingredient",
              "type": "string"
            },
            {
              "internalType": "string",
              "name": "unit",
              "type": "string"
            },
            {
              "internalType": "uint256",
              "name": "amount",
              "type": "uint256"
            }
          ],
          "internalType": "struct Ingredient[]",
          "name": "_ingredients",
          "type": "tuple[]"
        },
        {
          "internalType": "string[]",
          "name": "_steps",
          "type": "string[]"
        }
      ],
      "stateMutability": "nonpayable",
      "type": "constructor"
    },
    {
      "inputs": [],
      "name": "author",
      "outputs": [
        {
          "internalType": "address",
          "name": "",
          "type": "address"
        }
      ],
      "stateMutability": "view",
      "type": "function"
    },
    {
      "inputs": [],
      "name": "getData",
      "outputs": [
        {
          "components": [
            {
              "internalType": "contract Recipe",
              "name": "recipe",
              "type": "address"
            },
            {
              "internalType": "address",
              "name": "author",
              "type": "address"
            },
            {
              "internalType": "string",
              "name": "name",
              "type": "string"
            },
            {
              "components": [
                {
                  "internalType": "string",
                  "name": "ingredient",
                  "type": "string"
                },
                {
                  "internalType": "string",
                  "name": "unit",
                  "type": "string"
                },
                {
                  "internalType": "uint256",
                  "name": "amount",
                  "type": "uint256"
                }
              ],
              "internalType": "struct Ingredient[]",
              "name": "ingredients",
              "type": "tuple[]"
            },
            {
              "internalType": "string[]",
              "name": "steps",
              "type": "string[]"
            }
          ],
          "internalType": "struct RecipeData",
          "name": "",
          "type": "tuple"
        }
      ],
      "stateMutability": "view",
      "type": "function"
    },
    {
      "inputs": [],
      "name": "getStepsCount",
      "outputs": [
        {
          "internalType": "uint256",
          "name": "",
          "type": "uint256"
        }
      ],
      "stateMutability": "view",
      "type": "function"
    },
    {
      "inputs": [],
      "name": "name",
      "outputs": [
        {
          "internalType": "string",
          "name": "",
          "type": "string"
        }
      ],
      "stateMutability": "view",
      "type": "function"
    }
  ],
  "bytecode": "0x60806040523480156200001157600080fd5b5060405162000f9e38038062000f9e833981016040819052620000349162000510565b6001825111620000615760405162461bcd60e51b815260040162000058906200065f565b60405180910390fd5b6000815111620000855760405162461bcd60e51b815260040162000058906200064d565b600080546001600160a01b0319166001600160a01b0386161790558251620000b5906001906020860190620001fd565b50620000c182620000d6565b620000cc8162000183565b5050505062000809565b60005b81518110156200017f5760028282815181106200010657634e487b7160e01b600052603260045260246000fd5b6020908102919091018101518254600181018455600093845292829020815180519294600302909101926200014192849290910190620001fd565b5060208281015180516200015c9260018501920190620001fd565b506040820151816002015550508080620001769062000788565b915050620000d9565b5050565b60005b81518110156200017f576003828281518110620001b357634e487b7160e01b600052603260045260246000fd5b60209081029190910181015182546001810184556000938452928290208151620001e79491909101929190910190620001fd565b5080620001f48162000788565b91505062000186565b8280546200020b9062000728565b90600052602060002090601f0160209004810192826200022f57600085556200027a565b82601f106200024a57805160ff19168380011785556200027a565b828001600101855582156200027a579182015b828111156200027a5782518255916020019190600101906200025d565b50620002889291506200028c565b5090565b5b808211156200028857600081556001016200028d565b6000620002ba620002b48462000690565b62000671565b90508083825260208201905082856020860282011115620002da57600080fd5b60005b85811015620003245781516001600160401b03811115620002fd57600080fd5b8086016200030c89826200044b565b855250506020928301929190910190600101620002dd565b5050509392505050565b60006200033f620002b48462000690565b905080838252602082019050828560208602820111156200035f57600080fd5b60005b85811015620003245781516001600160401b038111156200038257600080fd5b8086016200039189826200046f565b85525050602092830192919091019060010162000362565b6000620003ba620002b484620006b6565b905082815260208101848484011115620003d357600080fd5b620003e0848285620006f5565b509392505050565b8051620003f581620007e8565b92915050565b600082601f8301126200040d57600080fd5b81516200041f848260208601620002a3565b949350505050565b600082601f8301126200043957600080fd5b81516200041f8482602086016200032e565b600082601f8301126200045d57600080fd5b81516200041f848260208601620003a9565b6000606082840312156200048257600080fd5b6200048e606062000671565b82519091506001600160401b03811115620004a857600080fd5b620004b6848285016200044b565b82525060208201516001600160401b03811115620004d357600080fd5b620004e1848285016200044b565b6020830152506040620004f78482850162000503565b60408301525092915050565b8051620003f58162000802565b600080600080608085870312156200052757600080fd5b6000620005358787620003e8565b94505060208501516001600160401b038111156200055257600080fd5b62000560878288016200044b565b93505060408501516001600160401b038111156200057d57600080fd5b6200058b8782880162000427565b92505060608501516001600160401b03811115620005a857600080fd5b620005b687828801620003fb565b91505092959194509250565b602381526000602082017f526563697065206d7573742068617665206174206c65617374206f6e6520737481526232b81760e91b602082015291505b5060400190565b602a81526000602082017f526563697065206d7573742068617665206d6f7265207468616e206f6e6520698152693733b932b234b2b73a1760b11b60208201529150620005fe565b60208082528101620003f581620005c2565b60208082528101620003f58162000605565b60006200067d60405190565b90506200068b828262000759565b919050565b60006001600160401b03821115620006ac57620006ac620007d2565b5060209081020190565b60006001600160401b03821115620006d257620006d2620007d2565b601f19601f83011660200192915050565b60006001600160a01b038216620003f5565b60005b8381101562000712578181015183820152602001620006f8565b8381111562000722576000848401525b50505050565b6002810460018216806200073d57607f821691505b60208210811415620007535762000753620007bc565b50919050565b601f19601f83011681018181106001600160401b0382111715620007815762000781620007d2565b6040525050565b60006000198214156200079f576200079f620007a6565b5060010190565b634e487b7160e01b600052601160045260246000fd5b634e487b7160e01b600052602260045260246000fd5b634e487b7160e01b600052604160045260246000fd5b620007f381620006e3565b8114620007ff57600080fd5b50565b80620007f3565b61078580620008196000396000f3fe608060405234801561001057600080fd5b506004361061004c5760003560e01c806306fdde03146100515780633bc5de301461006f57806377c267eb14610084578063a6c3e6b914610094575b600080fd5b6100596100b4565b6040516100669190610690565b60405180910390f35b610077610142565b60405161006691906106a1565b60035460405161006691906106b2565b6000546100a7906001600160a01b031681565b604051610066919061067c565b600180546100c19061070c565b80601f01602080910402602001604051908101604052809291908181526020018280546100ed9061070c565b801561013a5780601f1061010f5761010080835404028352916020019161013a565b820191906000526020600020905b81548152906001019060200180831161011d57829003601f168201915b505050505081565b6040805160a08101825260008082526020820152606091810182905281810182905260808101919091526040805160a0810182523081526000546001600160a01b0316602082015260018054919283019161019c9061070c565b80601f01602080910402602001604051908101604052809291908181526020018280546101c89061070c565b80156102155780601f106101ea57610100808354040283529160200191610215565b820191906000526020600020905b8154815290600101906020018083116101f857829003601f168201915b505050505081526020016002805480602002602001604051908101604052809291908181526020016000905b828210156103a157838290600052602060002090600302016040518060600160405290816000820180546102749061070c565b80601f01602080910402602001604051908101604052809291908181526020018280546102a09061070c565b80156102ed5780601f106102c2576101008083540402835291602001916102ed565b820191906000526020600020905b8154815290600101906020018083116102d057829003601f168201915b505050505081526020016001820180546103069061070c565b80601f01602080910402602001604051908101604052809291908181526020018280546103329061070c565b801561037f5780601f106103545761010080835404028352916020019161037f565b820191906000526020600020905b81548152906001019060200180831161036257829003601f168201915b5050505050815260200160028201548152505081526020019060010190610241565b5050505081526020016003805480602002602001604051908101604052809291908181526020016000905b828210156104785783829060005260206000200180546103eb9061070c565b80601f01602080910402602001604051908101604052809291908181526020018280546104179061070c565b80156104645780601f1061043957610100808354040283529160200191610464565b820191906000526020600020905b81548152906001019060200180831161044757829003601f168201915b5050505050815260200190600101906103cc565b505050915250919050565b600061048f8383610579565b9392505050565b600061048f83836105ab565b6104ab816106c0565b82525050565b60006104bb825190565b808452602084019350836020820285016104d58560200190565b8060005b8581101561050a57848403895281516104f28582610483565b94506020830160209a909a01999250506001016104d9565b5091979650505050505050565b6000610521825190565b8084526020840193508360208202850161053b8560200190565b8060005b8581101561050a57848403895281516105588582610496565b94506020830160209a909a019992505060010161053f565b6104ab816106d1565b6000610583825190565b80845260208401935061059a8185602086016106dc565b601f01601f19169290920192915050565b80516060808452600091908401906105c38282610579565b915050602083015184820360208601526105dd8282610579565b91505060408301516105f26040860182610676565b509392505050565b805160009060a084019061060e8582610570565b50602083015161062160208601826104a2565b50604083015184820360408601526106398282610579565b915050606083015184820360608601526106538282610517565b9150506080830151848203608086015261066d82826104b1565b95945050505050565b806104ab565b6020810161068a82846104a2565b92915050565b6020808252810161048f8184610579565b6020808252810161048f81846105fa565b6020810161068a8284610676565b60006001600160a01b03821661068a565b600061068a826106c0565b60005b838110156106f75781810151838201526020016106df565b83811115610706576000848401525b50505050565b60028104600182168061072057607f821691505b6020821081141561073357610733610739565b50919050565b634e487b7160e01b600052602260045260246000fdfea26469706673582212206273dd0d390643e8edf2403e880177ecd09feaccd0963c0432892bfb4c5c53b564736f6c63430008040033",
  "linkReferences": {},
  "deployedLinkReferences": {}
}