{
  "_format": "hh-sol-artifact-1",
  "contractName": "FIFSRegistrar",
  "sourceName": "@ensdomains/ens-contracts/contracts/registry/FIFSRegistrar.sol",
  "abi": [
    {
      "inputs": [
        {
          "internalType": "contract ENS",
          "name": "ensAddr",
          "type": "address"
        },
        {
          "internalType": "bytes32",
          "name": "node",
          "type": "bytes32"
        }
      ],
      "stateMutability": "nonpayable",
      "type": "constructor"
    },
    {
      "inputs": [
        {
          "internalType": "bytes32",
          "name": "label",
          "type": "bytes32"
        },
        {
          "internalType": "address",
          "name": "owner",
          "type": "address"
        }
      ],
      "name": "register",
      "outputs": [],
      "stateMutability": "nonpayable",
      "type": "function"
    }
  ],
  "bytecode": "0x608060405234801561001057600080fd5b5060405161042138038061042183398101604081905261002f91610074565b600080546001600160a01b0319166001600160a01b0393909316929092179091556001556100e3565b8051610063816100ca565b92915050565b8051610063816100da565b6000806040838503121561008757600080fd5b60006100938585610069565b92505060206100a485828601610058565b9150509250929050565b60006001600160a01b038216610063565b6000610063826100ae565b805b81146100d757600080fd5b50565b6100cc816100bf565b61032f806100f26000396000f3fe608060405234801561001057600080fd5b506004361061002b5760003560e01c8063d22057a914610030575b600080fd5b61004361003e366004610220565b610045565b005b600080546001546040518593926001600160a01b0316916302571be3916100719190869060200161026f565b604051602081830303815290604052805190602001206040518263ffffffff1660e01b81526004016100a39190610295565b60206040518083038186803b1580156100bb57600080fd5b505afa1580156100cf573d6000803e3d6000fd5b505050506040513d601f19601f820116820180604052508101906100f391906101dc565b90506001600160a01b038116158061011357506001600160a01b03811633145b61011c57600080fd5b6000546001546040516306ab592360e01b81526001600160a01b03909216916306ab59239161015191889088906004016102a3565b602060405180830381600087803b15801561016b57600080fd5b505af115801561017f573d6000803e3d6000fd5b505050506040513d601f19601f820116820180604052508101906101a39190610202565b5050505050565b80356101b5816102dc565b92915050565b80516101b5816102dc565b80356101b5816102f3565b80516101b5816102f3565b6000602082840312156101ee57600080fd5b60006101fa84846101bb565b949350505050565b60006020828403121561021457600080fd5b60006101fa84846101d1565b6000806040838503121561023357600080fd5b600061023f85856101c6565b9250506020610250858286016101aa565b9150509250929050565b610263816102cb565b82525050565b80610263565b600061027b8285610269565b60208201915061028b8284610269565b5060200192915050565b602081016101b58284610269565b606081016102b18286610269565b6102be6020830185610269565b6101fa604083018461025a565b60006001600160a01b0382166101b5565b6102e5816102cb565b81146102f057600080fd5b50565b806102e556fea26469706673582212208a922e5241e4e7ccf8c8a6b40ef7467fc38cccc701da60df827841243faee21864736f6c63430008040033",
  "linkReferences": {},
  "deployedLinkReferences": {}
}