{
  "_format": "hh-sol-artifact-1",
  "contractName": "PreparationSpace",
  "sourceName": "contracts/PreparationSpace.sol",
  "abi": [
    {
      "inputs": [],
      "stateMutability": "nonpayable",
      "type": "constructor"
    },
    {
      "anonymous": false,
      "inputs": [
        {
          "components": [
            {
              "internalType": "contract Recipe",
              "name": "recipe",
              "type": "address"
            },
            {
              "components": [
                {
                  "internalType": "uint256",
                  "name": "scalePercentage",
                  "type": "uint256"
                },
                {
                  "internalType": "uint256",
                  "name": "stepIndex",
                  "type": "uint256"
                }
              ],
              "internalType": "struct PreparationStatus",
              "name": "status",
              "type": "tuple"
            }
          ],
          "indexed": false,
          "internalType": "struct ActivePreparation",
          "name": "preparation",
          "type": "tuple"
        }
      ],
      "name": "PreparationUpdated",
      "type": "event"
    },
    {
      "inputs": [],
      "name": "activePreparations",
      "outputs": [
        {
          "components": [
            {
              "internalType": "contract Recipe",
              "name": "recipe",
              "type": "address"
            },
            {
              "components": [
                {
                  "internalType": "uint256",
                  "name": "scalePercentage",
                  "type": "uint256"
                },
                {
                  "internalType": "uint256",
                  "name": "stepIndex",
                  "type": "uint256"
                }
              ],
              "internalType": "struct PreparationStatus",
              "name": "status",
              "type": "tuple"
            }
          ],
          "internalType": "struct ActivePreparation[]",
          "name": "",
          "type": "tuple[]"
        }
      ],
      "stateMutability": "view",
      "type": "function"
    },
    {
      "inputs": [
        {
          "internalType": "contract Recipe",
          "name": "recipe",
          "type": "address"
        },
        {
          "internalType": "uint256",
          "name": "scalePercentage",
          "type": "uint256"
        }
      ],
      "name": "startRecipe",
      "outputs": [],
      "stateMutability": "nonpayable",
      "type": "function"
    },
    {
      "inputs": [
        {
          "internalType": "contract Recipe",
          "name": "recipe",
          "type": "address"
        }
      ],
      "name": "stopPreparation",
      "outputs": [],
      "stateMutability": "nonpayable",
      "type": "function"
    },
    {
      "inputs": [
        {
          "internalType": "contract Recipe",
          "name": "recipe",
          "type": "address"
        },
        {
          "internalType": "uint256",
          "name": "stepIndex",
          "type": "uint256"
        }
      ],
      "name": "updatePreparationStep",
      "outputs": [],
      "stateMutability": "nonpayable",
      "type": "function"
    }
  ],
  "bytecode": "0x608060405234801561001057600080fd5b5060405161001d9061005f565b604051809103906000f080158015610039573d6000803e3d6000fd5b50600080546001600160a01b0319166001600160a01b039290921691909117905561006c565b6108f280610b8283390190565b610b078061007b6000396000f3fe608060405234801561001057600080fd5b506004361061004c5760003560e01c80635f37463d146100515780639cafa40b14610066578063e82ccc2b14610084578063f3bdcb1614610097575b600080fd5b61006461005f366004610789565b6100aa565b005b61006e6101b9565b60405161007b9190610952565b60405180910390f35b61006461009236600461076b565b610362565b6100646100a5366004610789565b610443565b600081116100d35760405162461bcd60e51b81526004016100ca9061096a565b60405180910390fd5b604080518082018252828152600060208201819052549151630a3b0a4f60e01b815290916001600160a01b031690630a3b0a4f90610115908690600401610944565b600060405180830381600087803b15801561012f57600080fd5b505af1158015610143573d6000803e3d6000fd5b505050506001600160a01b0383166000818152600160208181526040928390208551815585820151920191909155815180830183529283528201839052517f8e270fd8c2ff3c6ec2e3155907cf141d994ec734fc12f2277551832192718503916101ac916109c5565b60405180910390a1505050565b600080546040805163955c986760e01b81529051606093926001600160a01b03169163955c98679160048083019286929190829003018186803b1580156101ff57600080fd5b505afa158015610213573d6000803e3d6000fd5b505050506040513d6000823e601f3d908101601f1916820160405261023b9190810190610718565b90506000815167ffffffffffffffff81111561026757634e487b7160e01b600052604160045260246000fd5b6040519080825280602002602001820160405280156102a057816020015b61028d61060d565b8152602001906001900390816102855790505b50905060005b825181101561035b5760008382815181106102d157634e487b7160e01b600052603260045260246000fd5b6020908102919091018101516040805180820182526001600160a01b038316808252600090815260018086529083902083518085019094528054845201548285015292830152845190925084908490811061033c57634e487b7160e01b600052603260045260246000fd5b602002602001018190525050808061035390610a5c565b9150506102a6565b5092915050565b604080518082018252600080825260208201819052549151631484968760e11b815290916001600160a01b0316906329092d0e906103a4908590600401610944565b600060405180830381600087803b1580156103be57600080fd5b505af11580156103d2573d6000803e3d6000fd5b505050506001600160a01b03821660008181526001602081815260408084208481559092019290925580518082018252928352908201839052517f8e270fd8c2ff3c6ec2e3155907cf141d994ec734fc12f227755183219271850391610437916109c5565b60405180910390a15050565b600054604051630bb7c8fd60e31b81526001600160a01b0390911690635dbe47e890610473908590600401610944565b60206040518083038186803b15801561048b57600080fd5b505afa15801561049f573d6000803e3d6000fd5b505050506040513d601f19601f820116820180604052508101906104c3919061074d565b6104df5760405162461bcd60e51b81526004016100ca906109a5565b816001600160a01b03166377c267eb6040518163ffffffff1660e01b815260040160206040518083038186803b15801561051857600080fd5b505afa15801561052c573d6000803e3d6000fd5b505050506040513d601f19601f8201168201806040525081019061055091906107c3565b81111561056f5760405162461bcd60e51b81526004016100ca906109b5565b6001600160a01b0382166000818152600160208181526040808420815180830183528154815281850180548286015283518085018552825181528086018a8152978990529585528551909255945190558051808201825294855290840182905251919290917f8e270fd8c2ff3c6ec2e3155907cf141d994ec734fc12f2277551832192718503916105ff916109c5565b60405180910390a150505050565b604051806040016040528060006001600160a01b03168152602001610645604051806040016040528060008152602001600081525090565b905290565b600061065d610658846109ef565b6109d3565b9050808382526020820190508285602086028201111561067c57600080fd5b60005b858110156106a8578161069288826106b2565b845250602092830192919091019060010161067f565b5050509392505050565b80516106bd81610aa3565b92915050565b600082601f8301126106d457600080fd5b81516106e484826020860161064a565b949350505050565b80516106bd81610aba565b80356106bd81610ac2565b80356106bd81610acb565b80516106bd81610acb565b60006020828403121561072a57600080fd5b815167ffffffffffffffff81111561074157600080fd5b6106e4848285016106c3565b60006020828403121561075f57600080fd5b60006106e484846106ec565b60006020828403121561077d57600080fd5b60006106e484846106f7565b6000806040838503121561079c57600080fd5b60006107a885856106f7565b92505060206107b985828601610702565b9150509250929050565b6000602082840312156107d557600080fd5b60006106e4848461070d565b60006107ed83836108f4565b505060600190565b6107fe81610a13565b82525050565b600061080e825190565b80845260209384019383018060005b8381101561084257815161083188826107e1565b97506020830192505060010161081d565b509495945050505050565b6107fe81610a24565b602481526000602082017f526563697065206d75737420626520616e2061637469766520707265706172618152633a34b7b760e11b602082015291505b5060400190565b603f81526000602082017f5374657020696e646578206d757374206265206c657373207468616e206f722081527f657175616c207468616e20746865206e756d626572206f662073746570732e0060208201529150610893565b80516060830190610905848261084d565b506020820151610918602085018261091e565b50505050565b8051604083019061092f848261093e565b50602082015161091860208501825b806107fe565b602081016106bd82846107f5565b602080825281016109638184610804565b9392505050565b602080825281016106bd81601e81527f5363616c652070657263656e74616765206d757374206e6f7420626520300000602082015260400190565b602080825281016106bd81610856565b602080825281016106bd8161089a565b606081016106bd82846108f4565b60006109de60405190565b90506109ea8282610a2f565b919050565b600067ffffffffffffffff821115610a0957610a09610a8d565b5060209081020190565b60006001600160a01b0382166106bd565b60006106bd82610a13565b601f19601f830116810181811067ffffffffffffffff82111715610a5557610a55610a8d565b6040525050565b6000600019821415610a7057610a70610a77565b5060010190565b634e487b7160e01b600052601160045260246000fd5b634e487b7160e01b600052604160045260246000fd5b610aac81610a13565b8114610ab757600080fd5b50565b801515610aac565b610aac81610a24565b80610aac56fea26469706673582212205b1a890c07d9f5d46a590d221ffff8de020a4b925954492f2bf57b83f450269664736f6c63430008040033608060405234801561001057600080fd5b506108d2806100206000396000f3fe608060405234801561001057600080fd5b50600436106100625760003560e01c80630a3b0a4f1461006757806322063ef91461007c57806329092d0e1461008f5780633e5933fe146100a25780635dbe47e8146100b5578063955c9867146100f6575b600080fd5b61007a61007536600461062d565b61010b565b005b61007a61008a36600461064b565b6101d2565b61007a61009d36600461062d565b61027a565b61007a6100b036600461064b565b6102e4565b6100e06100c336600461062d565b6001600160a01b0316600090815260208190526040902054151590565b6040516100ed919061071a565b60405180910390f35b6100fe610388565b6040516100ed9190610702565b6001600160a01b0381166000908152602081905260409020541561014a5760405162461bcd60e51b815260040161014190610763565b60405180910390fd5b60025460009061015b9060016107e8565b6001600160a01b03909216600081815260208181526040808320869055948252600190819052938120805460ff19168517905560028054948501815590527f405787fa12a823e0f2b7631cc41b3ba8828b3321ca811111fa75cd3aa3bb5ace90920180546001600160a01b03191690921790915550565b60005b815181101561027657306001600160a01b0316630a3b0a4f83838151811061020d57634e487b7160e01b600052603260045260246000fd5b60200260200101516040518263ffffffff1660e01b815260040161023191906106f4565b600060405180830381600087803b15801561024b57600080fd5b505af115801561025f573d6000803e3d6000fd5b50505050808061026e9061083e565b9150506101d5565b5050565b6001600160a01b0381166000908152602081905260409020546102af5760405162461bcd60e51b815260040161014190610728565b6001600160a01b03166000818152602081815260408083208054845260018352908320805460ff191690559282528190529055565b60005b815181101561027657306001600160a01b03166329092d0e83838151811061031f57634e487b7160e01b600052603260045260246000fd5b60200260200101516040518263ffffffff1660e01b815260040161034391906106f4565b600060405180830381600087803b15801561035d57600080fd5b505af1158015610371573d6000803e3d6000fd5b5050505080806103809061083e565b9150506102e7565b606060008060028054905067ffffffffffffffff8111156103b957634e487b7160e01b600052604160045260246000fd5b6040519080825280602002602001820160405280156103e2578160200160208202803683370190505b50905060005b6002548110156104b0576001600061040083836107e8565b815260208101919091526040016000205460ff161561049e576002818154811061043a57634e487b7160e01b600052603260045260246000fd5b9060005260206000200160009054906101000a90046001600160a01b031682848151811061047857634e487b7160e01b600052603260045260246000fd5b6001600160a01b039092166020928302919091019091015261049b8360016107e8565b92505b806104a88161083e565b9150506103e8565b5060008267ffffffffffffffff8111156104da57634e487b7160e01b600052604160045260246000fd5b604051908082528060200260200182016040528015610503578160200160208202803683370190505b50905060005b838110156105835782818151811061053157634e487b7160e01b600052603260045260246000fd5b602002602001015182828151811061055957634e487b7160e01b600052603260045260246000fd5b6001600160a01b03909216602092830291909101909101528061057b8161083e565b915050610509565b509392505050565b600061059e610599846107c4565b6107a8565b905080838252602082019050828560208602820111156105bd57600080fd5b60005b858110156105e957816105d388826105f3565b84525060209283019291909101906001016105c0565b5050509392505050565b80356105fe81610885565b92915050565b600082601f83011261061557600080fd5b813561062584826020860161058b565b949350505050565b60006020828403121561063f57600080fd5b600061062584846105f3565b60006020828403121561065d57600080fd5b813567ffffffffffffffff81111561067457600080fd5b61062584828501610604565b600061068c8383610694565b505060200190565b61069d81610800565b82525050565b60006106ad825190565b80845260209384019383018060005b838110156106e15781516106d08882610680565b9750602083019250506001016106bc565b509495945050505050565b80151561069d565b602081016105fe8284610694565b6020808252810161071381846106a3565b9392505050565b602081016105fe82846106ec565b602080825281016105fe81601d81527f41646472657373206d75737420616c7265616479206265206164646564000000602082015260400190565b602080825281016105fe81602181527f41646472657373206d757374206e6f7420616c726561647920626520616464656020820152601960fa1b604082015260600190565b60006107b360405190565b90506107bf8282610811565b919050565b600067ffffffffffffffff8211156107de576107de61086f565b5060209081020190565b600082198211156107fb576107fb610859565b500190565b60006001600160a01b0382166105fe565b601f19601f830116810181811067ffffffffffffffff821117156108375761083761086f565b6040525050565b600060001982141561085257610852610859565b5060010190565b634e487b7160e01b600052601160045260246000fd5b634e487b7160e01b600052604160045260246000fd5b61088e81610800565b811461089957600080fd5b5056fea2646970667358221220d6809336ceb9d62559e491142c3888ac89a976b19f0eab3517c9f109208576ce64736f6c63430008040033",
  "linkReferences": {},
  "deployedLinkReferences": {}
}