{
  "_format": "hh-sol-artifact-1",
  "contractName": "RecipeSet",
  "sourceName": "contracts/RecipeSet.sol",
  "abi": [
    {
      "inputs": [],
      "stateMutability": "nonpayable",
      "type": "constructor"
    },
    {
      "anonymous": false,
      "inputs": [
        {
          "components": [
            {
              "internalType": "contract Recipe",
              "name": "recipe",
              "type": "address"
            },
            {
              "internalType": "address",
              "name": "author",
              "type": "address"
            },
            {
              "internalType": "string",
              "name": "name",
              "type": "string"
            },
            {
              "components": [
                {
                  "internalType": "string",
                  "name": "ingredient",
                  "type": "string"
                },
                {
                  "internalType": "string",
                  "name": "unit",
                  "type": "string"
                },
                {
                  "internalType": "uint256",
                  "name": "amount",
                  "type": "uint256"
                }
              ],
              "internalType": "struct Ingredient[]",
              "name": "ingredients",
              "type": "tuple[]"
            },
            {
              "internalType": "string[]",
              "name": "steps",
              "type": "string[]"
            }
          ],
          "indexed": false,
          "internalType": "struct RecipeData",
          "name": "recipeData",
          "type": "tuple"
        }
      ],
      "name": "RecipeCreated",
      "type": "event"
    },
    {
      "inputs": [
        {
          "internalType": "contract Recipe",
          "name": "recipe",
          "type": "address"
        }
      ],
      "name": "add",
      "outputs": [],
      "stateMutability": "nonpayable",
      "type": "function"
    },
    {
      "inputs": [],
      "name": "contents",
      "outputs": [
        {
          "components": [
            {
              "internalType": "contract Recipe",
              "name": "recipe",
              "type": "address"
            },
            {
              "internalType": "address",
              "name": "author",
              "type": "address"
            },
            {
              "internalType": "string",
              "name": "name",
              "type": "string"
            },
            {
              "components": [
                {
                  "internalType": "string",
                  "name": "ingredient",
                  "type": "string"
                },
                {
                  "internalType": "string",
                  "name": "unit",
                  "type": "string"
                },
                {
                  "internalType": "uint256",
                  "name": "amount",
                  "type": "uint256"
                }
              ],
              "internalType": "struct Ingredient[]",
              "name": "ingredients",
              "type": "tuple[]"
            },
            {
              "internalType": "string[]",
              "name": "steps",
              "type": "string[]"
            }
          ],
          "internalType": "struct RecipeData[]",
          "name": "",
          "type": "tuple[]"
        }
      ],
      "stateMutability": "view",
      "type": "function"
    },
    {
      "inputs": [
        {
          "internalType": "string",
          "name": "name",
          "type": "string"
        },
        {
          "components": [
            {
              "internalType": "string",
              "name": "ingredient",
              "type": "string"
            },
            {
              "internalType": "string",
              "name": "unit",
              "type": "string"
            },
            {
              "internalType": "uint256",
              "name": "amount",
              "type": "uint256"
            }
          ],
          "internalType": "struct Ingredient[]",
          "name": "ingredients",
          "type": "tuple[]"
        },
        {
          "internalType": "string[]",
          "name": "steps",
          "type": "string[]"
        }
      ],
      "name": "create",
      "outputs": [],
      "stateMutability": "nonpayable",
      "type": "function"
    },
    {
      "inputs": [
        {
          "internalType": "contract Recipe",
          "name": "recipe",
          "type": "address"
        }
      ],
      "name": "remove",
      "outputs": [],
      "stateMutability": "nonpayable",
      "type": "function"
    }
  ],
  "bytecode": "0x608060405234801561001057600080fd5b5060405161001d9061005f565b604051809103906000f080158015610039573d6000803e3d6000fd5b50600080546001600160a01b0319166001600160a01b039290921691909117905561006c565b6108f2806121ab83390190565b6121308061007b6000396000f3fe60806040523480156200001157600080fd5b5060043610620000525760003560e01c80630a3b0a4f146200005757806329092d0e1462000070578063955c98671462000087578063ee56d75c14620000a9575b600080fd5b6200006e6200006836600462000b0f565b620000c0565b005b6200006e6200008136600462000b0f565b62000129565b620000916200015b565b604051620000a0919062000fb1565b60405180910390f35b6200006e620000ba36600462000b30565b62000364565b600054604051630a3b0a4f60e01b81526001600160a01b0390911690630a3b0a4f90620000f290849060040162000f47565b600060405180830381600087803b1580156200010d57600080fd5b505af115801562000122573d6000803e3d6000fd5b5050505050565b600054604051631484968760e11b81526001600160a01b03909116906329092d0e90620000f290849060040162000f47565b600080546040805163955c986760e01b81529051606093926001600160a01b03169163955c98679160048083019286929190829003018186803b158015620001a257600080fd5b505afa158015620001b7573d6000803e3d6000fd5b505050506040513d6000823e601f3d908101601f19168201604052620001e1919081019062000ad7565b9050600081516001600160401b038111156200020d57634e487b7160e01b600052604160045260246000fd5b6040519080825280602002602001820160405280156200026a57816020015b6040805160a08101825260008082526020820152606091810182905281810182905260808101919091528152602001906001900390816200022c5790505b50905060005b82518110156200035d578281815181106200029b57634e487b7160e01b600052603260045260246000fd5b60200260200101516001600160a01b0316633bc5de306040518163ffffffff1660e01b815260040160006040518083038186803b158015620002dc57600080fd5b505afa158015620002f1573d6000803e3d6000fd5b505050506040513d6000823e601f3d908101601f191682016040526200031b919081019062000bcb565b8282815181106200033c57634e487b7160e01b600052603260045260246000fd5b602002602001018190525080806200035490620010e6565b91505062000270565b5092915050565b6000338484846040516200037890620004b8565b62000387949392919062000f57565b604051809103906000f080158015620003a4573d6000803e3d6000fd5b50604051630a3b0a4f60e01b81529091503090630a3b0a4f90620003cd90849060040162000fc4565b600060405180830381600087803b158015620003e857600080fd5b505af1158015620003fd573d6000803e3d6000fd5b505050507f459db54b3b710f97ba168ee909794195e630414e0effa0d37aece8cb780769d4816001600160a01b0316633bc5de306040518163ffffffff1660e01b815260040160006040518083038186803b1580156200045c57600080fd5b505afa15801562000471573d6000803e3d6000fd5b505050506040513d6000823e601f3d908101601f191682016040526200049b919081019062000bcb565b604051620004aa919062000fd4565b60405180910390a150505050565b610f9e806200115d83390190565b6000620004dd620004d78462001006565b62000fe7565b90508083825260208201905082856020860282011115620004fd57600080fd5b60005b858110156200052d578162000516888262000799565b845250602092830192919091019060010162000500565b5050509392505050565b600062000548620004d78462001006565b905080838252602082019050828560208602820111156200056857600080fd5b60005b858110156200052d5781356001600160401b038111156200058b57600080fd5b8086016200059a898262000882565b8552505060209283019291909101906001016200056b565b6000620005c3620004d78462001006565b90508083825260208201905082856020860282011115620005e357600080fd5b60005b858110156200052d5781516001600160401b038111156200060657600080fd5b808601620006158982620008a6565b855250506020928301929190910190600101620005e6565b60006200063e620004d78462001006565b905080838252602082019050828560208602820111156200065e57600080fd5b60005b858110156200052d5781356001600160401b038111156200068157600080fd5b808601620006908982620008ca565b85525050602092830192919091019060010162000661565b6000620006b9620004d78462001006565b90508083825260208201905082856020860282011115620006d957600080fd5b60005b858110156200052d5781516001600160401b03811115620006fc57600080fd5b8086016200070b89826200095d565b855250506020928301929190910190600101620006dc565b600062000734620004d7846200102c565b9050828152602081018484840111156200074d57600080fd5b6200075a84828562001078565b509392505050565b600062000773620004d7846200102c565b9050828152602081018484840111156200078c57600080fd5b6200075a84828562001084565b8051620007a68162001130565b92915050565b600082601f830112620007be57600080fd5b8151620007d0848260208601620004c6565b949350505050565b600082601f830112620007ea57600080fd5b8135620007d084826020860162000537565b600082601f8301126200080e57600080fd5b8151620007d0848260208601620005b2565b600082601f8301126200083257600080fd5b8135620007d08482602086016200062d565b600082601f8301126200085657600080fd5b8151620007d0848260208601620006a8565b8035620007a6816200114a565b8051620007a6816200114a565b600082601f8301126200089457600080fd5b8135620007d084826020860162000723565b600082601f830112620008b857600080fd5b8151620007d084826020860162000762565b600060608284031215620008dd57600080fd5b620008e9606062000fe7565b905081356001600160401b038111156200090257600080fd5b620009108482850162000882565b82525060208201356001600160401b038111156200092d57600080fd5b6200093b8482850162000882565b6020830152506040620009518482850162000abd565b60408301525092915050565b6000606082840312156200097057600080fd5b6200097c606062000fe7565b82519091506001600160401b038111156200099657600080fd5b620009a484828501620008a6565b82525060208201516001600160401b03811115620009c157600080fd5b620009cf84828501620008a6565b6020830152506040620009518482850162000aca565b600060a08284031215620009f857600080fd5b62000a0460a062000fe7565b9050600062000a14848462000875565b825250602062000a278484830162000799565b60208301525060408201516001600160401b0381111562000a4757600080fd5b62000a5584828501620008a6565b60408301525060608201516001600160401b0381111562000a7557600080fd5b62000a838482850162000844565b60608301525060808201516001600160401b0381111562000aa357600080fd5b62000ab184828501620007fc565b60808301525092915050565b8035620007a68162001155565b8051620007a68162001155565b60006020828403121562000aea57600080fd5b81516001600160401b0381111562000b0157600080fd5b620007d084828501620007ac565b60006020828403121562000b2257600080fd5b6000620007d0848462000868565b60008060006060848603121562000b4657600080fd5b83356001600160401b0381111562000b5d57600080fd5b62000b6b8682870162000882565b93505060208401356001600160401b0381111562000b8857600080fd5b62000b968682870162000820565b92505060408401356001600160401b0381111562000bb357600080fd5b62000bc186828701620007d8565b9150509250925092565b60006020828403121562000bde57600080fd5b81516001600160401b0381111562000bf557600080fd5b620007d084828501620009e5565b600062000c11838362000e38565b9392505050565b600062000c11838362000e6d565b600062000c11838362000eba565b62000c3f8162001059565b82525050565b600062000c50825190565b8084526020840193508360208202850162000c6b8560200190565b8060005b8581101562000ca4578484038952815162000c8b858262000c03565b94506020830160209a909a019992505060010162000c6f565b5091979650505050505050565b600062000cbc825190565b8084526020840193508360208202850162000cd78560200190565b8060005b8581101562000ca4578484038952815162000cf7858262000c03565b94506020830160209a909a019992505060010162000cdb565b600062000d1b825190565b8084526020840193508360208202850162000d368560200190565b8060005b8581101562000ca4578484038952815162000d56858262000c18565b94506020830160209a909a019992505060010162000d3a565b600062000d7a825190565b8084526020840193508360208202850162000d958560200190565b8060005b8581101562000ca4578484038952815162000db5858262000c18565b94506020830160209a909a019992505060010162000d99565b600062000dd9825190565b8084526020840193508360208202850162000df48560200190565b8060005b8581101562000ca4578484038952815162000e14858262000c26565b94506020830160209a909a019992505060010162000df8565b62000c3f816200106b565b600062000e43825190565b80845260208401935062000e5c81856020860162001084565b601f01601f19169290920192915050565b805160608084526000919084019062000e87828262000e38565b9150506020830151848203602086015262000ea3828262000e38565b91505060408301516200075a604086018262000f40565b805160009060a084019062000ed0858262000e2d565b50602083015162000ee5602086018262000c34565b506040830151848203604086015262000eff828262000e38565b9150506060830151848203606086015262000f1b828262000d10565b9150506080830151848203608086015262000f37828262000c45565b95945050505050565b8062000c3f565b60208101620007a6828462000c34565b6080810162000f67828762000c34565b818103602083015262000f7b818662000e38565b9050818103604083015262000f91818562000d6f565b9050818103606083015262000fa7818462000cb1565b9695505050505050565b6020808252810162000c11818462000dce565b60208101620007a6828462000e2d565b6020808252810162000c11818462000eba565b600062000ff360405190565b9050620010018282620010b7565b919050565b60006001600160401b038211156200102257620010226200111a565b5060209081020190565b60006001600160401b038211156200104857620010486200111a565b601f19601f83011660200192915050565b60006001600160a01b038216620007a6565b6000620007a68262001059565b82818337506000910152565b60005b83811015620010a157818101518382015260200162001087565b83811115620010b1576000848401525b50505050565b601f19601f83011681018181106001600160401b0382111715620010df57620010df6200111a565b6040525050565b6000600019821415620010fd57620010fd62001104565b5060010190565b634e487b7160e01b600052601160045260246000fd5b634e487b7160e01b600052604160045260246000fd5b6200113b8162001059565b81146200114757600080fd5b50565b6200113b816200106b565b806200113b56fe60806040523480156200001157600080fd5b5060405162000f9e38038062000f9e833981016040819052620000349162000510565b6001825111620000615760405162461bcd60e51b815260040162000058906200065f565b60405180910390fd5b6000815111620000855760405162461bcd60e51b815260040162000058906200064d565b600080546001600160a01b0319166001600160a01b0386161790558251620000b5906001906020860190620001fd565b50620000c182620000d6565b620000cc8162000183565b5050505062000809565b60005b81518110156200017f5760028282815181106200010657634e487b7160e01b600052603260045260246000fd5b6020908102919091018101518254600181018455600093845292829020815180519294600302909101926200014192849290910190620001fd565b5060208281015180516200015c9260018501920190620001fd565b506040820151816002015550508080620001769062000788565b915050620000d9565b5050565b60005b81518110156200017f576003828281518110620001b357634e487b7160e01b600052603260045260246000fd5b60209081029190910181015182546001810184556000938452928290208151620001e79491909101929190910190620001fd565b5080620001f48162000788565b91505062000186565b8280546200020b9062000728565b90600052602060002090601f0160209004810192826200022f57600085556200027a565b82601f106200024a57805160ff19168380011785556200027a565b828001600101855582156200027a579182015b828111156200027a5782518255916020019190600101906200025d565b50620002889291506200028c565b5090565b5b808211156200028857600081556001016200028d565b6000620002ba620002b48462000690565b62000671565b90508083825260208201905082856020860282011115620002da57600080fd5b60005b85811015620003245781516001600160401b03811115620002fd57600080fd5b8086016200030c89826200044b565b855250506020928301929190910190600101620002dd565b5050509392505050565b60006200033f620002b48462000690565b905080838252602082019050828560208602820111156200035f57600080fd5b60005b85811015620003245781516001600160401b038111156200038257600080fd5b8086016200039189826200046f565b85525050602092830192919091019060010162000362565b6000620003ba620002b484620006b6565b905082815260208101848484011115620003d357600080fd5b620003e0848285620006f5565b509392505050565b8051620003f581620007e8565b92915050565b600082601f8301126200040d57600080fd5b81516200041f848260208601620002a3565b949350505050565b600082601f8301126200043957600080fd5b81516200041f8482602086016200032e565b600082601f8301126200045d57600080fd5b81516200041f848260208601620003a9565b6000606082840312156200048257600080fd5b6200048e606062000671565b82519091506001600160401b03811115620004a857600080fd5b620004b6848285016200044b565b82525060208201516001600160401b03811115620004d357600080fd5b620004e1848285016200044b565b6020830152506040620004f78482850162000503565b60408301525092915050565b8051620003f58162000802565b600080600080608085870312156200052757600080fd5b6000620005358787620003e8565b94505060208501516001600160401b038111156200055257600080fd5b62000560878288016200044b565b93505060408501516001600160401b038111156200057d57600080fd5b6200058b8782880162000427565b92505060608501516001600160401b03811115620005a857600080fd5b620005b687828801620003fb565b91505092959194509250565b602381526000602082017f526563697065206d7573742068617665206174206c65617374206f6e6520737481526232b81760e91b602082015291505b5060400190565b602a81526000602082017f526563697065206d7573742068617665206d6f7265207468616e206f6e6520698152693733b932b234b2b73a1760b11b60208201529150620005fe565b60208082528101620003f581620005c2565b60208082528101620003f58162000605565b60006200067d60405190565b90506200068b828262000759565b919050565b60006001600160401b03821115620006ac57620006ac620007d2565b5060209081020190565b60006001600160401b03821115620006d257620006d2620007d2565b601f19601f83011660200192915050565b60006001600160a01b038216620003f5565b60005b8381101562000712578181015183820152602001620006f8565b8381111562000722576000848401525b50505050565b6002810460018216806200073d57607f821691505b60208210811415620007535762000753620007bc565b50919050565b601f19601f83011681018181106001600160401b0382111715620007815762000781620007d2565b6040525050565b60006000198214156200079f576200079f620007a6565b5060010190565b634e487b7160e01b600052601160045260246000fd5b634e487b7160e01b600052602260045260246000fd5b634e487b7160e01b600052604160045260246000fd5b620007f381620006e3565b8114620007ff57600080fd5b50565b80620007f3565b61078580620008196000396000f3fe608060405234801561001057600080fd5b506004361061004c5760003560e01c806306fdde03146100515780633bc5de301461006f57806377c267eb14610084578063a6c3e6b914610094575b600080fd5b6100596100b4565b6040516100669190610690565b60405180910390f35b610077610142565b60405161006691906106a1565b60035460405161006691906106b2565b6000546100a7906001600160a01b031681565b604051610066919061067c565b600180546100c19061070c565b80601f01602080910402602001604051908101604052809291908181526020018280546100ed9061070c565b801561013a5780601f1061010f5761010080835404028352916020019161013a565b820191906000526020600020905b81548152906001019060200180831161011d57829003601f168201915b505050505081565b6040805160a08101825260008082526020820152606091810182905281810182905260808101919091526040805160a0810182523081526000546001600160a01b0316602082015260018054919283019161019c9061070c565b80601f01602080910402602001604051908101604052809291908181526020018280546101c89061070c565b80156102155780601f106101ea57610100808354040283529160200191610215565b820191906000526020600020905b8154815290600101906020018083116101f857829003601f168201915b505050505081526020016002805480602002602001604051908101604052809291908181526020016000905b828210156103a157838290600052602060002090600302016040518060600160405290816000820180546102749061070c565b80601f01602080910402602001604051908101604052809291908181526020018280546102a09061070c565b80156102ed5780601f106102c2576101008083540402835291602001916102ed565b820191906000526020600020905b8154815290600101906020018083116102d057829003601f168201915b505050505081526020016001820180546103069061070c565b80601f01602080910402602001604051908101604052809291908181526020018280546103329061070c565b801561037f5780601f106103545761010080835404028352916020019161037f565b820191906000526020600020905b81548152906001019060200180831161036257829003601f168201915b5050505050815260200160028201548152505081526020019060010190610241565b5050505081526020016003805480602002602001604051908101604052809291908181526020016000905b828210156104785783829060005260206000200180546103eb9061070c565b80601f01602080910402602001604051908101604052809291908181526020018280546104179061070c565b80156104645780601f1061043957610100808354040283529160200191610464565b820191906000526020600020905b81548152906001019060200180831161044757829003601f168201915b5050505050815260200190600101906103cc565b505050915250919050565b600061048f8383610579565b9392505050565b600061048f83836105ab565b6104ab816106c0565b82525050565b60006104bb825190565b808452602084019350836020820285016104d58560200190565b8060005b8581101561050a57848403895281516104f28582610483565b94506020830160209a909a01999250506001016104d9565b5091979650505050505050565b6000610521825190565b8084526020840193508360208202850161053b8560200190565b8060005b8581101561050a57848403895281516105588582610496565b94506020830160209a909a019992505060010161053f565b6104ab816106d1565b6000610583825190565b80845260208401935061059a8185602086016106dc565b601f01601f19169290920192915050565b80516060808452600091908401906105c38282610579565b915050602083015184820360208601526105dd8282610579565b91505060408301516105f26040860182610676565b509392505050565b805160009060a084019061060e8582610570565b50602083015161062160208601826104a2565b50604083015184820360408601526106398282610579565b915050606083015184820360608601526106538282610517565b9150506080830151848203608086015261066d82826104b1565b95945050505050565b806104ab565b6020810161068a82846104a2565b92915050565b6020808252810161048f8184610579565b6020808252810161048f81846105fa565b6020810161068a8284610676565b60006001600160a01b03821661068a565b600061068a826106c0565b60005b838110156106f75781810151838201526020016106df565b83811115610706576000848401525b50505050565b60028104600182168061072057607f821691505b6020821081141561073357610733610739565b50919050565b634e487b7160e01b600052602260045260246000fdfea26469706673582212206273dd0d390643e8edf2403e880177ecd09feaccd0963c0432892bfb4c5c53b564736f6c63430008040033a26469706673582212209e76009b9dce5a722701b5a625c039765c69228a57aa9a1581f2294d0a1887b664736f6c63430008040033608060405234801561001057600080fd5b506108d2806100206000396000f3fe608060405234801561001057600080fd5b50600436106100625760003560e01c80630a3b0a4f1461006757806322063ef91461007c57806329092d0e1461008f5780633e5933fe146100a25780635dbe47e8146100b5578063955c9867146100f6575b600080fd5b61007a61007536600461062d565b61010b565b005b61007a61008a36600461064b565b6101d2565b61007a61009d36600461062d565b61027a565b61007a6100b036600461064b565b6102e4565b6100e06100c336600461062d565b6001600160a01b0316600090815260208190526040902054151590565b6040516100ed919061071a565b60405180910390f35b6100fe610388565b6040516100ed9190610702565b6001600160a01b0381166000908152602081905260409020541561014a5760405162461bcd60e51b815260040161014190610763565b60405180910390fd5b60025460009061015b9060016107e8565b6001600160a01b03909216600081815260208181526040808320869055948252600190819052938120805460ff19168517905560028054948501815590527f405787fa12a823e0f2b7631cc41b3ba8828b3321ca811111fa75cd3aa3bb5ace90920180546001600160a01b03191690921790915550565b60005b815181101561027657306001600160a01b0316630a3b0a4f83838151811061020d57634e487b7160e01b600052603260045260246000fd5b60200260200101516040518263ffffffff1660e01b815260040161023191906106f4565b600060405180830381600087803b15801561024b57600080fd5b505af115801561025f573d6000803e3d6000fd5b50505050808061026e9061083e565b9150506101d5565b5050565b6001600160a01b0381166000908152602081905260409020546102af5760405162461bcd60e51b815260040161014190610728565b6001600160a01b03166000818152602081815260408083208054845260018352908320805460ff191690559282528190529055565b60005b815181101561027657306001600160a01b03166329092d0e83838151811061031f57634e487b7160e01b600052603260045260246000fd5b60200260200101516040518263ffffffff1660e01b815260040161034391906106f4565b600060405180830381600087803b15801561035d57600080fd5b505af1158015610371573d6000803e3d6000fd5b5050505080806103809061083e565b9150506102e7565b606060008060028054905067ffffffffffffffff8111156103b957634e487b7160e01b600052604160045260246000fd5b6040519080825280602002602001820160405280156103e2578160200160208202803683370190505b50905060005b6002548110156104b0576001600061040083836107e8565b815260208101919091526040016000205460ff161561049e576002818154811061043a57634e487b7160e01b600052603260045260246000fd5b9060005260206000200160009054906101000a90046001600160a01b031682848151811061047857634e487b7160e01b600052603260045260246000fd5b6001600160a01b039092166020928302919091019091015261049b8360016107e8565b92505b806104a88161083e565b9150506103e8565b5060008267ffffffffffffffff8111156104da57634e487b7160e01b600052604160045260246000fd5b604051908082528060200260200182016040528015610503578160200160208202803683370190505b50905060005b838110156105835782818151811061053157634e487b7160e01b600052603260045260246000fd5b602002602001015182828151811061055957634e487b7160e01b600052603260045260246000fd5b6001600160a01b03909216602092830291909101909101528061057b8161083e565b915050610509565b509392505050565b600061059e610599846107c4565b6107a8565b905080838252602082019050828560208602820111156105bd57600080fd5b60005b858110156105e957816105d388826105f3565b84525060209283019291909101906001016105c0565b5050509392505050565b80356105fe81610885565b92915050565b600082601f83011261061557600080fd5b813561062584826020860161058b565b949350505050565b60006020828403121561063f57600080fd5b600061062584846105f3565b60006020828403121561065d57600080fd5b813567ffffffffffffffff81111561067457600080fd5b61062584828501610604565b600061068c8383610694565b505060200190565b61069d81610800565b82525050565b60006106ad825190565b80845260209384019383018060005b838110156106e15781516106d08882610680565b9750602083019250506001016106bc565b509495945050505050565b80151561069d565b602081016105fe8284610694565b6020808252810161071381846106a3565b9392505050565b602081016105fe82846106ec565b602080825281016105fe81601d81527f41646472657373206d75737420616c7265616479206265206164646564000000602082015260400190565b602080825281016105fe81602181527f41646472657373206d757374206e6f7420616c726561647920626520616464656020820152601960fa1b604082015260600190565b60006107b360405190565b90506107bf8282610811565b919050565b600067ffffffffffffffff8211156107de576107de61086f565b5060209081020190565b600082198211156107fb576107fb610859565b500190565b60006001600160a01b0382166105fe565b601f19601f830116810181811067ffffffffffffffff821117156108375761083761086f565b6040525050565b600060001982141561085257610852610859565b5060010190565b634e487b7160e01b600052601160045260246000fd5b634e487b7160e01b600052604160045260246000fd5b61088e81610800565b811461089957600080fd5b5056fea2646970667358221220d6809336ceb9d62559e491142c3888ac89a976b19f0eab3517c9f109208576ce64736f6c63430008040033",
  "linkReferences": {},
  "deployedLinkReferences": {}
}