{
  "_format": "hh-sol-artifact-1",
  "contractName": "PublicResolver",
  "sourceName": "@ensdomains/ens-contracts/contracts/resolvers/PublicResolver.sol",
  "abi": [
    {
      "inputs": [
        {
          "internalType": "contract ENS",
          "name": "_ens",
          "type": "address"
        },
        {
          "internalType": "contract INameWrapper",
          "name": "wrapperAddress",
          "type": "address"
        }
      ],
      "stateMutability": "nonpayable",
      "type": "constructor"
    },
    {
      "anonymous": false,
      "inputs": [
        {
          "indexed": true,
          "internalType": "bytes32",
          "name": "node",
          "type": "bytes32"
        },
        {
          "indexed": true,
          "internalType": "uint256",
          "name": "contentType",
          "type": "uint256"
        }
      ],
      "name": "ABIChanged",
      "type": "event"
    },
    {
      "anonymous": false,
      "inputs": [
        {
          "indexed": true,
          "internalType": "bytes32",
          "name": "node",
          "type": "bytes32"
        },
        {
          "indexed": false,
          "internalType": "address",
          "name": "a",
          "type": "address"
        }
      ],
      "name": "AddrChanged",
      "type": "event"
    },
    {
      "anonymous": false,
      "inputs": [
        {
          "indexed": true,
          "internalType": "bytes32",
          "name": "node",
          "type": "bytes32"
        },
        {
          "indexed": false,
          "internalType": "uint256",
          "name": "coinType",
          "type": "uint256"
        },
        {
          "indexed": false,
          "internalType": "bytes",
          "name": "newAddress",
          "type": "bytes"
        }
      ],
      "name": "AddressChanged",
      "type": "event"
    },
    {
      "anonymous": false,
      "inputs": [
        {
          "indexed": true,
          "internalType": "address",
          "name": "owner",
          "type": "address"
        },
        {
          "indexed": true,
          "internalType": "address",
          "name": "operator",
          "type": "address"
        },
        {
          "indexed": false,
          "internalType": "bool",
          "name": "approved",
          "type": "bool"
        }
      ],
      "name": "ApprovalForAll",
      "type": "event"
    },
    {
      "anonymous": false,
      "inputs": [
        {
          "indexed": true,
          "internalType": "bytes32",
          "name": "node",
          "type": "bytes32"
        },
        {
          "indexed": false,
          "internalType": "bytes",
          "name": "hash",
          "type": "bytes"
        }
      ],
      "name": "ContenthashChanged",
      "type": "event"
    },
    {
      "anonymous": false,
      "inputs": [
        {
          "indexed": true,
          "internalType": "bytes32",
          "name": "node",
          "type": "bytes32"
        },
        {
          "indexed": false,
          "internalType": "bytes",
          "name": "name",
          "type": "bytes"
        },
        {
          "indexed": false,
          "internalType": "uint16",
          "name": "resource",
          "type": "uint16"
        },
        {
          "indexed": false,
          "internalType": "bytes",
          "name": "record",
          "type": "bytes"
        }
      ],
      "name": "DNSRecordChanged",
      "type": "event"
    },
    {
      "anonymous": false,
      "inputs": [
        {
          "indexed": true,
          "internalType": "bytes32",
          "name": "node",
          "type": "bytes32"
        },
        {
          "indexed": false,
          "internalType": "bytes",
          "name": "name",
          "type": "bytes"
        },
        {
          "indexed": false,
          "internalType": "uint16",
          "name": "resource",
          "type": "uint16"
        }
      ],
      "name": "DNSRecordDeleted",
      "type": "event"
    },
    {
      "anonymous": false,
      "inputs": [
        {
          "indexed": true,
          "internalType": "bytes32",
          "name": "node",
          "type": "bytes32"
        }
      ],
      "name": "DNSZoneCleared",
      "type": "event"
    },
    {
      "anonymous": false,
      "inputs": [
        {
          "indexed": true,
          "internalType": "bytes32",
          "name": "node",
          "type": "bytes32"
        },
        {
          "indexed": false,
          "internalType": "bytes",
          "name": "lastzonehash",
          "type": "bytes"
        },
        {
          "indexed": false,
          "internalType": "bytes",
          "name": "zonehash",
          "type": "bytes"
        }
      ],
      "name": "DNSZonehashChanged",
      "type": "event"
    },
    {
      "anonymous": false,
      "inputs": [
        {
          "indexed": true,
          "internalType": "bytes32",
          "name": "node",
          "type": "bytes32"
        },
        {
          "indexed": true,
          "internalType": "bytes4",
          "name": "interfaceID",
          "type": "bytes4"
        },
        {
          "indexed": false,
          "internalType": "address",
          "name": "implementer",
          "type": "address"
        }
      ],
      "name": "InterfaceChanged",
      "type": "event"
    },
    {
      "anonymous": false,
      "inputs": [
        {
          "indexed": true,
          "internalType": "bytes32",
          "name": "node",
          "type": "bytes32"
        },
        {
          "indexed": false,
          "internalType": "string",
          "name": "name",
          "type": "string"
        }
      ],
      "name": "NameChanged",
      "type": "event"
    },
    {
      "anonymous": false,
      "inputs": [
        {
          "indexed": true,
          "internalType": "bytes32",
          "name": "node",
          "type": "bytes32"
        },
        {
          "indexed": false,
          "internalType": "bytes32",
          "name": "x",
          "type": "bytes32"
        },
        {
          "indexed": false,
          "internalType": "bytes32",
          "name": "y",
          "type": "bytes32"
        }
      ],
      "name": "PubkeyChanged",
      "type": "event"
    },
    {
      "anonymous": false,
      "inputs": [
        {
          "indexed": true,
          "internalType": "bytes32",
          "name": "node",
          "type": "bytes32"
        },
        {
          "indexed": true,
          "internalType": "string",
          "name": "indexedKey",
          "type": "string"
        },
        {
          "indexed": false,
          "internalType": "string",
          "name": "key",
          "type": "string"
        }
      ],
      "name": "TextChanged",
      "type": "event"
    },
    {
      "inputs": [
        {
          "internalType": "bytes32",
          "name": "node",
          "type": "bytes32"
        },
        {
          "internalType": "uint256",
          "name": "contentTypes",
          "type": "uint256"
        }
      ],
      "name": "ABI",
      "outputs": [
        {
          "internalType": "uint256",
          "name": "",
          "type": "uint256"
        },
        {
          "internalType": "bytes",
          "name": "",
          "type": "bytes"
        }
      ],
      "stateMutability": "view",
      "type": "function"
    },
    {
      "inputs": [
        {
          "internalType": "bytes32",
          "name": "node",
          "type": "bytes32"
        }
      ],
      "name": "addr",
      "outputs": [
        {
          "internalType": "address payable",
          "name": "",
          "type": "address"
        }
      ],
      "stateMutability": "view",
      "type": "function"
    },
    {
      "inputs": [
        {
          "internalType": "bytes32",
          "name": "node",
          "type": "bytes32"
        },
        {
          "internalType": "uint256",
          "name": "coinType",
          "type": "uint256"
        }
      ],
      "name": "addr",
      "outputs": [
        {
          "internalType": "bytes",
          "name": "",
          "type": "bytes"
        }
      ],
      "stateMutability": "view",
      "type": "function"
    },
    {
      "inputs": [
        {
          "internalType": "bytes32",
          "name": "node",
          "type": "bytes32"
        }
      ],
      "name": "clearDNSZone",
      "outputs": [],
      "stateMutability": "nonpayable",
      "type": "function"
    },
    {
      "inputs": [
        {
          "internalType": "bytes32",
          "name": "node",
          "type": "bytes32"
        }
      ],
      "name": "contenthash",
      "outputs": [
        {
          "internalType": "bytes",
          "name": "",
          "type": "bytes"
        }
      ],
      "stateMutability": "view",
      "type": "function"
    },
    {
      "inputs": [
        {
          "internalType": "bytes32",
          "name": "node",
          "type": "bytes32"
        },
        {
          "internalType": "bytes32",
          "name": "name",
          "type": "bytes32"
        },
        {
          "internalType": "uint16",
          "name": "resource",
          "type": "uint16"
        }
      ],
      "name": "dnsRecord",
      "outputs": [
        {
          "internalType": "bytes",
          "name": "",
          "type": "bytes"
        }
      ],
      "stateMutability": "view",
      "type": "function"
    },
    {
      "inputs": [
        {
          "internalType": "bytes32",
          "name": "node",
          "type": "bytes32"
        },
        {
          "internalType": "bytes32",
          "name": "name",
          "type": "bytes32"
        }
      ],
      "name": "hasDNSRecords",
      "outputs": [
        {
          "internalType": "bool",
          "name": "",
          "type": "bool"
        }
      ],
      "stateMutability": "view",
      "type": "function"
    },
    {
      "inputs": [
        {
          "internalType": "bytes32",
          "name": "node",
          "type": "bytes32"
        },
        {
          "internalType": "bytes4",
          "name": "interfaceID",
          "type": "bytes4"
        }
      ],
      "name": "interfaceImplementer",
      "outputs": [
        {
          "internalType": "address",
          "name": "",
          "type": "address"
        }
      ],
      "stateMutability": "view",
      "type": "function"
    },
    {
      "inputs": [
        {
          "internalType": "address",
          "name": "account",
          "type": "address"
        },
        {
          "internalType": "address",
          "name": "operator",
          "type": "address"
        }
      ],
      "name": "isApprovedForAll",
      "outputs": [
        {
          "internalType": "bool",
          "name": "",
          "type": "bool"
        }
      ],
      "stateMutability": "view",
      "type": "function"
    },
    {
      "inputs": [
        {
          "internalType": "bytes[]",
          "name": "data",
          "type": "bytes[]"
        }
      ],
      "name": "multicall",
      "outputs": [
        {
          "internalType": "bytes[]",
          "name": "results",
          "type": "bytes[]"
        }
      ],
      "stateMutability": "nonpayable",
      "type": "function"
    },
    {
      "inputs": [
        {
          "internalType": "bytes32",
          "name": "node",
          "type": "bytes32"
        }
      ],
      "name": "name",
      "outputs": [
        {
          "internalType": "string",
          "name": "",
          "type": "string"
        }
      ],
      "stateMutability": "view",
      "type": "function"
    },
    {
      "inputs": [
        {
          "internalType": "bytes32",
          "name": "node",
          "type": "bytes32"
        }
      ],
      "name": "pubkey",
      "outputs": [
        {
          "internalType": "bytes32",
          "name": "x",
          "type": "bytes32"
        },
        {
          "internalType": "bytes32",
          "name": "y",
          "type": "bytes32"
        }
      ],
      "stateMutability": "view",
      "type": "function"
    },
    {
      "inputs": [
        {
          "internalType": "bytes32",
          "name": "node",
          "type": "bytes32"
        },
        {
          "internalType": "uint256",
          "name": "contentType",
          "type": "uint256"
        },
        {
          "internalType": "bytes",
          "name": "data",
          "type": "bytes"
        }
      ],
      "name": "setABI",
      "outputs": [],
      "stateMutability": "nonpayable",
      "type": "function"
    },
    {
      "inputs": [
        {
          "internalType": "bytes32",
          "name": "node",
          "type": "bytes32"
        },
        {
          "internalType": "uint256",
          "name": "coinType",
          "type": "uint256"
        },
        {
          "internalType": "bytes",
          "name": "a",
          "type": "bytes"
        }
      ],
      "name": "setAddr",
      "outputs": [],
      "stateMutability": "nonpayable",
      "type": "function"
    },
    {
      "inputs": [
        {
          "internalType": "bytes32",
          "name": "node",
          "type": "bytes32"
        },
        {
          "internalType": "address",
          "name": "a",
          "type": "address"
        }
      ],
      "name": "setAddr",
      "outputs": [],
      "stateMutability": "nonpayable",
      "type": "function"
    },
    {
      "inputs": [
        {
          "internalType": "address",
          "name": "operator",
          "type": "address"
        },
        {
          "internalType": "bool",
          "name": "approved",
          "type": "bool"
        }
      ],
      "name": "setApprovalForAll",
      "outputs": [],
      "stateMutability": "nonpayable",
      "type": "function"
    },
    {
      "inputs": [
        {
          "internalType": "bytes32",
          "name": "node",
          "type": "bytes32"
        },
        {
          "internalType": "bytes",
          "name": "hash",
          "type": "bytes"
        }
      ],
      "name": "setContenthash",
      "outputs": [],
      "stateMutability": "nonpayable",
      "type": "function"
    },
    {
      "inputs": [
        {
          "internalType": "bytes32",
          "name": "node",
          "type": "bytes32"
        },
        {
          "internalType": "bytes",
          "name": "data",
          "type": "bytes"
        }
      ],
      "name": "setDNSRecords",
      "outputs": [],
      "stateMutability": "nonpayable",
      "type": "function"
    },
    {
      "inputs": [
        {
          "internalType": "bytes32",
          "name": "node",
          "type": "bytes32"
        },
        {
          "internalType": "bytes4",
          "name": "interfaceID",
          "type": "bytes4"
        },
        {
          "internalType": "address",
          "name": "implementer",
          "type": "address"
        }
      ],
      "name": "setInterface",
      "outputs": [],
      "stateMutability": "nonpayable",
      "type": "function"
    },
    {
      "inputs": [
        {
          "internalType": "bytes32",
          "name": "node",
          "type": "bytes32"
        },
        {
          "internalType": "string",
          "name": "newName",
          "type": "string"
        }
      ],
      "name": "setName",
      "outputs": [],
      "stateMutability": "nonpayable",
      "type": "function"
    },
    {
      "inputs": [
        {
          "internalType": "bytes32",
          "name": "node",
          "type": "bytes32"
        },
        {
          "internalType": "bytes32",
          "name": "x",
          "type": "bytes32"
        },
        {
          "internalType": "bytes32",
          "name": "y",
          "type": "bytes32"
        }
      ],
      "name": "setPubkey",
      "outputs": [],
      "stateMutability": "nonpayable",
      "type": "function"
    },
    {
      "inputs": [
        {
          "internalType": "bytes32",
          "name": "node",
          "type": "bytes32"
        },
        {
          "internalType": "string",
          "name": "key",
          "type": "string"
        },
        {
          "internalType": "string",
          "name": "value",
          "type": "string"
        }
      ],
      "name": "setText",
      "outputs": [],
      "stateMutability": "nonpayable",
      "type": "function"
    },
    {
      "inputs": [
        {
          "internalType": "bytes32",
          "name": "node",
          "type": "bytes32"
        },
        {
          "internalType": "bytes",
          "name": "hash",
          "type": "bytes"
        }
      ],
      "name": "setZonehash",
      "outputs": [],
      "stateMutability": "nonpayable",
      "type": "function"
    },
    {
      "inputs": [
        {
          "internalType": "bytes4",
          "name": "interfaceID",
          "type": "bytes4"
        }
      ],
      "name": "supportsInterface",
      "outputs": [
        {
          "internalType": "bool",
          "name": "",
          "type": "bool"
        }
      ],
      "stateMutability": "pure",
      "type": "function"
    },
    {
      "inputs": [
        {
          "internalType": "bytes32",
          "name": "node",
          "type": "bytes32"
        },
        {
          "internalType": "string",
          "name": "key",
          "type": "string"
        }
      ],
      "name": "text",
      "outputs": [
        {
          "internalType": "string",
          "name": "",
          "type": "string"
        }
      ],
      "stateMutability": "view",
      "type": "function"
    },
    {
      "inputs": [
        {
          "internalType": "bytes32",
          "name": "node",
          "type": "bytes32"
        }
      ],
      "name": "zonehash",
      "outputs": [
        {
          "internalType": "bytes",
          "name": "",
          "type": "bytes"
        }
      ],
      "stateMutability": "view",
      "type": "function"
    }
  ],
  "bytecode": "0x60806040523480156200001157600080fd5b50604051620029a3380380620029a3833981016040819052620000349162000079565b600b80546001600160a01b039384166001600160a01b031991821617909155600c8054929093169116179055620000f1565b80516200007381620000d7565b92915050565b600080604083850312156200008d57600080fd5b60006200009b858562000066565b9250506020620000ae8582860162000066565b9150509250929050565b60006001600160a01b03821662000073565b60006200007382620000b8565b620000e281620000ca565b8114620000ee57600080fd5b50565b6128a280620001016000396000f3fe608060405234801561001057600080fd5b506004361061018e5760003560e01c806377372213116100de578063bc1c58d111610097578063d5fa2b0011610071578063d5fa2b00146103d2578063e59d895d146103e5578063e985e9c5146103f8578063f1cb7e061461043457600080fd5b8063bc1c58d114610376578063c869023314610389578063ce3decdc146103bf57600080fd5b806377372213146102f75780638b95dd711461030a578063a22cb4651461031d578063a8fa568214610330578063ac9650d814610343578063ad5780af1461036357600080fd5b8063304e6ade1161014b57806359d1d43c1161012557806359d1d43c1461029e5780635c98042b146102be578063623195b0146102d1578063691f3431146102e457600080fd5b8063304e6ade146102385780633b3b57de1461024b5780634cbf6ba41461025e57600080fd5b806301ffc9a7146101935780630af179d7146101bc57806310f13a8c146101d1578063124a319c146101e45780632203ab561461020457806329cd62ea14610225575b600080fd5b6101a66101a1366004612328565b610447565b6040516101b391906124ca565b60405180910390f35b6101cf6101ca36600461218d565b610472565b005b6101cf6101df3660046121e2565b61065d565b6101f76101f236600461211a565b61070a565b6040516101b3919061249d565b61021761021236600461205a565b61095a565b6040516101b3929190612600565b6101cf61023336600461208a565b610a75565b6101cf61024636600461218d565b610af5565b6101f761025936600461201d565b610b54565b6101a661026c36600461205a565b600091825260066020908152604080842060048352818520548552825280842092845291905290205461ffff16151590565b6102b16102ac36600461218d565b610b87565b6040516101b39190612521565b6102b16102cc36600461201d565b610c4c565b6101cf6102df366004612267565b610cee565b6102b16102f236600461201d565b610d6f565b6101cf61030536600461218d565b610d8c565b6101cf6103183660046122ce565b610deb565b6101cf61032b366004611fac565b610eb0565b6102b161033e3660046120d7565b610f51565b610356610351366004611fdc565b610f94565b6040516101b391906124b9565b6101cf61037136600461201d565b6110d8565b6102b161038436600461201d565b611139565b6103b161039736600461201d565b600090815260096020526040902080546001909101549091565b6040516101b39291906124e6565b6101cf6103cd36600461218d565b611156565b6101cf6103e036600461203b565b611262565b6101cf6103f336600461214a565b611289565b6101a6610406366004611f72565b6001600160a01b039182166000908152600d6020908152604080832093909416825291909152205460ff1690565b6102b161044236600461205a565b611319565b60006001600160e01b03198216631592ca1b60e31b148061046c575061046c826113c7565b92915050565b8261047c816113ec565b61048557600080fd5b6000806060806000806104d260008a8a8080601f016020809104026020016040519081016040528093929190818152602001838380828437600092019190915250929392505061154b9050565b90505b805151602082015110156105f85761ffff861661053757806040015195506104fc816115ac565b93508360405160200161050f9190612491565b604051602081830303815290604052805190602001209150610530816115cd565b92506105ea565b6000610542826115ac565b9050816040015161ffff168761ffff16141580610566575061056485826115e9565b155b156105e8576105c18b86898d8d8080601f016020809104026020016040519081016040528093929190818152602001838380828437600092019190915250505060208801518c91506105b99082906126d3565b8a5115611607565b8160400151965081602001519550809450848051906020012092506105e5826115cd565b93505b505b6105f381611849565b6104d5565b50825115610652576106528984878b8b8080601f0160208091040260200160405190810160405280939291908181526020018383808284376000920191909152508b925061064a91508290508e6126d3565b885115611607565b505050505050505050565b84610667816113ec565b61067057600080fd5b8282600a60008981526020019081526020016000208787604051610695929190612484565b9081526040519081900360200190206106af929091611ce7565b5084846040516106c0929190612484565b6040518091039020867fd8c9334b1a9c2f9da342a0a2b32629c1a229b6445dad78947f674b44444a755087876040516106fa92919061250f565b60405180910390a3505050505050565b60008281526007602090815260408083206001600160e01b0319851684529091528120546001600160a01b0316801561074457905061046c565b600061074f85610b54565b90506001600160a01b03811661076a5760009250505061046c565b600080826001600160a01b03166301ffc9a760e01b60405160240161078f9190612501565b60408051601f198184030181529181526020820180516001600160e01b03166301ffc9a760e01b179052516107c49190612491565b600060405180830381855afa9150503d80600081146107ff576040519150601f19603f3d011682016040523d82523d6000602084013e610804565b606091505b5091509150811580610817575060208151105b8061084f575080601f8151811061083e57634e487b7160e01b600052603260045260246000fd5b01602001516001600160f81b031916155b1561086157600094505050505061046c565b826001600160a01b03168660405160240161087c9190612501565b60408051601f198184030181529181526020820180516001600160e01b03166301ffc9a760e01b179052516108b19190612491565b600060405180830381855afa9150503d80600081146108ec576040519150601f19603f3d011682016040523d82523d6000602084013e6108f1565b606091505b509092509050811580610905575060208151105b8061093d575080601f8151811061092c57634e487b7160e01b600052603260045260246000fd5b01602001516001600160f81b031916155b1561094f57600094505050505061046c565b509095945050505050565b600082815260208190526040812060609060015b848111610a55578085161580159061099e57506000818152602083905260408120805461099a90612763565b9050115b15610a4d57808260008381526020019081526020016000208080546109c290612763565b80601f01602080910402602001604051908101604052809291908181526020018280546109ee90612763565b8015610a3b5780601f10610a1057610100808354040283529160200191610a3b565b820191906000526020600020905b815481529060010190602001808311610a1e57829003601f168201915b50505050509050935093505050610a6e565b60011b61096e565b5060006040518060200160405280600081525092509250505b9250929050565b82610a7f816113ec565b610a8857600080fd5b6040805180820182528481526020808201858152600088815260099092529083902091518255516001909101555184907f1d6f5e03d3f63eb58751986629a5439baee5079ff04f345becb66e23eb154e4690610ae790869086906124e6565b60405180910390a250505050565b82610aff816113ec565b610b0857600080fd5b6000848152600260205260409020610b21908484611ce7565b50837fe379c1624ed7e714cc0937528a32359d69d5281337765313dba4e081b72d75788484604051610ae792919061250f565b600080610b6283603c611319565b9050805160001415610b775750600092915050565b610b8081611931565b9392505050565b6060600a60008581526020019081526020016000208383604051610bac929190612484565b90815260200160405180910390208054610bc590612763565b80601f0160208091040260200160405190810160405280929190818152602001828054610bf190612763565b8015610c3e5780601f10610c1357610100808354040283529160200191610c3e565b820191906000526020600020905b815481529060010190602001808311610c2157829003601f168201915b505050505090509392505050565b6000818152600360205260409020805460609190610c6990612763565b80601f0160208091040260200160405190810160405280929190818152602001828054610c9590612763565b8015610ce25780601f10610cb757610100808354040283529160200191610ce2565b820191906000526020600020905b815481529060010190602001808311610cc557829003601f168201915b50505050509050919050565b83610cf8816113ec565b610d0157600080fd5b83610d0d6001826126d3565b1615610d1857600080fd5b6000858152602081815260408083208784529091529020610d3a908484611ce7565b50604051849086907faa121bbeef5f32f5961a2a28966e769023910fc9479059ee3495d4c1a696efe390600090a35050505050565b6000818152600860205260409020805460609190610c6990612763565b82610d96816113ec565b610d9f57600080fd5b6000848152600860205260409020610db8908484611ce7565b50837fb7d29e911041e8d9b843369e890bcb72c9388692ba48b65ac54e7214c4c348f78484604051610ae792919061250f565b82610df5816113ec565b610dfe57600080fd5b837f65412581168e88a1e60c6459d7f44ae83ad0832e670826c05a4e2476b57af7528484604051610e30929190612600565b60405180910390a2603c831415610e8257837f52d7d861f09ab3d26239d492e8968629f95e9e318cf0b73bfddc441522a15fd2610e6c84611931565b604051610e7991906124ab565b60405180910390a25b600084815260016020908152604080832086845282529091208351610ea992850190611d6b565b5050505050565b336001600160a01b0383161415610ee25760405162461bcd60e51b8152600401610ed9906125b3565b60405180910390fd5b336000818152600d602090815260408083206001600160a01b038716808552925291829020805460ff191685151517905590519091907f17307eab39ab6107e8899845ad3d59bd9653f200f220920489ca2b5937696c3190610f459085906124ca565b60405180910390a35050565b6000838152600560209081526040808320600483528184205484528252808320858452825280832061ffff851684529091529020805460609190610bc590612763565b6060816001600160401b03811115610fbc57634e487b7160e01b600052604160045260246000fd5b604051908082528060200260200182016040528015610fef57816020015b6060815260200190600190039081610fda5790505b50905060005b828110156110d1576000803086868581811061102157634e487b7160e01b600052603260045260246000fd5b90506020028101906110339190612620565b604051611041929190612484565b600060405180830381855af49150503d806000811461107c576040519150601f19603f3d011682016040523d82523d6000602084013e611081565b606091505b50915091508161109057600080fd5b808484815181106110b157634e487b7160e01b600052603260045260246000fd5b6020026020010181905250505080806110c9906127de565b915050610ff5565b5092915050565b806110e2816113ec565b6110eb57600080fd5b6000828152600460205260408120805491611105836127de565b909155505060405182907fb757169b8492ca2f1c6619d9d76ce22803035c3b1d5f6930dffe7b127c1a198390600090a25050565b6000818152600260205260409020805460609190610c6990612763565b82611160816113ec565b61116957600080fd5b6000848152600360205260408120805461118290612763565b80601f01602080910402602001604051908101604052809291908181526020018280546111ae90612763565b80156111fb5780601f106111d0576101008083540402835291602001916111fb565b820191906000526020600020905b8154815290600101906020018083116111de57829003601f168201915b505050600088815260036020526040902092935061121e92915086905085611ce7565b50847f8f15ed4b723ef428f250961da8315675b507046737e19319fc1a4d81bfe87f8582868660405161125393929190612532565b60405180910390a25050505050565b8161126c816113ec565b61127557600080fd5b61128483603c61031885611950565b505050565b82611293816113ec565b61129c57600080fd5b60008481526007602090815260408083206001600160e01b0319871680855292529182902080546001600160a01b0319166001600160a01b038616179055905185907f7c69f06bea0bdef565b709e93a147836b0063ba2dd89f02d0b7e8d931e6a6daa9061130b90869061249d565b60405180910390a350505050565b6000828152600160209081526040808320848452909152902080546060919061134190612763565b80601f016020809104026020016040519081016040528092919081815260200182805461136d90612763565b80156113ba5780601f1061138f576101008083540402835291602001916113ba565b820191906000526020600020905b81548152906001019060200180831161139d57829003601f168201915b5050505050905092915050565b60006001600160e01b03198216631674750f60e21b148061046c575061046c82611980565b600b546040516302571be360e01b815260009182916001600160a01b03909116906302571be3906114219086906004016124d8565b60206040518083038186803b15801561143957600080fd5b505afa15801561144d573d6000803e3d6000fd5b505050506040513d601f19601f820116820180604052508101906114719190611f54565b600c549091506001600160a01b038083169116141561150d57600c546040516331a9108f60e11b81526001600160a01b0390911690636352211e906114ba9086906004016124d8565b60206040518083038186803b1580156114d257600080fd5b505afa1580156114e6573d6000803e3d6000fd5b505050506040513d601f19601f8201168201806040525081019061150a9190611f54565b90505b6001600160a01b038116331480610b8057506001600160a01b0381166000908152600d6020908152604080832033845290915290205460ff16610b80565b6115996040518060e001604052806060815260200160008152602001600061ffff168152602001600061ffff168152602001600063ffffffff16815260200160008152602001600081525090565b82815260c0810182905261046c81611849565b6020810151815160609161046c916115c490826119a5565b84519190611a12565b60a081015160c082015160609161046c916115c49082906126d3565b600081518351148015610b805750610b808360008460008751611a96565b6000878152600460209081526040822054885191890191909120909161162e878787611a12565b905083156117375760008a81526005602090815260408083208684528252808320858452825280832061ffff8c1684529091529020805461166e90612763565b1590506116c25760008a815260066020908152604080832086845282528083208584529091528120805461ffff16916116a683612748565b91906101000a81548161ffff021916908361ffff160217905550505b60008a81526005602090815260408083208684528252808320858452825280832061ffff8c16845290915281206116f891611ddf565b897f03528ed0c2a3ebc993b12ce3c16bb382f9c7d88ef7d8a1bf290eaf35955a12078a8a60405161172a929190612561565b60405180910390a261183d565b60008a81526005602090815260408083208684528252808320858452825280832061ffff8c1684529091529020805461176f90612763565b151590506117c45760008a815260066020908152604080832086845282528083208584529091528120805461ffff16916117a8836127bc565b91906101000a81548161ffff021916908361ffff160217905550505b60008a81526005602090815260408083208684528252808320858452825280832061ffff8c168452825290912082516117ff92840190611d6b565b50897f52a608b3303a48862d07a73d82fa221318c0027fbbcfb1b2329bface3f19ff2b8a8a8460405161183493929190612581565b60405180910390a25b50505050505050505050565b60c081015160208201819052815151116118605750565b6000611874826000015183602001516119a5565b826020015161188391906126bb565b82519091506118929082611ab9565b61ffff1660408301526118a66002826126bb565b82519091506118b59082611ab9565b61ffff1660608301526118c96002826126bb565b82519091506118d89082611ae1565b63ffffffff1660808301526118ee6004826126bb565b82519091506000906119009083611ab9565b61ffff1690506119116002836126bb565b60a08401819052915061192481836126bb565b60c0909301929092525050565b6000815160141461194157600080fd5b5060200151600160601b900490565b604080516014808252818301909252606091602082018180368337505050600160601b9290920260208301525090565b60006001600160e01b0319821663c869023360e01b148061046c575061046c82611b0b565b6000815b835181106119c757634e487b7160e01b600052600160045260246000fd5b60006119d38583611b30565b60ff1690506119e38160016126bb565b6119ed90836126bb565b9150806119fa5750611a00565b506119a9565b611a0a83826126d3565b949350505050565b8251606090611a2183856126bb565b1115611a2c57600080fd5b6000826001600160401b03811115611a5457634e487b7160e01b600052604160045260246000fd5b6040519080825280601f01601f191660200182016040528015611a7e576020820181803683370190505b5090506020808201908686010161094f828287611b62565b6000611aa3848484611bb8565b611aae878785611bb8565b149695505050505050565b8151600090611ac98360026126bb565b1115611ad457600080fd5b50016002015161ffff1690565b8151600090611af18360046126bb565b1115611afc57600080fd5b50016004015163ffffffff1690565b60006001600160e01b0319821663691f343160e01b148061046c575061046c82611bdc565b6000828281518110611b5257634e487b7160e01b600052603260045260246000fd5b016020015160f81c905092915050565b60208110611b9a5781518352611b796020846126bb565b9250611b866020836126bb565b9150611b936020826126d3565b9050611b62565b905182516020929092036101000a6000190180199091169116179052565b8251600090611bc783856126bb565b1115611bd257600080fd5b5091016020012090565b60006001600160e01b031982166304928c6760e21b148061046c575061046c8260006001600160e01b0319821663547d2b4160e11b1480611c2d57506001600160e01b03198216635c98042b60e01b145b8061046c575061046c8260006001600160e01b0319821663bc1c58d160e01b148061046c575061046c8260006001600160e01b03198216631d9dabef60e11b1480611c8857506001600160e01b031982166378e5bf0360e11b145b8061046c575061046c8260006001600160e01b03198216631101d5ab60e11b148061046c575061046c8260006001600160e01b03198216631592ca1b60e31b148061046c57506301ffc9a760e01b6001600160e01b031983161461046c565b828054611cf390612763565b90600052602060002090601f016020900481019282611d155760008555611d5b565b82601f10611d2e5782800160ff19823516178555611d5b565b82800160010185558215611d5b579182015b82811115611d5b578235825591602001919060010190611d40565b50611d67929150611e1c565b5090565b828054611d7790612763565b90600052602060002090601f016020900481019282611d995760008555611d5b565b82601f10611db257805160ff1916838001178555611d5b565b82800160010185558215611d5b579182015b82811115611d5b578251825591602001919060010190611dc4565b508054611deb90612763565b6000825580601f10611dfb575050565b601f016020900490600052602060002090810190611e199190611e1c565b50565b5b80821115611d675760008155600101611e1d565b6000611e44611e3f84612691565b612675565b905082815260208101848484011115611e5c57600080fd5b611e6784828561270c565b509392505050565b803561046c81612830565b805161046c81612830565b60008083601f840112611e9757600080fd5b5081356001600160401b03811115611eae57600080fd5b602083019150836020820283011115610a6e57600080fd5b803561046c81612844565b803561046c8161284c565b803561046c81612852565b60008083601f840112611ef957600080fd5b5081356001600160401b03811115611f1057600080fd5b602083019150836001820283011115610a6e57600080fd5b600082601f830112611f3957600080fd5b8135611a0a848260208601611e31565b803561046c81612862565b600060208284031215611f6657600080fd5b6000611a0a8484611e7a565b60008060408385031215611f8557600080fd5b6000611f918585611e6f565b9250506020611fa285828601611e6f565b9150509250929050565b60008060408385031215611fbf57600080fd5b6000611fcb8585611e6f565b9250506020611fa285828601611ec6565b60008060208385031215611fef57600080fd5b82356001600160401b0381111561200557600080fd5b61201185828601611e85565b92509250509250929050565b60006020828403121561202f57600080fd5b6000611a0a8484611ed1565b6000806040838503121561204e57600080fd5b6000611f918585611ed1565b6000806040838503121561206d57600080fd5b60006120798585611ed1565b9250506020611fa285828601611ed1565b60008060006060848603121561209f57600080fd5b60006120ab8686611ed1565b93505060206120bc86828701611ed1565b92505060406120cd86828701611ed1565b9150509250925092565b6000806000606084860312156120ec57600080fd5b60006120f88686611ed1565b935050602061210986828701611ed1565b92505060406120cd86828701611f49565b6000806040838503121561212d57600080fd5b60006121398585611ed1565b9250506020611fa285828601611edc565b60008060006060848603121561215f57600080fd5b600061216b8686611ed1565b935050602061217c86828701611edc565b92505060406120cd86828701611e6f565b6000806000604084860312156121a257600080fd5b60006121ae8686611ed1565b93505060208401356001600160401b038111156121ca57600080fd5b6121d686828701611ee7565b92509250509250925092565b6000806000806000606086880312156121fa57600080fd5b60006122068888611ed1565b95505060208601356001600160401b0381111561222257600080fd5b61222e88828901611ee7565b945094505060408601356001600160401b0381111561224c57600080fd5b61225888828901611ee7565b92509250509295509295909350565b6000806000806060858703121561227d57600080fd5b60006122898787611ed1565b945050602061229a87828801611ed1565b93505060408501356001600160401b038111156122b657600080fd5b6122c287828801611ee7565b95989497509550505050565b6000806000606084860312156122e357600080fd5b60006122ef8686611ed1565b935050602061230086828701611ed1565b92505060408401356001600160401b0381111561231c57600080fd5b6120cd86828701611f28565b60006020828403121561233a57600080fd5b6000611a0a8484611edc565b6000610b80838361242a565b61235b816126fb565b82525050565b61235b816126ea565b6000612374825190565b8084526020840193508360208202850161238e8560200190565b8060005b858110156123c357848403895281516123ab8582612346565b94506020830160209a909a0199925050600101612392565b5091979650505050505050565b80151561235b565b8061235b565b6001600160e01b0319811661235b565b818352600060208401935061240483858461270c565b601f19601f8401165b9093019392505050565b600061242483858461270c565b50500190565b6000612434825190565b80845260208401935061244b818560208601612718565b601f19601f82011661240d565b6000612462825190565b612470818560208601612718565b9290920192915050565b61ffff811661235b565b6000611a0a828486612417565b6000610b808284612458565b6020810161046c8284612361565b6020810161046c8284612352565b60208082528101610b80818461236a565b6020810161046c82846123d0565b6020810161046c82846123d8565b604081016124f482856123d8565b610b8060208301846123d8565b6020810161046c82846123de565b60208082528101611a0a8184866123ee565b60208082528101610b80818461242a565b60408082528101612543818661242a565b905081810360208301526125588184866123ee565b95945050505050565b60408082528101612572818561242a565b9050610b80602083018461247a565b60608082528101612592818661242a565b90506125a1602083018561247a565b8181036040830152612558818461242a565b6020808252810161046c81602981527f455243313135353a2073657474696e6720617070726f76616c20737461747573602082015268103337b91039b2b63360b91b604082015260600190565b6040810161260e82856123d8565b8181036020830152611a0a818461242a565b6000808335601e193685900301811261263857600080fd5b8084019250823591506001600160401b0382111561265557600080fd5b60208301925060018202360383131561266d57600080fd5b509250929050565b600061268060405190565b905061268c8282612790565b919050565b60006001600160401b038211156126aa576126aa61281a565b601f19601f83011660200192915050565b600082198211156126ce576126ce6127ee565b500190565b6000828210156126e5576126e56127ee565b500390565b60006001600160a01b03821661046c565b600061046c82600061046c826126ea565b82818337506000910152565b60005b8381101561273357818101518382015260200161271b565b83811115612742576000848401525b50505050565b61ffff1660008161275b5761275b6127ee565b506000190190565b60028104600182168061277757607f821691505b6020821081141561278a5761278a612804565b50919050565b601f19601f83011681018181106001600160401b03821117156127b5576127b561281a565b6040525050565b600061ffff8216915061ffff8214156127d7576127d76127ee565b5060010190565b60006000198214156127d7576127d75b634e487b7160e01b600052601160045260246000fd5b634e487b7160e01b600052602260045260246000fd5b634e487b7160e01b600052604160045260246000fd5b612839816126ea565b8114611e1957600080fd5b801515612839565b80612839565b6001600160e01b03198116612839565b61ffff811661283956fea2646970667358221220ba0daaabbe645b1cad501bd7b9ff9b9eed2d55242bb0549f8c0cbf2f44b92def64736f6c63430008040033",
  "linkReferences": {},
  "deployedLinkReferences": {}
}