{
  "_format": "hh-sol-artifact-1",
  "contractName": "ReverseRegistrar",
  "sourceName": "@ensdomains/ens-contracts/contracts/registry/ReverseRegistrar.sol",
  "abi": [
    {
      "inputs": [
        {
          "internalType": "contract ENS",
          "name": "ensAddr",
          "type": "address"
        },
        {
          "internalType": "contract NameResolver",
          "name": "resolverAddr",
          "type": "address"
        }
      ],
      "stateMutability": "nonpayable",
      "type": "constructor"
    },
    {
      "anonymous": false,
      "inputs": [
        {
          "indexed": true,
          "internalType": "address",
          "name": "controller",
          "type": "address"
        },
        {
          "indexed": false,
          "internalType": "bool",
          "name": "enabled",
          "type": "bool"
        }
      ],
      "name": "ControllerChanged",
      "type": "event"
    },
    {
      "anonymous": false,
      "inputs": [
        {
          "indexed": true,
          "internalType": "address",
          "name": "previousOwner",
          "type": "address"
        },
        {
          "indexed": true,
          "internalType": "address",
          "name": "newOwner",
          "type": "address"
        }
      ],
      "name": "OwnershipTransferred",
      "type": "event"
    },
    {
      "anonymous": false,
      "inputs": [
        {
          "indexed": true,
          "internalType": "address",
          "name": "addr",
          "type": "address"
        },
        {
          "indexed": true,
          "internalType": "bytes32",
          "name": "node",
          "type": "bytes32"
        }
      ],
      "name": "ReverseClaimed",
      "type": "event"
    },
    {
      "inputs": [
        {
          "internalType": "address",
          "name": "owner",
          "type": "address"
        }
      ],
      "name": "claim",
      "outputs": [
        {
          "internalType": "bytes32",
          "name": "",
          "type": "bytes32"
        }
      ],
      "stateMutability": "nonpayable",
      "type": "function"
    },
    {
      "inputs": [
        {
          "internalType": "address",
          "name": "addr",
          "type": "address"
        },
        {
          "internalType": "address",
          "name": "owner",
          "type": "address"
        }
      ],
      "name": "claimForAddr",
      "outputs": [
        {
          "internalType": "bytes32",
          "name": "",
          "type": "bytes32"
        }
      ],
      "stateMutability": "nonpayable",
      "type": "function"
    },
    {
      "inputs": [
        {
          "internalType": "address",
          "name": "owner",
          "type": "address"
        },
        {
          "internalType": "address",
          "name": "resolver",
          "type": "address"
        }
      ],
      "name": "claimWithResolver",
      "outputs": [
        {
          "internalType": "bytes32",
          "name": "",
          "type": "bytes32"
        }
      ],
      "stateMutability": "nonpayable",
      "type": "function"
    },
    {
      "inputs": [
        {
          "internalType": "address",
          "name": "addr",
          "type": "address"
        },
        {
          "internalType": "address",
          "name": "owner",
          "type": "address"
        },
        {
          "internalType": "address",
          "name": "resolver",
          "type": "address"
        }
      ],
      "name": "claimWithResolverForAddr",
      "outputs": [
        {
          "internalType": "bytes32",
          "name": "",
          "type": "bytes32"
        }
      ],
      "stateMutability": "nonpayable",
      "type": "function"
    },
    {
      "inputs": [
        {
          "internalType": "address",
          "name": "",
          "type": "address"
        }
      ],
      "name": "controllers",
      "outputs": [
        {
          "internalType": "bool",
          "name": "",
          "type": "bool"
        }
      ],
      "stateMutability": "view",
      "type": "function"
    },
    {
      "inputs": [],
      "name": "defaultResolver",
      "outputs": [
        {
          "internalType": "contract NameResolver",
          "name": "",
          "type": "address"
        }
      ],
      "stateMutability": "view",
      "type": "function"
    },
    {
      "inputs": [],
      "name": "ens",
      "outputs": [
        {
          "internalType": "contract ENS",
          "name": "",
          "type": "address"
        }
      ],
      "stateMutability": "view",
      "type": "function"
    },
    {
      "inputs": [
        {
          "internalType": "address",
          "name": "addr",
          "type": "address"
        }
      ],
      "name": "node",
      "outputs": [
        {
          "internalType": "bytes32",
          "name": "",
          "type": "bytes32"
        }
      ],
      "stateMutability": "pure",
      "type": "function"
    },
    {
      "inputs": [],
      "name": "owner",
      "outputs": [
        {
          "internalType": "address",
          "name": "",
          "type": "address"
        }
      ],
      "stateMutability": "view",
      "type": "function"
    },
    {
      "inputs": [],
      "name": "renounceOwnership",
      "outputs": [],
      "stateMutability": "nonpayable",
      "type": "function"
    },
    {
      "inputs": [
        {
          "internalType": "address",
          "name": "controller",
          "type": "address"
        },
        {
          "internalType": "bool",
          "name": "enabled",
          "type": "bool"
        }
      ],
      "name": "setController",
      "outputs": [],
      "stateMutability": "nonpayable",
      "type": "function"
    },
    {
      "inputs": [
        {
          "internalType": "string",
          "name": "name",
          "type": "string"
        }
      ],
      "name": "setName",
      "outputs": [
        {
          "internalType": "bytes32",
          "name": "",
          "type": "bytes32"
        }
      ],
      "stateMutability": "nonpayable",
      "type": "function"
    },
    {
      "inputs": [
        {
          "internalType": "address",
          "name": "addr",
          "type": "address"
        },
        {
          "internalType": "address",
          "name": "owner",
          "type": "address"
        },
        {
          "internalType": "string",
          "name": "name",
          "type": "string"
        }
      ],
      "name": "setNameForAddr",
      "outputs": [
        {
          "internalType": "bytes32",
          "name": "",
          "type": "bytes32"
        }
      ],
      "stateMutability": "nonpayable",
      "type": "function"
    },
    {
      "inputs": [
        {
          "internalType": "address",
          "name": "newOwner",
          "type": "address"
        }
      ],
      "name": "transferOwnership",
      "outputs": [],
      "stateMutability": "nonpayable",
      "type": "function"
    }
  ],
  "bytecode": "0x60806040523480156200001157600080fd5b50604051620014a2380380620014a2833981016040819052620000349162000270565b6200003f33620001a9565b600280546001600160a01b038085166001600160a01b0319928316811790935560038054918516919092161790556040516302571be360e01b8152600091906302571be390620000b4907f91d1777781884d03a6757a803996e38de2a42967fb37eeaca72729271025a9e290600401620002d7565b60206040518083038186803b158015620000cd57600080fd5b505afa158015620000e2573d6000803e3d6000fd5b505050506040513d601f19601f8201168201806040525081019062000108919062000226565b90506001600160a01b03811615620001a057604051630f41a04d60e11b81526001600160a01b03821690631e83409a9062000148903390600401620002c7565b602060405180830381600087803b1580156200016357600080fd5b505af115801562000178573d6000803e3d6000fd5b505050506040513d601f19601f820116820180604052508101906200019e91906200024f565b505b50505062000332565b600080546001600160a01b038381166001600160a01b0319831681178455604051919092169283917f8be0079c531659141344cd1fd0a4f28419497f9722a3daafe3b4186f6b6457e09190a35050565b8051620002068162000306565b92915050565b8051620002068162000320565b8051620002068162000327565b6000602082840312156200023957600080fd5b6000620002478484620001f9565b949350505050565b6000602082840312156200026257600080fd5b60006200024784846200020c565b600080604083850312156200028457600080fd5b600062000292858562000219565b9250506020620002a58582860162000219565b9150509250929050565b620002ba81620002e7565b82525050565b80620002ba565b60208101620002068284620002af565b60208101620002068284620002c0565b60006001600160a01b03821662000206565b60006200020682620002e7565b6200031181620002e7565b81146200031d57600080fd5b50565b8062000311565b6200031181620002f9565b61116080620003426000396000f3fe608060405234801561001057600080fd5b50600436106100ea5760003560e01c80638d9522b81161008c578063c47f002711610066578063c47f0027146101cd578063da8c229e146101e0578063e0dba60f14610210578063f2fde38b1461022357600080fd5b80638d9522b81461018e5780638da5cb5b146101a1578063bffbe61c146101ba57600080fd5b80633f15457f116100c85780633f15457f1461013e5780634709bf4b1461015e578063715018a614610171578063828eab0e1461017b57600080fd5b80630ccc4a7f146100ef5780630f5a5466146101185780631e83409a1461012b575b600080fd5b6101026100fd366004610c4b565b610236565b60405161010f9190610e52565b60405180910390f35b610102610126366004610c11565b610331565b610102610139366004610bd5565b610347565b600254610151906001600160a01b031681565b60405161010f9190610ef4565b61010261016c366004610c11565b610355565b610179610445565b005b600354610151906001600160a01b031681565b61010261019c366004610c98565b61047b565b6000546001600160a01b031660405161010f9190610e1b565b6101026101c8366004610bd5565b61067e565b6101026101db366004610d5f565b6106c6565b6102036101ee366004610bd5565b60016020526000908152604090205460ff1681565b60405161010f9190610e44565b61017961021e366004610cf3565b610750565b610179610231366004610bd5565b6107da565b6000836001600160a01b03811633148061025f57503360009081526001602052604090205460ff165b806102e7575060025460405163e985e9c560e01b81526001600160a01b039091169063e985e9c5906102979084903390600401610e29565b60206040518083038186803b1580156102af57600080fd5b505afa1580156102c3573d6000803e3d6000fd5b505050506040513d601f19601f820116820180604052508101906102e79190610d23565b806102f657506102f681610836565b61031b5760405162461bcd60e51b815260040161031290610f86565b60405180910390fd5b6103268585856108c3565b91505b509392505050565b600061033e3384846108c3565b90505b92915050565b6000610341338360006108c3565b6000826001600160a01b03811633148061037e57503360009081526001602052604090205460ff165b80610406575060025460405163e985e9c560e01b81526001600160a01b039091169063e985e9c5906103b69084903390600401610e29565b60206040518083038186803b1580156103ce57600080fd5b505afa1580156103e2573d6000803e3d6000fd5b505050506040513d601f19601f820116820180604052508101906104069190610d23565b80610415575061041581610836565b6104315760405162461bcd60e51b815260040161031290610f86565b61043d848460006108c3565b949350505050565b6000546001600160a01b0316331461046f5760405162461bcd60e51b815260040161031290610f4c565b6104796000610a91565b565b6000836001600160a01b0381163314806104a457503360009081526001602052604090205460ff165b8061052c575060025460405163e985e9c560e01b81526001600160a01b039091169063e985e9c5906104dc9084903390600401610e29565b60206040518083038186803b1580156104f457600080fd5b505afa158015610508573d6000803e3d6000fd5b505050506040513d601f19601f8201168201806040525081019061052c9190610d23565b8061053b575061053b81610836565b6105575760405162461bcd60e51b815260040161031290610f86565b60035460009061057390879030906001600160a01b03166108c3565b600354604051637737221360e01b81529192506001600160a01b0316906377372213906105a69084908890600401610ed4565b600060405180830381600087803b1580156105c057600080fd5b505af11580156105d4573d6000803e3d6000fd5b50506002546001600160a01b031691506306ab5923905060008051602061110b83398151915261060389610ae1565b886040518463ffffffff1660e01b815260040161062293929190610e60565b602060405180830381600087803b15801561063c57600080fd5b505af1158015610650573d6000803e3d6000fd5b505050506040513d601f19601f820116820180604052508101906106749190610d41565b5095945050505050565b600060008051602061110b83398151915261069883610ae1565b6040516020016106a9929190610df5565b604051602081830303815290604052805190602001209050919050565b60035460009081906106e490339030906001600160a01b03166108c3565b600354604051637737221360e01b81529192506001600160a01b0316906377372213906107179084908790600401610ed4565b600060405180830381600087803b15801561073157600080fd5b505af1158015610745573d6000803e3d6000fd5b509295945050505050565b6000546001600160a01b0316331461077a5760405162461bcd60e51b815260040161031290610f4c565b6001600160a01b03821660008181526001602052604090819020805460ff1916841515179055517f4c97694570a07277810af7e5669ffd5f6a2d6b74b6e9a274b8b870fd5114cf87906107ce908490610e44565b60405180910390a25050565b6000546001600160a01b031633146108045760405162461bcd60e51b815260040161031290610f4c565b6001600160a01b03811661082a5760405162461bcd60e51b815260040161031290610f02565b61083381610a91565b50565b6000816001600160a01b0316638da5cb5b6040518163ffffffff1660e01b815260040160206040518083038186803b15801561087157600080fd5b505afa9250505080156108a1575060408051601f3d908101601f1916820190925261089e91810190610bf3565b60015b6108ad57506000919050565b6001600160a01b0316331492915050565b919050565b6000806108cf85610ae1565b9050600060008051602061110b83398151915260001b826040516020016108f7929190610df5565b60408051601f19818403018152908290528051602090910120600254630178b8bf60e01b83529092506000916001600160a01b0390911690630178b8bf90610943908590600401610e52565b60206040518083038186803b15801561095b57600080fd5b505afa15801561096f573d6000803e3d6000fd5b505050506040513d601f19601f820116820180604052508101906109939190610bf3565b905060006001600160a01b038616158015906109c15750816001600160a01b0316866001600160a01b031614155b90506000816109d057826109d2565b865b6002546040516305ef2c7f60e41b81529192506001600160a01b031690635ef2c7f090610a1a9060008051602061110b8339815191529089908d908790600090600401610e88565b600060405180830381600087803b158015610a3457600080fd5b505af1158015610a48573d6000803e3d6000fd5b50506040518692506001600160a01b038c1691507f6ada868dd3058cf77a48a74489fd7963688e5464b2b0fa957ace976243270e9290600090a3509193505050505b9392505050565b600080546001600160a01b038381166001600160a01b0319831681178455604051919092169283917f8be0079c531659141344cd1fd0a4f28419497f9722a3daafe3b4186f6b6457e09190a35050565b600060285b8015610b3b57600019016f181899199a1a9b1b9c1cb0b131b232b360811b600f84161a8153601090920491600019016f181899199a1a9b1b9c1cb0b131b232b360811b600f84161a8153601083049250610ae6565b50506028600020919050565b6000610b5a610b5584611010565b610ff9565b905082815260208101848484011115610b7257600080fd5b610329848285611069565b8035610341816110e8565b8051610341816110e8565b8035610341816110fc565b8051610341816110fc565b805161034181611104565b600082601f830112610bc557600080fd5b813561043d848260208601610b47565b600060208284031215610be757600080fd5b600061043d8484610b7d565b600060208284031215610c0557600080fd5b600061043d8484610b88565b60008060408385031215610c2457600080fd5b6000610c308585610b7d565b9250506020610c4185828601610b7d565b9150509250929050565b600080600060608486031215610c6057600080fd5b6000610c6c8686610b7d565b9350506020610c7d86828701610b7d565b9250506040610c8e86828701610b7d565b9150509250925092565b600080600060608486031215610cad57600080fd5b6000610cb98686610b7d565b9350506020610cca86828701610b7d565b925050604084013567ffffffffffffffff811115610ce757600080fd5b610c8e86828701610bb4565b60008060408385031215610d0657600080fd5b6000610d128585610b7d565b9250506020610c4185828601610b93565b600060208284031215610d3557600080fd5b600061043d8484610b9e565b600060208284031215610d5357600080fd5b600061043d8484610ba9565b600060208284031215610d7157600080fd5b813567ffffffffffffffff811115610d8857600080fd5b61043d84828501610bb4565b610d9d8161103b565b82525050565b801515610d9d565b80610d9d565b610d9d8161104c565b610d9d81611057565b6000610dcd825190565b808452602084019350610de4818560208601611075565b601f01601f19169290920192915050565b6000610e018285610dab565b602082019150610e118284610dab565b5060200192915050565b602081016103418284610d94565b60408101610e378285610d94565b610a8a6020830184610d94565b602081016103418284610da3565b602081016103418284610dab565b60608101610e6e8286610dab565b610e7b6020830185610dab565b61043d6040830184610d94565b60a08101610e968288610dab565b610ea36020830187610dab565b610eb06040830186610d94565b610ebd6060830185610d94565b610eca6080830184610dba565b9695505050505050565b60408101610ee28285610dab565b818103602083015261043d8184610dc3565b602081016103418284610db1565b6020808252810161034181602681527f4f776e61626c653a206e6577206f776e657220697320746865207a65726f206160208201526564647265737360d01b604082015260600190565b60208082528181019081527f4f776e61626c653a2063616c6c6572206973206e6f7420746865206f776e6572604083015260608201610341565b6020808252810161034181604981527f43616c6c6572206973206e6f74206120636f6e74726f6c6c6572206f7220617560208201527f74686f72697365642062792061646472657373206f722074686520616464726560408201526839b99034ba39b2b63360b91b606082015260800190565b600061100460405190565b90506108be82826110a5565b600067ffffffffffffffff82111561102a5761102a6110d2565b601f19601f83011660200192915050565b60006001600160a01b038216610341565b60006103418261103b565b600067ffffffffffffffff8216610341565b82818337506000910152565b60005b83811015611090578181015183820152602001611078565b8381111561109f576000848401525b50505050565b601f19601f830116810181811067ffffffffffffffff821117156110cb576110cb6110d2565b6040525050565b634e487b7160e01b600052604160045260246000fd5b6110f18161103b565b811461083357600080fd5b8015156110f1565b806110f156fe91d1777781884d03a6757a803996e38de2a42967fb37eeaca72729271025a9e2a2646970667358221220ba68f2ccd13c6551a63a32a98a1abf331074468421357b107a4b1bff9484b38e64736f6c63430008040033",
  "linkReferences": {},
  "deployedLinkReferences": {}
}