{
  "_format": "hh-sol-artifact-1",
  "contractName": "AddressSet",
  "sourceName": "contracts/AddressSet.sol",
  "abi": [
    {
      "inputs": [
        {
          "internalType": "address",
          "name": "addr",
          "type": "address"
        }
      ],
      "name": "add",
      "outputs": [],
      "stateMutability": "nonpayable",
      "type": "function"
    },
    {
      "inputs": [
        {
          "internalType": "address[]",
          "name": "addrs",
          "type": "address[]"
        }
      ],
      "name": "addAll",
      "outputs": [],
      "stateMutability": "nonpayable",
      "type": "function"
    },
    {
      "inputs": [
        {
          "internalType": "address",
          "name": "addr",
          "type": "address"
        }
      ],
      "name": "contains",
      "outputs": [
        {
          "internalType": "bool",
          "name": "",
          "type": "bool"
        }
      ],
      "stateMutability": "view",
      "type": "function"
    },
    {
      "inputs": [],
      "name": "contents",
      "outputs": [
        {
          "internalType": "address[]",
          "name": "",
          "type": "address[]"
        }
      ],
      "stateMutability": "view",
      "type": "function"
    },
    {
      "inputs": [
        {
          "internalType": "address",
          "name": "addr",
          "type": "address"
        }
      ],
      "name": "remove",
      "outputs": [],
      "stateMutability": "nonpayable",
      "type": "function"
    },
    {
      "inputs": [
        {
          "internalType": "address[]",
          "name": "addrs",
          "type": "address[]"
        }
      ],
      "name": "removeAll",
      "outputs": [],
      "stateMutability": "nonpayable",
      "type": "function"
    }
  ],
  "bytecode": "0x608060405234801561001057600080fd5b506108d2806100206000396000f3fe608060405234801561001057600080fd5b50600436106100625760003560e01c80630a3b0a4f1461006757806322063ef91461007c57806329092d0e1461008f5780633e5933fe146100a25780635dbe47e8146100b5578063955c9867146100f6575b600080fd5b61007a61007536600461062d565b61010b565b005b61007a61008a36600461064b565b6101d2565b61007a61009d36600461062d565b61027a565b61007a6100b036600461064b565b6102e4565b6100e06100c336600461062d565b6001600160a01b0316600090815260208190526040902054151590565b6040516100ed919061071a565b60405180910390f35b6100fe610388565b6040516100ed9190610702565b6001600160a01b0381166000908152602081905260409020541561014a5760405162461bcd60e51b815260040161014190610763565b60405180910390fd5b60025460009061015b9060016107e8565b6001600160a01b03909216600081815260208181526040808320869055948252600190819052938120805460ff19168517905560028054948501815590527f405787fa12a823e0f2b7631cc41b3ba8828b3321ca811111fa75cd3aa3bb5ace90920180546001600160a01b03191690921790915550565b60005b815181101561027657306001600160a01b0316630a3b0a4f83838151811061020d57634e487b7160e01b600052603260045260246000fd5b60200260200101516040518263ffffffff1660e01b815260040161023191906106f4565b600060405180830381600087803b15801561024b57600080fd5b505af115801561025f573d6000803e3d6000fd5b50505050808061026e9061083e565b9150506101d5565b5050565b6001600160a01b0381166000908152602081905260409020546102af5760405162461bcd60e51b815260040161014190610728565b6001600160a01b03166000818152602081815260408083208054845260018352908320805460ff191690559282528190529055565b60005b815181101561027657306001600160a01b03166329092d0e83838151811061031f57634e487b7160e01b600052603260045260246000fd5b60200260200101516040518263ffffffff1660e01b815260040161034391906106f4565b600060405180830381600087803b15801561035d57600080fd5b505af1158015610371573d6000803e3d6000fd5b5050505080806103809061083e565b9150506102e7565b606060008060028054905067ffffffffffffffff8111156103b957634e487b7160e01b600052604160045260246000fd5b6040519080825280602002602001820160405280156103e2578160200160208202803683370190505b50905060005b6002548110156104b0576001600061040083836107e8565b815260208101919091526040016000205460ff161561049e576002818154811061043a57634e487b7160e01b600052603260045260246000fd5b9060005260206000200160009054906101000a90046001600160a01b031682848151811061047857634e487b7160e01b600052603260045260246000fd5b6001600160a01b039092166020928302919091019091015261049b8360016107e8565b92505b806104a88161083e565b9150506103e8565b5060008267ffffffffffffffff8111156104da57634e487b7160e01b600052604160045260246000fd5b604051908082528060200260200182016040528015610503578160200160208202803683370190505b50905060005b838110156105835782818151811061053157634e487b7160e01b600052603260045260246000fd5b602002602001015182828151811061055957634e487b7160e01b600052603260045260246000fd5b6001600160a01b03909216602092830291909101909101528061057b8161083e565b915050610509565b509392505050565b600061059e610599846107c4565b6107a8565b905080838252602082019050828560208602820111156105bd57600080fd5b60005b858110156105e957816105d388826105f3565b84525060209283019291909101906001016105c0565b5050509392505050565b80356105fe81610885565b92915050565b600082601f83011261061557600080fd5b813561062584826020860161058b565b949350505050565b60006020828403121561063f57600080fd5b600061062584846105f3565b60006020828403121561065d57600080fd5b813567ffffffffffffffff81111561067457600080fd5b61062584828501610604565b600061068c8383610694565b505060200190565b61069d81610800565b82525050565b60006106ad825190565b80845260209384019383018060005b838110156106e15781516106d08882610680565b9750602083019250506001016106bc565b509495945050505050565b80151561069d565b602081016105fe8284610694565b6020808252810161071381846106a3565b9392505050565b602081016105fe82846106ec565b602080825281016105fe81601d81527f41646472657373206d75737420616c7265616479206265206164646564000000602082015260400190565b602080825281016105fe81602181527f41646472657373206d757374206e6f7420616c726561647920626520616464656020820152601960fa1b604082015260600190565b60006107b360405190565b90506107bf8282610811565b919050565b600067ffffffffffffffff8211156107de576107de61086f565b5060209081020190565b600082198211156107fb576107fb610859565b500190565b60006001600160a01b0382166105fe565b601f19601f830116810181811067ffffffffffffffff821117156108375761083761086f565b6040525050565b600060001982141561085257610852610859565b5060010190565b634e487b7160e01b600052601160045260246000fd5b634e487b7160e01b600052604160045260246000fd5b61088e81610800565b811461089957600080fd5b5056fea2646970667358221220d6809336ceb9d62559e491142c3888ac89a976b19f0eab3517c9f109208576ce64736f6c63430008040033",
  "linkReferences": {},
  "deployedLinkReferences": {}
}