{
  "_format": "hh-sol-artifact-1",
  "contractName": "RecipeHub",
  "sourceName": "contracts/RecipeHub.sol",
  "abi": [
    {
      "inputs": [],
      "stateMutability": "nonpayable",
      "type": "constructor"
    },
    {
      "anonymous": false,
      "inputs": [
        {
          "indexed": false,
          "internalType": "address",
          "name": "addr",
          "type": "address"
        },
        {
          "indexed": false,
          "internalType": "enum RecipeHub.RecipeSpaceChangeType",
          "name": "changeType",
          "type": "uint8"
        },
        {
          "indexed": false,
          "internalType": "contract RecipeSpace",
          "name": "recipeSpace",
          "type": "address"
        }
      ],
      "name": "RecipeSpaceChanged",
      "type": "event"
    },
    {
      "inputs": [],
      "name": "activeRecipeSpaces",
      "outputs": [
        {
          "internalType": "contract RecipeSpace[]",
          "name": "",
          "type": "address[]"
        }
      ],
      "stateMutability": "view",
      "type": "function"
    },
    {
      "inputs": [],
      "name": "createRecipeSpace",
      "outputs": [],
      "stateMutability": "nonpayable",
      "type": "function"
    },
    {
      "inputs": [
        {
          "internalType": "contract RecipeSpace",
          "name": "space",
          "type": "address"
        },
        {
          "internalType": "contract Recipe",
          "name": "recipe",
          "type": "address"
        }
      ],
      "name": "endRecipeInSpace",
      "outputs": [],
      "stateMutability": "nonpayable",
      "type": "function"
    },
    {
      "inputs": [
        {
          "internalType": "contract RecipeSpace",
          "name": "space",
          "type": "address"
        }
      ],
      "name": "removeRecipeSpace",
      "outputs": [],
      "stateMutability": "nonpayable",
      "type": "function"
    },
    {
      "inputs": [
        {
          "internalType": "contract RecipeSpace",
          "name": "space",
          "type": "address"
        },
        {
          "internalType": "contract Recipe",
          "name": "recipe",
          "type": "address"
        },
        {
          "internalType": "uint256",
          "name": "scalePercentage",
          "type": "uint256"
        }
      ],
      "name": "startRecipeInSpace",
      "outputs": [],
      "stateMutability": "nonpayable",
      "type": "function"
    },
    {
      "inputs": [
        {
          "internalType": "contract RecipeSpace",
          "name": "space",
          "type": "address"
        },
        {
          "internalType": "contract Recipe",
          "name": "recipe",
          "type": "address"
        },
        {
          "internalType": "uint256",
          "name": "stepIndex",
          "type": "uint256"
        }
      ],
      "name": "updateRecipeStepInSpace",
      "outputs": [],
      "stateMutability": "nonpayable",
      "type": "function"
    }
  ],
  "bytecode": "0x608060405234801561001057600080fd5b5060405161001d9061005f565b604051809103906000f080158015610039573d6000803e3d6000fd5b50600080546001600160a01b0319166001600160a01b039290921691909117905561006c565b6108f28061218083390190565b6121058061007b6000396000f3fe608060405234801561001057600080fd5b50600436106100625760003560e01c8063394a7b7c1461006757806345d412321461007c5780636a5254721461008f578063c9cdfdc2146100ad578063da37ccee146100b5578063f71eb0af146100c8575b600080fd5b61007a6100753660046108ca565b6100db565b005b61007a61008a366004610890565b610212565b61009761033d565b6040516100a49190610a1b565b60405180910390f35b61007a61049c565b61007a6100c3366004610872565b610557565b61007a6100d63660046108ca565b610683565b600054604051630bb7c8fd60e31b815284916001600160a01b031690635dbe47e89061010b90849060040161099b565b60206040518083038186803b15801561012357600080fd5b505afa158015610137573d6000803e3d6000fd5b505050506040513d601f19601f8201168201806040525081019061015b9190610854565b6101805760405162461bcd60e51b815260040161017790610a2c565b60405180910390fd5b604051638f70b92160e01b81526001600160a01b03851690638f70b921906101b0903390879087906004016109cb565b600060405180830381600087803b1580156101ca57600080fd5b505af11580156101de573d6000803e3d6000fd5b505050506000805160206120b083398151915233600186604051610204939291906109f3565b60405180910390a150505050565b600054604051630bb7c8fd60e31b815283916001600160a01b031690635dbe47e89061024290849060040161099b565b60206040518083038186803b15801561025a57600080fd5b505afa15801561026e573d6000803e3d6000fd5b505050506040513d601f19601f820116820180604052508101906102929190610854565b6102ae5760405162461bcd60e51b815260040161017790610a2c565b604051630e5aab8b60e21b81526001600160a01b0384169063396aae2c906102dc90339086906004016109a9565b600060405180830381600087803b1580156102f657600080fd5b505af115801561030a573d6000803e3d6000fd5b505050506000805160206120b083398151915233600185604051610330939291906109f3565b60405180910390a1505050565b600080546040805163955c986760e01b81529051606093926001600160a01b03169163955c98679160048083019286929190829003018186803b15801561038357600080fd5b505afa158015610397573d6000803e3d6000fd5b505050506040513d6000823e601f3d908101601f191682016040526103bf919081019061081f565b90506000815167ffffffffffffffff8111156103eb57634e487b7160e01b600052604160045260246000fd5b604051908082528060200260200182016040528015610414578160200160208202803683370190505b50905060005b82518110156104955782818151811061044357634e487b7160e01b600052603260045260246000fd5b602002602001015182828151811061046b57634e487b7160e01b600052603260045260246000fd5b6001600160a01b03909216602092830291909101909101528061048d81610b05565b91505061041a565b5092915050565b60006040516104aa9061074f565b604051809103906000f0801580156104c6573d6000803e3d6000fd5b50600054604051630a3b0a4f60e01b81529192506001600160a01b031690630a3b0a4f906104f890849060040161099b565b600060405180830381600087803b15801561051257600080fd5b505af1158015610526573d6000803e3d6000fd5b505050506000805160206120b08339815191523360008360405161054c939291906109f3565b60405180910390a150565b600054604051630bb7c8fd60e31b815282916001600160a01b031690635dbe47e89061058790849060040161099b565b60206040518083038186803b15801561059f57600080fd5b505afa1580156105b3573d6000803e3d6000fd5b505050506040513d601f19601f820116820180604052508101906105d79190610854565b6105f35760405162461bcd60e51b815260040161017790610a2c565b600054604051631484968760e11b81526001600160a01b03909116906329092d0e9061062390859060040161099b565b600060405180830381600087803b15801561063d57600080fd5b505af1158015610651573d6000803e3d6000fd5b505050506000805160206120b083398151915233600284604051610677939291906109f3565b60405180910390a15050565b600054604051630bb7c8fd60e31b815284916001600160a01b031690635dbe47e8906106b390849060040161099b565b60206040518083038186803b1580156106cb57600080fd5b505afa1580156106df573d6000803e3d6000fd5b505050506040513d601f19601f820116820180604052508101906107039190610854565b61071f5760405162461bcd60e51b815260040161017790610a2c565b60405163345ba2a360e01b81526001600160a01b0385169063345ba2a3906101b0903390879087906004016109cb565b61150f80610ba183390190565b600061076f61076a84610a83565b610a67565b9050808382526020820190508285602086028201111561078e57600080fd5b60005b858110156107ba57816107a488826107c4565b8452506020928301929190910190600101610791565b5050509392505050565b80516107cf81610b75565b92915050565b600082601f8301126107e657600080fd5b81516107f684826020860161075c565b949350505050565b80516107cf81610b89565b80356107cf81610b91565b80356107cf81610b9a565b60006020828403121561083157600080fd5b815167ffffffffffffffff81111561084857600080fd5b6107f6848285016107d5565b60006020828403121561086657600080fd5b60006107f684846107fe565b60006020828403121561088457600080fd5b60006107f68484610809565b600080604083850312156108a357600080fd5b60006108af8585610809565b92505060206108c085828601610809565b9150509250929050565b6000806000606084860312156108df57600080fd5b60006108eb8686610809565b93505060206108fc86828701610809565b925050604061090d86828701610814565b9150509250925092565b60006109238383610983565b505060200190565b61093481610aa7565b82525050565b6000610944825190565b80845260209384019383018060005b838110156109785781516109678882610917565b975060208301925050600101610953565b509495945050505050565b61093481610ab8565b61093481610acd565b80610934565b602081016107cf828461092b565b604081016109b7828561092b565b6109c46020830184610983565b9392505050565b606081016109d9828661092b565b6109e66020830185610983565b6107f66040830184610995565b60608101610a01828661092b565b610a0e602083018561098c565b6107f66040830184610983565b602080825281016109c4818461093a565b602080825281016107cf81601e81527f4d75737420626520616e20616374697665207265636970652073706163650000602082015260400190565b6000610a7260405190565b9050610a7e8282610ad8565b919050565b600067ffffffffffffffff821115610a9d57610a9d610b4c565b5060209081020190565b60006001600160a01b0382166107cf565b60006107cf82610aa7565b80610a7e81610b62565b60006107cf82610ac3565b601f19601f830116810181811067ffffffffffffffff82111715610afe57610afe610b4c565b6040525050565b6000600019821415610b1957610b19610b20565b5060010190565b634e487b7160e01b600052601160045260246000fd5b634e487b7160e01b600052602160045260246000fd5b634e487b7160e01b600052604160045260246000fd5b60038110610b7257610b72610b36565b50565b610b7e81610aa7565b8114610b7257600080fd5b801515610b7e565b610b7e81610ab8565b80610b7e56fe608060405234801561001057600080fd5b5060405161001d9061005f565b604051809103906000f080158015610039573d6000803e3d6000fd5b50600080546001600160a01b0319166001600160a01b039290921691909117905561006c565b6108f280610c1d83390190565b610ba28061007b6000396000f3fe608060405234801561001057600080fd5b506004361061004c5760003560e01c8063345ba2a314610051578063396aae2c146100665780635f54ca34146100795780638f70b92114610097575b600080fd5b61006461005f36600461077a565b6100aa565b005b610064610074366004610740565b610289565b61008161037d565b60405161008e919061099a565b60405180910390f35b6100646100a536600461077a565b61054e565b600054604051630bb7c8fd60e31b81526001600160a01b0390911690635dbe47e8906100da908590600401610964565b60206040518083038186803b1580156100f257600080fd5b505afa158015610106573d6000803e3d6000fd5b505050506040513d601f19601f8201168201806040525081019061012a91906107fc565b61014f5760405162461bcd60e51b8152600401610146906109b2565b60405180910390fd5b816001600160a01b03166377c267eb6040518163ffffffff1660e01b815260040160206040518083038186803b15801561018857600080fd5b505afa15801561019c573d6000803e3d6000fd5b505050506040513d601f19601f820116820180604052508101906101c0919061081a565b8111156101df5760405162461bcd60e51b8152600401610146906109d2565b6001600160a01b03828116600081815260016020818152604080842081516060810183528154808916825282860180548387019081528386018c8152999098529486905281516001600160a01b031990911698169790971781559351909155925160029092019190915590517fc612687716a6924f791ec3aa28ba81c3f1b47c4d1b2bdc16cd1fcc99e197199d9161027b918791908590610972565b60405180910390a150505050565b6001600160a01b03808216600081815260016020818152604080842081516060810183528154808916825282860180548387015260028401805484870152988852959094526001600160a01b03199093169055918390559282905590549051631484968760e11b8152919216906329092d0e9061030a908590600401610964565b600060405180830381600087803b15801561032457600080fd5b505af1158015610338573d6000803e3d6000fd5b505050507fc612687716a6924f791ec3aa28ba81c3f1b47c4d1b2bdc16cd1fcc99e197199d8360028360405161037093929190610972565b60405180910390a1505050565b600080546040805163955c986760e01b81529051606093926001600160a01b03169163955c98679160048083019286929190829003018186803b1580156103c357600080fd5b505afa1580156103d7573d6000803e3d6000fd5b505050506040513d6000823e601f3d908101601f191682016040526103ff91908101906107c7565b90506000815167ffffffffffffffff81111561042b57634e487b7160e01b600052604160045260246000fd5b60405190808252806020026020018201604052801561048957816020015b610476604051806060016040528060006001600160a01b0316815260200160008152602001600081525090565b8152602001906001900390816104495790505b50905060005b825181101561054757600160008483815181106104bc57634e487b7160e01b600052603260045260246000fd5b6020908102919091018101516001600160a01b0390811683528282019390935260409182016000208251606081018452815490941684526001810154918401919091526002015490820152825183908390811061052957634e487b7160e01b600052603260045260246000fd5b6020026020010181905250808061053f90610ad1565b91505061048f565b5092915050565b6000811161056e5760405162461bcd60e51b8152600401610146906109c2565b604080516060810182526001600160a01b038085168252602082018490526000828401819052549251630a3b0a4f60e01b815291921690630a3b0a4f906105b9908690600401610964565b600060405180830381600087803b1580156105d357600080fd5b505af11580156105e7573d6000803e3d6000fd5b505050506001600160a01b038381166000908152600160208181526040808420865181546001600160a01b031916961695909517855590850151918401919091558381015160029093019290925590517fc612687716a6924f791ec3aa28ba81c3f1b47c4d1b2bdc16cd1fcc99e197199d9161027b918791908590610972565b600061067a61067584610a4f565b610a33565b9050808382526020820190508285602086028201111561069957600080fd5b60005b858110156106c557816106af88826106e0565b845250602092830192919091019060010161069c565b5050509392505050565b80356106da81610b41565b92915050565b80516106da81610b41565b600082601f8301126106fc57600080fd5b815161070c848260208601610667565b949350505050565b80516106da81610b55565b80356106da81610b5d565b80356106da81610b66565b80516106da81610b66565b6000806040838503121561075357600080fd5b600061075f85856106cf565b92505060206107708582860161071f565b9150509250929050565b60008060006060848603121561078f57600080fd5b600061079b86866106cf565b93505060206107ac8682870161071f565b92505060406107bd8682870161072a565b9150509250925092565b6000602082840312156107d957600080fd5b815167ffffffffffffffff8111156107f057600080fd5b61070c848285016106eb565b60006020828403121561080e57600080fd5b600061070c8484610714565b60006020828403121561082c57600080fd5b600061070c8484610735565b60006108448383610921565b505060600190565b61085581610a73565b82525050565b6000610865825190565b80845260209384019383018060005b838110156108995781516108888882610838565b975060208301925050600101610874565b509495945050505050565b61085581610a84565b61085581610a99565b601e81526000602082017f526563697065206d75737420626520616c726561647920737461727465640000815291505b5060200190565b601e81526000602082017f5363616c652070657263656e74616765206d757374206e6f7420626520300000815291506108e6565b8051606083019061093284826108a4565b506020820151610945602085018261095e565b506040820151610958604085018261095e565b50505050565b80610855565b602081016106da828461084c565b60a08101610980828661084c565b61098d60208301856108ad565b61070c6040830184610921565b602080825281016109ab818461085b565b9392505050565b602080825281016106da816108b6565b602080825281016106da816108ed565b602080825281016106da81603f81527f5374657020696e646578206d757374206265206c657373207468616e206f722060208201527f657175616c207468616e20746865206e756d626572206f662073746570732e00604082015260600190565b6000610a3e60405190565b9050610a4a8282610aa4565b919050565b600067ffffffffffffffff821115610a6957610a69610b18565b5060209081020190565b60006001600160a01b0382166106da565b60006106da82610a73565b80610a4a81610b2e565b60006106da82610a8f565b601f19601f830116810181811067ffffffffffffffff82111715610aca57610aca610b18565b6040525050565b6000600019821415610ae557610ae5610aec565b5060010190565b634e487b7160e01b600052601160045260246000fd5b634e487b7160e01b600052602160045260246000fd5b634e487b7160e01b600052604160045260246000fd5b60038110610b3e57610b3e610b02565b50565b610b4a81610a73565b8114610b3e57600080fd5b801515610b4a565b610b4a81610a84565b80610b4a56fea26469706673582212208928bcf160476a3928573d331083def29a73fa1191ff238f800c52be96e3b0a464736f6c63430008040033608060405234801561001057600080fd5b506108d2806100206000396000f3fe608060405234801561001057600080fd5b50600436106100625760003560e01c80630a3b0a4f1461006757806322063ef91461007c57806329092d0e1461008f5780633e5933fe146100a25780635dbe47e8146100b5578063955c9867146100f6575b600080fd5b61007a61007536600461062d565b61010b565b005b61007a61008a36600461064b565b6101d2565b61007a61009d36600461062d565b61027a565b61007a6100b036600461064b565b6102e4565b6100e06100c336600461062d565b6001600160a01b0316600090815260208190526040902054151590565b6040516100ed919061071a565b60405180910390f35b6100fe610388565b6040516100ed9190610702565b6001600160a01b0381166000908152602081905260409020541561014a5760405162461bcd60e51b815260040161014190610763565b60405180910390fd5b60025460009061015b9060016107e8565b6001600160a01b03909216600081815260208181526040808320869055948252600190819052938120805460ff19168517905560028054948501815590527f405787fa12a823e0f2b7631cc41b3ba8828b3321ca811111fa75cd3aa3bb5ace90920180546001600160a01b03191690921790915550565b60005b815181101561027657306001600160a01b0316630a3b0a4f83838151811061020d57634e487b7160e01b600052603260045260246000fd5b60200260200101516040518263ffffffff1660e01b815260040161023191906106f4565b600060405180830381600087803b15801561024b57600080fd5b505af115801561025f573d6000803e3d6000fd5b50505050808061026e9061083e565b9150506101d5565b5050565b6001600160a01b0381166000908152602081905260409020546102af5760405162461bcd60e51b815260040161014190610728565b6001600160a01b03166000818152602081815260408083208054845260018352908320805460ff191690559282528190529055565b60005b815181101561027657306001600160a01b03166329092d0e83838151811061031f57634e487b7160e01b600052603260045260246000fd5b60200260200101516040518263ffffffff1660e01b815260040161034391906106f4565b600060405180830381600087803b15801561035d57600080fd5b505af1158015610371573d6000803e3d6000fd5b5050505080806103809061083e565b9150506102e7565b606060008060028054905067ffffffffffffffff8111156103b957634e487b7160e01b600052604160045260246000fd5b6040519080825280602002602001820160405280156103e2578160200160208202803683370190505b50905060005b6002548110156104b0576001600061040083836107e8565b815260208101919091526040016000205460ff161561049e576002818154811061043a57634e487b7160e01b600052603260045260246000fd5b9060005260206000200160009054906101000a90046001600160a01b031682848151811061047857634e487b7160e01b600052603260045260246000fd5b6001600160a01b039092166020928302919091019091015261049b8360016107e8565b92505b806104a88161083e565b9150506103e8565b5060008267ffffffffffffffff8111156104da57634e487b7160e01b600052604160045260246000fd5b604051908082528060200260200182016040528015610503578160200160208202803683370190505b50905060005b838110156105835782818151811061053157634e487b7160e01b600052603260045260246000fd5b602002602001015182828151811061055957634e487b7160e01b600052603260045260246000fd5b6001600160a01b03909216602092830291909101909101528061057b8161083e565b915050610509565b509392505050565b600061059e610599846107c4565b6107a8565b905080838252602082019050828560208602820111156105bd57600080fd5b60005b858110156105e957816105d388826105f3565b84525060209283019291909101906001016105c0565b5050509392505050565b80356105fe81610885565b92915050565b600082601f83011261061557600080fd5b813561062584826020860161058b565b949350505050565b60006020828403121561063f57600080fd5b600061062584846105f3565b60006020828403121561065d57600080fd5b813567ffffffffffffffff81111561067457600080fd5b61062584828501610604565b600061068c8383610694565b505060200190565b61069d81610800565b82525050565b60006106ad825190565b80845260209384019383018060005b838110156106e15781516106d08882610680565b9750602083019250506001016106bc565b509495945050505050565b80151561069d565b602081016105fe8284610694565b6020808252810161071381846106a3565b9392505050565b602081016105fe82846106ec565b602080825281016105fe81601d81527f41646472657373206d75737420616c7265616479206265206164646564000000602082015260400190565b602080825281016105fe81602181527f41646472657373206d757374206e6f7420616c726561647920626520616464656020820152601960fa1b604082015260600190565b60006107b360405190565b90506107bf8282610811565b919050565b600067ffffffffffffffff8211156107de576107de61086f565b5060209081020190565b600082198211156107fb576107fb610859565b500190565b60006001600160a01b0382166105fe565b601f19601f830116810181811067ffffffffffffffff821117156108375761083761086f565b6040525050565b600060001982141561085257610852610859565b5060010190565b634e487b7160e01b600052601160045260246000fd5b634e487b7160e01b600052604160045260246000fd5b61088e81610800565b811461089957600080fd5b5056fea2646970667358221220d6809336ceb9d62559e491142c3888ac89a976b19f0eab3517c9f109208576ce64736f6c63430008040033f8200598f2b9bf8a36f2bed7db398cacb9dba4436a8d8648b810f1229bcae353a2646970667358221220083b7c34c7b153c3b135827959e11f182329d6ba10017802f7368ded261ba54664736f6c63430008040033608060405234801561001057600080fd5b506108d2806100206000396000f3fe608060405234801561001057600080fd5b50600436106100625760003560e01c80630a3b0a4f1461006757806322063ef91461007c57806329092d0e1461008f5780633e5933fe146100a25780635dbe47e8146100b5578063955c9867146100f6575b600080fd5b61007a61007536600461062d565b61010b565b005b61007a61008a36600461064b565b6101d2565b61007a61009d36600461062d565b61027a565b61007a6100b036600461064b565b6102e4565b6100e06100c336600461062d565b6001600160a01b0316600090815260208190526040902054151590565b6040516100ed919061071a565b60405180910390f35b6100fe610388565b6040516100ed9190610702565b6001600160a01b0381166000908152602081905260409020541561014a5760405162461bcd60e51b815260040161014190610763565b60405180910390fd5b60025460009061015b9060016107e8565b6001600160a01b03909216600081815260208181526040808320869055948252600190819052938120805460ff19168517905560028054948501815590527f405787fa12a823e0f2b7631cc41b3ba8828b3321ca811111fa75cd3aa3bb5ace90920180546001600160a01b03191690921790915550565b60005b815181101561027657306001600160a01b0316630a3b0a4f83838151811061020d57634e487b7160e01b600052603260045260246000fd5b60200260200101516040518263ffffffff1660e01b815260040161023191906106f4565b600060405180830381600087803b15801561024b57600080fd5b505af115801561025f573d6000803e3d6000fd5b50505050808061026e9061083e565b9150506101d5565b5050565b6001600160a01b0381166000908152602081905260409020546102af5760405162461bcd60e51b815260040161014190610728565b6001600160a01b03166000818152602081815260408083208054845260018352908320805460ff191690559282528190529055565b60005b815181101561027657306001600160a01b03166329092d0e83838151811061031f57634e487b7160e01b600052603260045260246000fd5b60200260200101516040518263ffffffff1660e01b815260040161034391906106f4565b600060405180830381600087803b15801561035d57600080fd5b505af1158015610371573d6000803e3d6000fd5b5050505080806103809061083e565b9150506102e7565b606060008060028054905067ffffffffffffffff8111156103b957634e487b7160e01b600052604160045260246000fd5b6040519080825280602002602001820160405280156103e2578160200160208202803683370190505b50905060005b6002548110156104b0576001600061040083836107e8565b815260208101919091526040016000205460ff161561049e576002818154811061043a57634e487b7160e01b600052603260045260246000fd5b9060005260206000200160009054906101000a90046001600160a01b031682848151811061047857634e487b7160e01b600052603260045260246000fd5b6001600160a01b039092166020928302919091019091015261049b8360016107e8565b92505b806104a88161083e565b9150506103e8565b5060008267ffffffffffffffff8111156104da57634e487b7160e01b600052604160045260246000fd5b604051908082528060200260200182016040528015610503578160200160208202803683370190505b50905060005b838110156105835782818151811061053157634e487b7160e01b600052603260045260246000fd5b602002602001015182828151811061055957634e487b7160e01b600052603260045260246000fd5b6001600160a01b03909216602092830291909101909101528061057b8161083e565b915050610509565b509392505050565b600061059e610599846107c4565b6107a8565b905080838252602082019050828560208602820111156105bd57600080fd5b60005b858110156105e957816105d388826105f3565b84525060209283019291909101906001016105c0565b5050509392505050565b80356105fe81610885565b92915050565b600082601f83011261061557600080fd5b813561062584826020860161058b565b949350505050565b60006020828403121561063f57600080fd5b600061062584846105f3565b60006020828403121561065d57600080fd5b813567ffffffffffffffff81111561067457600080fd5b61062584828501610604565b600061068c8383610694565b505060200190565b61069d81610800565b82525050565b60006106ad825190565b80845260209384019383018060005b838110156106e15781516106d08882610680565b9750602083019250506001016106bc565b509495945050505050565b80151561069d565b602081016105fe8284610694565b6020808252810161071381846106a3565b9392505050565b602081016105fe82846106ec565b602080825281016105fe81601d81527f41646472657373206d75737420616c7265616479206265206164646564000000602082015260400190565b602080825281016105fe81602181527f41646472657373206d757374206e6f7420616c726561647920626520616464656020820152601960fa1b604082015260600190565b60006107b360405190565b90506107bf8282610811565b919050565b600067ffffffffffffffff8211156107de576107de61086f565b5060209081020190565b600082198211156107fb576107fb610859565b500190565b60006001600160a01b0382166105fe565b601f19601f830116810181811067ffffffffffffffff821117156108375761083761086f565b6040525050565b600060001982141561085257610852610859565b5060010190565b634e487b7160e01b600052601160045260246000fd5b634e487b7160e01b600052604160045260246000fd5b61088e81610800565b811461089957600080fd5b5056fea2646970667358221220d6809336ceb9d62559e491142c3888ac89a976b19f0eab3517c9f109208576ce64736f6c63430008040033",
  "linkReferences": {},
  "deployedLinkReferences": {}
}