{
  "_format": "hh-sol-artifact-1",
  "contractName": "RecipeHub",
  "sourceName": "contracts/RecipeHub.sol",
  "abi": [
    {
      "inputs": [],
      "stateMutability": "nonpayable",
      "type": "constructor"
    },
    {
      "anonymous": false,
      "inputs": [
        {
          "indexed": false,
          "internalType": "address",
          "name": "addr",
          "type": "address"
        },
        {
          "indexed": false,
          "internalType": "enum RecipeHub.RecipeSpaceChangeType",
          "name": "changeType",
          "type": "uint8"
        },
        {
          "indexed": false,
          "internalType": "contract RecipeSpace",
          "name": "recipeSpace",
          "type": "address"
        }
      ],
      "name": "RecipeSpaceChanged",
      "type": "event"
    },
    {
      "inputs": [
        {
          "internalType": "string",
          "name": "name",
          "type": "string"
        }
      ],
      "name": "createRecipeSpace",
      "outputs": [],
      "stateMutability": "nonpayable",
      "type": "function"
    },
    {
      "inputs": [
        {
          "internalType": "contract RecipeSpace",
          "name": "space",
          "type": "address"
        },
        {
          "internalType": "contract Recipe",
          "name": "recipe",
          "type": "address"
        }
      ],
      "name": "endRecipeInSpace",
      "outputs": [],
      "stateMutability": "nonpayable",
      "type": "function"
    },
    {
      "inputs": [
        {
          "internalType": "string",
          "name": "name",
          "type": "string"
        }
      ],
      "name": "recipeSpaceByName",
      "outputs": [
        {
          "internalType": "contract RecipeSpace",
          "name": "",
          "type": "address"
        }
      ],
      "stateMutability": "view",
      "type": "function"
    },
    {
      "inputs": [
        {
          "internalType": "contract RecipeSpace",
          "name": "space",
          "type": "address"
        }
      ],
      "name": "removeRecipeSpace",
      "outputs": [],
      "stateMutability": "nonpayable",
      "type": "function"
    },
    {
      "inputs": [
        {
          "internalType": "contract RecipeSpace",
          "name": "space",
          "type": "address"
        },
        {
          "internalType": "contract Recipe",
          "name": "recipe",
          "type": "address"
        },
        {
          "internalType": "uint256",
          "name": "scalePercentage",
          "type": "uint256"
        }
      ],
      "name": "startRecipeInSpace",
      "outputs": [],
      "stateMutability": "nonpayable",
      "type": "function"
    },
    {
      "inputs": [
        {
          "internalType": "contract RecipeSpace",
          "name": "space",
          "type": "address"
        },
        {
          "internalType": "contract Recipe",
          "name": "recipe",
          "type": "address"
        },
        {
          "internalType": "uint256",
          "name": "stepIndex",
          "type": "uint256"
        }
      ],
      "name": "updateRecipeStepInSpace",
      "outputs": [],
      "stateMutability": "nonpayable",
      "type": "function"
    }
  ],
  "bytecode": "0x608060405234801561001057600080fd5b5060405161001d9061005f565b604051809103906000f080158015610039573d6000803e3d6000fd5b50600080546001600160a01b0319166001600160a01b039290921691909117905561006c565b6108f28061305683390190565b612fdb8061007b6000396000f3fe60806040523480156200001157600080fd5b50600436106200006a5760003560e01c8063394a7b7c146200006f57806345d4123214620000885780639d251855146200009f578063cb83ce4514620000b6578063da37ccee14620000e5578063f71eb0af14620000fc575b600080fd5b6200008662000080366004620008cc565b62000113565b005b62000086620000993660046200088d565b6200025a565b62000086620000b036600462000920565b62000395565b620000cd620000c736600462000920565b620004ff565b604051620000dc919062000aba565b60405180910390f35b62000086620000f63660046200086c565b62000532565b620000866200010d366004620008cc565b6200066d565b600054604051630bb7c8fd60e31b815284916001600160a01b031690635dbe47e8906200014590849060040162000a2f565b60206040518083038186803b1580156200015e57600080fd5b505afa15801562000173573d6000803e3d6000fd5b505050506040513d601f19601f820116820180604052508101906200019991906200084b565b620001c15760405162461bcd60e51b8152600401620001b89062000b2f565b60405180910390fd5b604051638f70b92160e01b81526001600160a01b03851690638f70b92190620001f39033908790879060040162000a5e565b600060405180830381600087803b1580156200020e57600080fd5b505af115801562000223573d6000803e3d6000fd5b5050505060008051602062002f86833981519152336001866040516200024c9392919062000a8c565b60405180910390a150505050565b600054604051630bb7c8fd60e31b815283916001600160a01b031690635dbe47e8906200028c90849060040162000a2f565b60206040518083038186803b158015620002a557600080fd5b505afa158015620002ba573d6000803e3d6000fd5b505050506040513d601f19601f82011682018060405250810190620002e091906200084b565b620002ff5760405162461bcd60e51b8152600401620001b89062000b2f565b604051630e5aab8b60e21b81526001600160a01b0384169063396aae2c906200032f903390869060040162000a3f565b600060405180830381600087803b1580156200034a57600080fd5b505af11580156200035f573d6000803e3d6000fd5b5050505060008051602062002f8683398151915233600185604051620003889392919062000a8c565b60405180910390a1505050565b60006001600160a01b0316600182604051620003b2919062000a1a565b908152604051908190036020019020546001600160a01b031614620003eb5760405162461bcd60e51b8152600401620001b89062000add565b600081604051620003fc9062000744565b62000408919062000aca565b604051809103906000f08015801562000425573d6000803e3d6000fd5b50600054604051630a3b0a4f60e01b81529192506001600160a01b031690630a3b0a4f906200045990849060040162000a2f565b600060405180830381600087803b1580156200047457600080fd5b505af115801562000489573d6000803e3d6000fd5b5050505080600183604051620004a0919062000a1a565b90815260405190819003602001812080546001600160a01b03939093166001600160a01b03199093169290921790915560008051602062002f8683398151915290620004f3903390600090859062000a8c565b60405180910390a15050565b600060018260405162000513919062000a1a565b908152604051908190036020019020546001600160a01b031692915050565b600054604051631484968760e11b81526001600160a01b03909116906329092d0e906200056490849060040162000a2f565b600060405180830381600087803b1580156200057f57600080fd5b505af115801562000594573d6000803e3d6000fd5b505050506001816001600160a01b03166306fdde036040518163ffffffff1660e01b815260040160006040518083038186803b158015620005d457600080fd5b505afa158015620005e9573d6000803e3d6000fd5b505050506040513d6000823e601f3d908101601f1916820160405262000613919081019062000959565b60405162000622919062000a1a565b90815260405190819003602001812080546001600160a01b031916905560008051602062002f868339815191529062000662903390600290859062000a8c565b60405180910390a150565b600054604051630bb7c8fd60e31b815284916001600160a01b031690635dbe47e8906200069f90849060040162000a2f565b60206040518083038186803b158015620006b857600080fd5b505afa158015620006cd573d6000803e3d6000fd5b505050506040513d601f19601f82011682018060405250810190620006f391906200084b565b620007125760405162461bcd60e51b8152600401620001b89062000b2f565b60405163345ba2a360e01b81526001600160a01b0385169063345ba2a390620001f39033908790879060040162000a5e565b6122c28062000cc483390190565b600062000769620007638462000b8a565b62000b6b565b9050828152602081018484840111156200078257600080fd5b6200078f84828562000bf0565b509392505050565b6000620007a8620007638462000b8a565b905082815260208101848484011115620007c157600080fd5b6200078f84828562000bfc565b8051620007db8162000ca1565b92915050565b8035620007db8162000cb1565b600082601f8301126200080057600080fd5b81356200081284826020860162000752565b949350505050565b600082601f8301126200082c57600080fd5b81516200081284826020860162000797565b8035620007db8162000cbc565b6000602082840312156200085e57600080fd5b6000620008128484620007ce565b6000602082840312156200087f57600080fd5b6000620008128484620007e1565b60008060408385031215620008a157600080fd5b6000620008af8585620007e1565b9250506020620008c285828601620007e1565b9150509250929050565b600080600060608486031215620008e257600080fd5b6000620008f08686620007e1565b93505060206200090386828701620007e1565b925050604062000916868287016200083e565b9150509250925092565b6000602082840312156200093357600080fd5b813567ffffffffffffffff8111156200094b57600080fd5b6200081284828501620007ee565b6000602082840312156200096c57600080fd5b815167ffffffffffffffff8111156200098457600080fd5b62000812848285016200081a565b6200099d8162000bb8565b82525050565b6200099d8162000bca565b6200099d8162000be3565b6000620009c4825190565b808452602084019350620009dd81856020860162000bfc565b601f01601f19169290920192915050565b6000620009f9825190565b62000a0981856020860162000bfc565b9290920192915050565b806200099d565b600062000a288284620009ee565b9392505050565b60208101620007db828462000992565b6040810162000a4f828562000992565b62000a286020830184620009a3565b6060810162000a6e828662000992565b62000a7d6020830185620009a3565b62000812604083018462000a13565b6060810162000a9c828662000992565b62000aab6020830185620009ae565b620008126040830184620009a3565b60208101620007db8284620009a3565b6020808252810162000a288184620009b9565b60208082528101620007db81602d81527f5265636970652073706163652077697468206e616d65206d757374206e6f742060208201526c185b1c9958591e48195e1a5cdd609a1b604082015260600190565b60208082528101620007db81601e81527f4d75737420626520616e20616374697665207265636970652073706163650000602082015260400190565b600062000b7760405190565b905062000b85828262000c2f565b919050565b600067ffffffffffffffff82111562000ba75762000ba762000c75565b601f19601f83011660200192915050565b60006001600160a01b038216620007db565b6000620007db8262000bb8565b8062000b858162000c8b565b6000620007db8262000bd7565b82818337506000910152565b60005b8381101562000c1957818101518382015260200162000bff565b8381111562000c29576000848401525b50505050565b601f19601f830116810181811067ffffffffffffffff8211171562000c585762000c5862000c75565b6040525050565b634e487b7160e01b600052602160045260246000fd5b634e487b7160e01b600052604160045260246000fd5b6003811062000c9e5762000c9e62000c5f565b50565b8015155b811462000c9e57600080fd5b62000ca58162000bca565b8062000ca556fe60806040523480156200001157600080fd5b50604051620022c2380380620022c28339810160408190526200003491620001c2565b8051620000499060009060208401906200009d565b5060405162000058906200012c565b604051809103906000f08015801562000075573d6000803e3d6000fd5b50600180546001600160a01b0319166001600160a01b03929092169190911790555062000305565b828054620000ab9062000279565b90600052602060002090601f016020900481019282620000cf57600085556200011a565b82601f10620000ea57805160ff19168380011785556200011a565b828001600101855582156200011a579182015b828111156200011a578251825591602001919060010190620000fd565b50620001289291506200013a565b5090565b6108f280620019d083390190565b5b808211156200012857600081556001016200013b565b600062000168620001628462000219565b620001fa565b9050828152602081018484840111156200018157600080fd5b6200018e84828562000246565b509392505050565b600082601f830112620001a857600080fd5b8151620001ba84826020860162000151565b949350505050565b600060208284031215620001d557600080fd5b81516001600160401b03811115620001ec57600080fd5b620001ba8482850162000196565b60006200020660405190565b9050620002148282620002aa565b919050565b60006001600160401b03821115620002355762000235620002ef565b601f19601f83011660200192915050565b60005b838110156200026357818101518382015260200162000249565b8381111562000273576000848401525b50505050565b6002810460018216806200028e57607f821691505b60208210811415620002a457620002a4620002d9565b50919050565b601f19601f83011681018181106001600160401b0382111715620002d257620002d2620002ef565b6040525050565b634e487b7160e01b600052602260045260246000fd5b634e487b7160e01b600052604160045260246000fd5b6116bb80620003156000396000f3fe608060405234801561001057600080fd5b506004361061007d5760003560e01c80633bc5de301161005b5780633bc5de30146100c85780635f54ca34146100dd5780638f70b921146100f2578063c943b70d1461010557600080fd5b806306fdde0314610082578063345ba2a3146100a0578063396aae2c146100b5575b600080fd5b61008a610125565b6040516100979190611401565b60405180910390f35b6100b36100ae366004610e89565b6101b3565b005b6100b36100c3366004610e4f565b61036c565b6100d0610429565b60405161009791906114a4565b6100e5610554565b60405161009791906113e2565b6100b3610100366004610e89565b610741565b610118610113366004610f5c565b610832565b6040516100979190611493565b600080546101329061157b565b80601f016020809104026020016040519081016040528092919081815260200182805461015e9061157b565b80156101ab5780601f10610180576101008083540402835291602001916101ab565b820191906000526020600020905b81548152906001019060200180831161018e57829003601f168201915b505050505081565b600154604051630bb7c8fd60e31b81526001600160a01b0390911690635dbe47e8906101e39085906004016113ac565b60206040518083038186803b1580156101fb57600080fd5b505afa15801561020f573d6000803e3d6000fd5b505050506040513d601f19601f820116820180604052508101906102339190610f3e565b6102585760405162461bcd60e51b815260040161024f90611412565b60405180910390fd5b816001600160a01b03166377c267eb6040518163ffffffff1660e01b815260040160206040518083038186803b15801561029157600080fd5b505afa1580156102a5573d6000803e3d6000fd5b505050506040513d601f19601f820116820180604052508101906102c99190610fe2565b8111156102e85760405162461bcd60e51b815260040161024f90611432565b6001600160a01b038216600081815260026020818152604080842081518083018352600180830180548387019081528a84529890975294909352825190559351909255915190917f283b6591440acba4e891d10a51ccf8c4f2ad94af546f819d19accc213858d4fd9161035e91879187906113ba565b60405180910390a150505050565b6001600160a01b0380821660009081526002602052604080822082815560019081019290925590549051631484968760e11b81529116906329092d0e906103b79084906004016113ac565b600060405180830381600087803b1580156103d157600080fd5b505af11580156103e5573d6000803e3d6000fd5b505050507f283b6591440acba4e891d10a51ccf8c4f2ad94af546f819d19accc213858d4fd8260028360405161041d939291906113ba565b60405180910390a15050565b60408051808201909152606080825260208201526040518060400160405280600080546104559061157b565b80601f01602080910402602001604051908101604052809291908181526020018280546104819061157b565b80156104ce5780601f106104a3576101008083540402835291602001916104ce565b820191906000526020600020905b8154815290600101906020018083116104b157829003601f168201915b50505050508152602001306001600160a01b0316635f54ca346040518163ffffffff1660e01b815260040160006040518083038186803b15801561051157600080fd5b505afa158015610525573d6000803e3d6000fd5b505050506040513d6000823e601f3d908101601f1916820160405261054d9190810190610f0a565b9052919050565b60606000600160009054906101000a90046001600160a01b03166001600160a01b031663955c98676040518163ffffffff1660e01b815260040160006040518083038186803b1580156105a657600080fd5b505afa1580156105ba573d6000803e3d6000fd5b505050506040513d6000823e601f3d908101601f191682016040526105e29190810190610ed6565b9050600081516001600160401b0381111561060d57634e487b7160e01b600052604160045260246000fd5b60405190808252806020026020018201604052801561064657816020015b6106336108f8565b81526020019060019003908161062b5790505b50905060005b825181101561073a57306001600160a01b031663c943b70d84838151811061068457634e487b7160e01b600052603260045260246000fd5b60200260200101516040518263ffffffff1660e01b81526004016106a891906113f3565b60006040518083038186803b1580156106c057600080fd5b505afa1580156106d4573d6000803e3d6000fd5b505050506040513d6000823e601f3d908101601f191682016040526106fc9190810190610f7a565b82828151811061071c57634e487b7160e01b600052603260045260246000fd5b60200260200101819052508080610732906115d4565b91505061064c565b5092915050565b600081116107615760405162461bcd60e51b815260040161024f90611422565b60408051808201825260008152602081018390526001549151630a3b0a4f60e01b815290916001600160a01b031690630a3b0a4f906107a49086906004016113ac565b600060405180830381600087803b1580156107be57600080fd5b505af11580156107d2573d6000803e3d6000fd5b5050506001600160a01b03841660009081526002602090815260408083208551815591850151600190920191909155517f283b6591440acba4e891d10a51ccf8c4f2ad94af546f819d19accc213858d4fd925061035e91879187906113ba565b61083a6108f8565b6040518060400160405280836001600160a01b0316633bc5de306040518163ffffffff1660e01b815260040160006040518083038186803b15801561087e57600080fd5b505afa158015610892573d6000803e3d6000fd5b505050506040513d6000823e601f3d908101601f191682016040526108ba9190810190610fae565b81526001600160a01b039093166000908152600260209081526040918290208251808401909352805483526001015482820152909301929092525090565b60405180604001604052806109476040518060a0016040528060006001600160a01b0316815260200160006001600160a01b031681526020016060815260200160608152602001606081525090565b8152602001610969604051806040016040528060008152602001600081525090565b905290565b600061098161097c846114d1565b6114b5565b905080838252602082019050828560208602820111156109a057600080fd5b60005b858110156109cc57816109b68882610b76565b84525060209283019291909101906001016109a3565b5050509392505050565b60006109e461097c846114d1565b90508083825260208201905082856020860282011115610a0357600080fd5b60005b858110156109cc5781516001600160401b03811115610a2457600080fd5b808601610a318982610c2e565b855250506020928301929190910190600101610a06565b6000610a5661097c846114d1565b90508083825260208201905082856020860282011115610a7557600080fd5b60005b858110156109cc5781516001600160401b03811115610a9657600080fd5b808601610aa38982610c4f565b855250506020928301929190910190600101610a78565b6000610ac861097c846114d1565b90508083825260208201905082856020860282011115610ae757600080fd5b60005b858110156109cc5781516001600160401b03811115610b0857600080fd5b808601610b158982610cad565b855250506020928301929190910190600101610aea565b6000610b3a61097c846114f4565b905082815260208101848484011115610b5257600080fd5b610b5d84828561154f565b509392505050565b8035610b708161165a565b92915050565b8051610b708161165a565b600082601f830112610b9257600080fd5b8151610ba284826020860161096e565b949350505050565b600082601f830112610bbb57600080fd5b8151610ba28482602086016109d6565b600082601f830112610bdc57600080fd5b8151610ba2848260208601610a48565b600082601f830112610bfd57600080fd5b8151610ba2848260208601610aba565b8051610b708161166e565b8035610b7081611676565b8051610b7081611676565b600082601f830112610c3f57600080fd5b8151610ba2848260208601610b2c565b600060608284031215610c6157600080fd5b610c6b60406114b5565b82519091506001600160401b03811115610c8457600080fd5b610c9084828501610d36565b8252506020610ca184848301610dfe565b60208301525092915050565b600060608284031215610cbf57600080fd5b610cc960606114b5565b82519091506001600160401b03811115610ce257600080fd5b610cee84828501610c2e565b82525060208201516001600160401b03811115610d0a57600080fd5b610d1684828501610c2e565b6020830152506040610d2a84828501610e44565b60408301525092915050565b600060a08284031215610d4857600080fd5b610d5260a06114b5565b90506000610d608484610c23565b8252506020610d7184848301610b76565b60208301525060408201516001600160401b03811115610d9057600080fd5b610d9c84828501610c2e565b60408301525060608201516001600160401b03811115610dbb57600080fd5b610dc784828501610bec565b60608301525060808201516001600160401b03811115610de657600080fd5b610df284828501610baa565b60808301525092915050565b600060408284031215610e1057600080fd5b610e1a60406114b5565b90506000610e288484610e44565b8252506020610ca184848301610e44565b8035610b708161167f565b8051610b708161167f565b60008060408385031215610e6257600080fd5b6000610e6e8585610b65565b9250506020610e7f85828601610c18565b9150509250929050565b600080600060608486031215610e9e57600080fd5b6000610eaa8686610b65565b9350506020610ebb86828701610c18565b9250506040610ecc86828701610e39565b9150509250925092565b600060208284031215610ee857600080fd5b81516001600160401b03811115610efe57600080fd5b610ba284828501610b81565b600060208284031215610f1c57600080fd5b81516001600160401b03811115610f3257600080fd5b610ba284828501610bcb565b600060208284031215610f5057600080fd5b6000610ba28484610c0d565b600060208284031215610f6e57600080fd5b6000610ba28484610c18565b600060208284031215610f8c57600080fd5b81516001600160401b03811115610fa257600080fd5b610ba284828501610c4f565b600060208284031215610fc057600080fd5b81516001600160401b03811115610fd657600080fd5b610ba284828501610d36565b600060208284031215610ff457600080fd5b6000610ba28484610e44565b600061100c83836111bd565b9392505050565b600061100c838361125a565b600061100c8383611287565b6110348161151e565b82525050565b6000611044825190565b8084526020840193508360208202850161105e8560200190565b8060005b85811015611093578484038952815161107b8582611000565b94506020830160209a909a0199925050600101611062565b5091979650505050505050565b60006110aa825190565b808452602084019350836020820285016110c48560200190565b8060005b8581101561109357848403895281516110e18582611013565b94506020830160209a909a01999250506001016110c8565b6000611103825190565b8084526020840193508360208202850161111d8560200190565b8060005b85811015611093578484038952815161113a8582611013565b94506020830160209a909a0199925050600101611121565b600061115c825190565b808452602084019350836020820285016111768560200190565b8060005b858110156110935784840389528151611193858261101f565b94506020830160209a909a019992505060010161117a565b6110348161152f565b61103481611544565b60006111c7825190565b8084526020840193506111de81856020860161154f565b601f01601f19169290920192915050565b601e81526000602082017f526563697065206d75737420626520616c726561647920737461727465640000815291505b5060200190565b601e81526000602082017f5363616c652070657263656e74616765206d757374206e6f74206265203000008152915061121f565b805160608084526000919084019061127282826112ce565b9150506020830151610b5d602086018261137c565b805160608084526000919084019061129f82826111bd565b915050602083015184820360208601526112b982826111bd565b9150506040830151610b5d60408601826113a6565b805160009060a08401906112e285826111ab565b5060208301516112f5602086018261102b565b506040830151848203604086015261130d82826111bd565b915050606083015184820360608601526113278282611152565b91505060808301518482036080860152611341828261103a565b95945050505050565b805160408084526000919084019061136282826111bd565b9150506020830151848203602086015261134182826110a0565b8051604083019061138d84826113a6565b5060208201516113a060208501826113a6565b50505050565b80611034565b60208101610b70828461102b565b606081016113c8828661102b565b6113d560208301856111b4565b610ba260408301846111ab565b6020808252810161100c81846110f9565b60208101610b7082846111ab565b6020808252810161100c81846111bd565b60208082528101610b70816111ef565b60208082528101610b7081611226565b60208082528101610b7081603f81527f5374657020696e646578206d757374206265206c657373207468616e206f722060208201527f657175616c207468616e20746865206e756d626572206f662073746570732e00604082015260600190565b6020808252810161100c818461125a565b6020808252810161100c818461134a565b60006114c060405190565b90506114cc82826115a8565b919050565b60006001600160401b038211156114ea576114ea611631565b5060209081020190565b60006001600160401b0382111561150d5761150d611631565b601f19601f83011660200192915050565b60006001600160a01b038216610b70565b6000610b708261151e565b806114cc81611647565b6000610b708261153a565b60005b8381101561156a578181015183820152602001611552565b838111156113a05750506000910152565b60028104600182168061158f57607f821691505b602082108114156115a2576115a261161b565b50919050565b601f19601f83011681018181106001600160401b03821117156115cd576115cd611631565b6040525050565b60006000198214156115e8576115e86115ef565b5060010190565b634e487b7160e01b600052601160045260246000fd5b634e487b7160e01b600052602160045260246000fd5b634e487b7160e01b600052602260045260246000fd5b634e487b7160e01b600052604160045260246000fd5b6003811061165757611657611605565b50565b6116638161151e565b811461165757600080fd5b801515611663565b6116638161152f565b8061166356fea2646970667358221220222b70da6e70835ecc35b2e8783f9d19ca8fc4aaa555b0bfc9ee55cd832a5e9864736f6c63430008040033608060405234801561001057600080fd5b506108d2806100206000396000f3fe608060405234801561001057600080fd5b50600436106100625760003560e01c80630a3b0a4f1461006757806322063ef91461007c57806329092d0e1461008f5780633e5933fe146100a25780635dbe47e8146100b5578063955c9867146100f6575b600080fd5b61007a61007536600461062d565b61010b565b005b61007a61008a36600461064b565b6101d2565b61007a61009d36600461062d565b61027a565b61007a6100b036600461064b565b6102e4565b6100e06100c336600461062d565b6001600160a01b0316600090815260208190526040902054151590565b6040516100ed919061071a565b60405180910390f35b6100fe610388565b6040516100ed9190610702565b6001600160a01b0381166000908152602081905260409020541561014a5760405162461bcd60e51b815260040161014190610763565b60405180910390fd5b60025460009061015b9060016107e8565b6001600160a01b03909216600081815260208181526040808320869055948252600190819052938120805460ff19168517905560028054948501815590527f405787fa12a823e0f2b7631cc41b3ba8828b3321ca811111fa75cd3aa3bb5ace90920180546001600160a01b03191690921790915550565b60005b815181101561027657306001600160a01b0316630a3b0a4f83838151811061020d57634e487b7160e01b600052603260045260246000fd5b60200260200101516040518263ffffffff1660e01b815260040161023191906106f4565b600060405180830381600087803b15801561024b57600080fd5b505af115801561025f573d6000803e3d6000fd5b50505050808061026e9061083e565b9150506101d5565b5050565b6001600160a01b0381166000908152602081905260409020546102af5760405162461bcd60e51b815260040161014190610728565b6001600160a01b03166000818152602081815260408083208054845260018352908320805460ff191690559282528190529055565b60005b815181101561027657306001600160a01b03166329092d0e83838151811061031f57634e487b7160e01b600052603260045260246000fd5b60200260200101516040518263ffffffff1660e01b815260040161034391906106f4565b600060405180830381600087803b15801561035d57600080fd5b505af1158015610371573d6000803e3d6000fd5b5050505080806103809061083e565b9150506102e7565b606060008060028054905067ffffffffffffffff8111156103b957634e487b7160e01b600052604160045260246000fd5b6040519080825280602002602001820160405280156103e2578160200160208202803683370190505b50905060005b6002548110156104b0576001600061040083836107e8565b815260208101919091526040016000205460ff161561049e576002818154811061043a57634e487b7160e01b600052603260045260246000fd5b9060005260206000200160009054906101000a90046001600160a01b031682848151811061047857634e487b7160e01b600052603260045260246000fd5b6001600160a01b039092166020928302919091019091015261049b8360016107e8565b92505b806104a88161083e565b9150506103e8565b5060008267ffffffffffffffff8111156104da57634e487b7160e01b600052604160045260246000fd5b604051908082528060200260200182016040528015610503578160200160208202803683370190505b50905060005b838110156105835782818151811061053157634e487b7160e01b600052603260045260246000fd5b602002602001015182828151811061055957634e487b7160e01b600052603260045260246000fd5b6001600160a01b03909216602092830291909101909101528061057b8161083e565b915050610509565b509392505050565b600061059e610599846107c4565b6107a8565b905080838252602082019050828560208602820111156105bd57600080fd5b60005b858110156105e957816105d388826105f3565b84525060209283019291909101906001016105c0565b5050509392505050565b80356105fe81610885565b92915050565b600082601f83011261061557600080fd5b813561062584826020860161058b565b949350505050565b60006020828403121561063f57600080fd5b600061062584846105f3565b60006020828403121561065d57600080fd5b813567ffffffffffffffff81111561067457600080fd5b61062584828501610604565b600061068c8383610694565b505060200190565b61069d81610800565b82525050565b60006106ad825190565b80845260209384019383018060005b838110156106e15781516106d08882610680565b9750602083019250506001016106bc565b509495945050505050565b80151561069d565b602081016105fe8284610694565b6020808252810161071381846106a3565b9392505050565b602081016105fe82846106ec565b602080825281016105fe81601d81527f41646472657373206d75737420616c7265616479206265206164646564000000602082015260400190565b602080825281016105fe81602181527f41646472657373206d757374206e6f7420616c726561647920626520616464656020820152601960fa1b604082015260600190565b60006107b360405190565b90506107bf8282610811565b919050565b600067ffffffffffffffff8211156107de576107de61086f565b5060209081020190565b600082198211156107fb576107fb610859565b500190565b60006001600160a01b0382166105fe565b601f19601f830116810181811067ffffffffffffffff821117156108375761083761086f565b6040525050565b600060001982141561085257610852610859565b5060010190565b634e487b7160e01b600052601160045260246000fd5b634e487b7160e01b600052604160045260246000fd5b61088e81610800565b811461089957600080fd5b5056fea2646970667358221220d6809336ceb9d62559e491142c3888ac89a976b19f0eab3517c9f109208576ce64736f6c63430008040033f8200598f2b9bf8a36f2bed7db398cacb9dba4436a8d8648b810f1229bcae353a26469706673582212207a00c2acaaaca3f335a2f86829145385072846aa24a84123de39db5869eab0b964736f6c63430008040033608060405234801561001057600080fd5b506108d2806100206000396000f3fe608060405234801561001057600080fd5b50600436106100625760003560e01c80630a3b0a4f1461006757806322063ef91461007c57806329092d0e1461008f5780633e5933fe146100a25780635dbe47e8146100b5578063955c9867146100f6575b600080fd5b61007a61007536600461062d565b61010b565b005b61007a61008a36600461064b565b6101d2565b61007a61009d36600461062d565b61027a565b61007a6100b036600461064b565b6102e4565b6100e06100c336600461062d565b6001600160a01b0316600090815260208190526040902054151590565b6040516100ed919061071a565b60405180910390f35b6100fe610388565b6040516100ed9190610702565b6001600160a01b0381166000908152602081905260409020541561014a5760405162461bcd60e51b815260040161014190610763565b60405180910390fd5b60025460009061015b9060016107e8565b6001600160a01b03909216600081815260208181526040808320869055948252600190819052938120805460ff19168517905560028054948501815590527f405787fa12a823e0f2b7631cc41b3ba8828b3321ca811111fa75cd3aa3bb5ace90920180546001600160a01b03191690921790915550565b60005b815181101561027657306001600160a01b0316630a3b0a4f83838151811061020d57634e487b7160e01b600052603260045260246000fd5b60200260200101516040518263ffffffff1660e01b815260040161023191906106f4565b600060405180830381600087803b15801561024b57600080fd5b505af115801561025f573d6000803e3d6000fd5b50505050808061026e9061083e565b9150506101d5565b5050565b6001600160a01b0381166000908152602081905260409020546102af5760405162461bcd60e51b815260040161014190610728565b6001600160a01b03166000818152602081815260408083208054845260018352908320805460ff191690559282528190529055565b60005b815181101561027657306001600160a01b03166329092d0e83838151811061031f57634e487b7160e01b600052603260045260246000fd5b60200260200101516040518263ffffffff1660e01b815260040161034391906106f4565b600060405180830381600087803b15801561035d57600080fd5b505af1158015610371573d6000803e3d6000fd5b5050505080806103809061083e565b9150506102e7565b606060008060028054905067ffffffffffffffff8111156103b957634e487b7160e01b600052604160045260246000fd5b6040519080825280602002602001820160405280156103e2578160200160208202803683370190505b50905060005b6002548110156104b0576001600061040083836107e8565b815260208101919091526040016000205460ff161561049e576002818154811061043a57634e487b7160e01b600052603260045260246000fd5b9060005260206000200160009054906101000a90046001600160a01b031682848151811061047857634e487b7160e01b600052603260045260246000fd5b6001600160a01b039092166020928302919091019091015261049b8360016107e8565b92505b806104a88161083e565b9150506103e8565b5060008267ffffffffffffffff8111156104da57634e487b7160e01b600052604160045260246000fd5b604051908082528060200260200182016040528015610503578160200160208202803683370190505b50905060005b838110156105835782818151811061053157634e487b7160e01b600052603260045260246000fd5b602002602001015182828151811061055957634e487b7160e01b600052603260045260246000fd5b6001600160a01b03909216602092830291909101909101528061057b8161083e565b915050610509565b509392505050565b600061059e610599846107c4565b6107a8565b905080838252602082019050828560208602820111156105bd57600080fd5b60005b858110156105e957816105d388826105f3565b84525060209283019291909101906001016105c0565b5050509392505050565b80356105fe81610885565b92915050565b600082601f83011261061557600080fd5b813561062584826020860161058b565b949350505050565b60006020828403121561063f57600080fd5b600061062584846105f3565b60006020828403121561065d57600080fd5b813567ffffffffffffffff81111561067457600080fd5b61062584828501610604565b600061068c8383610694565b505060200190565b61069d81610800565b82525050565b60006106ad825190565b80845260209384019383018060005b838110156106e15781516106d08882610680565b9750602083019250506001016106bc565b509495945050505050565b80151561069d565b602081016105fe8284610694565b6020808252810161071381846106a3565b9392505050565b602081016105fe82846106ec565b602080825281016105fe81601d81527f41646472657373206d75737420616c7265616479206265206164646564000000602082015260400190565b602080825281016105fe81602181527f41646472657373206d757374206e6f7420616c726561647920626520616464656020820152601960fa1b604082015260600190565b60006107b360405190565b90506107bf8282610811565b919050565b600067ffffffffffffffff8211156107de576107de61086f565b5060209081020190565b600082198211156107fb576107fb610859565b500190565b60006001600160a01b0382166105fe565b601f19601f830116810181811067ffffffffffffffff821117156108375761083761086f565b6040525050565b600060001982141561085257610852610859565b5060010190565b634e487b7160e01b600052601160045260246000fd5b634e487b7160e01b600052604160045260246000fd5b61088e81610800565b811461089957600080fd5b5056fea2646970667358221220d6809336ceb9d62559e491142c3888ac89a976b19f0eab3517c9f109208576ce64736f6c63430008040033",
  "linkReferences": {},
  "deployedLinkReferences": {}
}