{
  "_format": "hh-sol-artifact-1",
  "contractName": "ENSDeployer",
  "sourceName": "contracts/ENSDeployer.sol",
  "abi": [
    {
      "inputs": [],
      "stateMutability": "nonpayable",
      "type": "constructor"
    },
    {
      "inputs": [],
      "name": "ADDR_LABEL",
      "outputs": [
        {
          "internalType": "bytes32",
          "name": "",
          "type": "bytes32"
        }
      ],
      "stateMutability": "view",
      "type": "function"
    },
    {
      "inputs": [],
      "name": "RESOLVER_LABEL",
      "outputs": [
        {
          "internalType": "bytes32",
          "name": "",
          "type": "bytes32"
        }
      ],
      "stateMutability": "view",
      "type": "function"
    },
    {
      "inputs": [],
      "name": "REVERSE_REGISTRAR_LABEL",
      "outputs": [
        {
          "internalType": "bytes32",
          "name": "",
          "type": "bytes32"
        }
      ],
      "stateMutability": "view",
      "type": "function"
    },
    {
      "inputs": [],
      "name": "TLD_LABEL",
      "outputs": [
        {
          "internalType": "bytes32",
          "name": "",
          "type": "bytes32"
        }
      ],
      "stateMutability": "view",
      "type": "function"
    },
    {
      "inputs": [],
      "name": "ens",
      "outputs": [
        {
          "internalType": "contract ENSRegistry",
          "name": "",
          "type": "address"
        }
      ],
      "stateMutability": "view",
      "type": "function"
    },
    {
      "inputs": [],
      "name": "fifsRegistrar",
      "outputs": [
        {
          "internalType": "contract FIFSRegistrar",
          "name": "",
          "type": "address"
        }
      ],
      "stateMutability": "view",
      "type": "function"
    },
    {
      "inputs": [
        {
          "internalType": "bytes32",
          "name": "node",
          "type": "bytes32"
        },
        {
          "internalType": "bytes32",
          "name": "label",
          "type": "bytes32"
        }
      ],
      "name": "namehash",
      "outputs": [
        {
          "internalType": "bytes32",
          "name": "",
          "type": "bytes32"
        }
      ],
      "stateMutability": "pure",
      "type": "function"
    },
    {
      "inputs": [],
      "name": "publicResolver",
      "outputs": [
        {
          "internalType": "contract PublicResolver",
          "name": "",
          "type": "address"
        }
      ],
      "stateMutability": "view",
      "type": "function"
    },
    {
      "inputs": [],
      "name": "reverseRegistrar",
      "outputs": [
        {
          "internalType": "contract ReverseRegistrar",
          "name": "",
          "type": "address"
        }
      ],
      "stateMutability": "view",
      "type": "function"
    }
  ],
  "bytecode": "0x60806040523480156200001157600080fd5b5060405162000020906200058c565b604051809103906000f0801580156200003d573d6000803e3d6000fd5b50600080546001600160a01b0319166001600160a01b039290921691821781556040516200006b906200059a565b62000078929190620006b5565b604051809103906000f08015801562000095573d6000803e3d6000fd5b50600380546001600160a01b0319166001600160a01b03929092169190911790556000620000d3816000805160206200576783398151915262000556565b600080546040516306ab592360e01b81529293506001600160a01b0316916306ab59239162000118916000805160206200576783398151915290309060040162000668565b602060405180830381600087803b1580156200013357600080fd5b505af115801562000148573d6000803e3d6000fd5b505050506040513d601f19601f820116820180604052508101906200016e9190620005cc565b50600054600354604051630c4b7b8560e11b81526001600160a01b0392831692631896f70a92620001a89286929091169060040162000642565b600060405180830381600087803b158015620001c357600080fd5b505af1158015620001d8573d6000803e3d6000fd5b505060035460405162d5fa2b60e81b81526001600160a01b03909116925063d5fa2b0091506200020f908490849060040162000642565b600060405180830381600087803b1580156200022a57600080fd5b505af11580156200023f573d6000803e3d6000fd5b5050600080546001600160a01b031692506200026c91506000805160206200574783398151915262000556565b6040516200027a90620005a8565b6200028792919062000696565b604051809103906000f080158015620002a4573d6000803e3d6000fd5b50600180546001600160a01b0319166001600160a01b03928316908117909155600080546040516306ab592360e01b81529316926306ab592392620002ff929160008051602062005747833981519152919060040162000668565b602060405180830381600087803b1580156200031a57600080fd5b505af11580156200032f573d6000803e3d6000fd5b505050506040513d601f19601f82011682018060405250810190620003559190620005cc565b506000546003546040516001600160a01b0392831692909116906200037a90620005b6565b62000387929190620006b5565b604051809103906000f080158015620003a4573d6000803e3d6000fd5b50600280546001600160a01b0319166001600160a01b03928316179055600080546040516306ab592360e01b81529216916306ab5923916200040d917fdec08c9dbbdd0890e300eb5062089b2d4b1c40e3673bbccb5423f7b37dcf9a9c90309060040162000668565b602060405180830381600087803b1580156200042857600080fd5b505af11580156200043d573d6000803e3d6000fd5b505050506040513d601f19601f82011682018060405250810190620004639190620005cc565b50600080546001600160a01b0316906306ab592390620004a4907fdec08c9dbbdd0890e300eb5062089b2d4b1c40e3673bbccb5423f7b37dcf9a9c62000556565b6002546040516001600160e01b031960e085901b168152620004f892917fe5e14487b78f85faa6e1808e89246cf57dd34831548ff2e6097380d98db2504a916001600160a01b039091169060040162000668565b602060405180830381600087803b1580156200051357600080fd5b505af115801562000528573d6000803e3d6000fd5b505050506040513d601f19601f820116820180604052508101906200054e9190620005cc565b5050620006f3565b600082826040516020016200056d92919062000618565b6040516020818303038152906040528051906020012090505b92915050565b610b0d80620009d483390190565b6129a380620014e183390190565b6104218062003e8483390190565b6114a280620042a583390190565b805162000586565b600060208284031215620005df57600080fd5b6000620005ed8484620005c4565b949350505050565b6200060081620006d4565b82525050565b8062000600565b6200060081620006e6565b600062000626828562000606565b60208201915062000638828462000606565b5060200192915050565b6040810162000652828562000606565b620006616020830184620005f5565b9392505050565b6060810162000678828662000606565b62000687602083018562000606565b620005ed6040830184620005f5565b60408101620006a682856200060d565b62000661602083018462000606565b60408101620006c582856200060d565b6200066160208301846200060d565b60006001600160a01b03821662000586565b60006200058682620006d4565b6102d180620007036000396000f3fe608060405234801561001057600080fd5b50600436106100935760003560e01c80638086985311610066578063808698531461012f5780639368678f14610142578063d1131c7214610169578063f825612114610190578063fd3fa181146101a357600080fd5b80631d9273c7146100985780633f15457f146100c15780635ecb2502146100e15780637d70c65914610108575b600080fd5b6100ab6100a63660046101f1565b6101b6565b6040516100b89190610268565b60405180910390f35b6000546100d4906001600160a01b031681565b6040516100b89190610276565b6100ab7f329539a1d23af1810c48a07fe7fc66a3b34fbc8b37e9b3cdb97bb88ceab7e4bf81565b6100ab7fdec08c9dbbdd0890e300eb5062089b2d4b1c40e3673bbccb5423f7b37dcf9a9c81565b6002546100d4906001600160a01b031681565b6100ab7fe5e14487b78f85faa6e1808e89246cf57dd34831548ff2e6097380d98db2504a81565b6100ab7f4f5b812789fc606be1b3b16908db13fc7a9adf7ca72641f84d75b47069d3d7f081565b6003546100d4906001600160a01b031681565b6001546100d4906001600160a01b031681565b600082826040516020016101cb929190610242565b6040516020818303038152906040528051906020012090505b92915050565b80356101e4565b6000806040838503121561020457600080fd5b600061021085856101ea565b9250506020610221858286016101ea565b9150509250929050565b805b82525050565b8061022d565b61022d81610284565b600061024e8285610233565b60208201915061025e8284610233565b5060200192915050565b602081016101e4828461022b565b602081016101e48284610239565b60006101e48260006001600160a01b0382166101e456fea26469706673582212205bd0fb882f14895e71014deb45e151cc67cbede4f6fca62263eac8a55662dc3664736f6c63430008040033608060405234801561001057600080fd5b5060008080526020527fad3228b676f7d3cd4284a5443f17f1962b36e491b30a40b2405849e597ba5fb580546001600160a01b03191633179055610ab4806100596000396000f3fe608060405234801561001057600080fd5b50600436106100b45760003560e01c80635b0fc9c3116100715780635b0fc9c3146101975780635ef2c7f0146101aa578063a22cb465146101bd578063cf408823146101d0578063e985e9c5146101e3578063f79fe5381461022c57600080fd5b80630178b8bf146100b957806302571be3146100fb57806306ab59231461010e57806314ab90381461012e57806316a25cbd146101435780631896f70a14610184575b600080fd5b6100e56100c7366004610815565b6000908152602081905260409020600101546001600160a01b031690565b6040516100f29190610a00565b60405180910390f35b6100e5610109366004610815565b610257565b61012161011c3660046108bb565b610286565b6040516100f29190610a1c565b61014161013c36600461097d565b610354565b005b610177610151366004610815565b600090815260208190526040902060010154600160a01b900467ffffffffffffffff1690565b6040516100f29190610a2a565b61014161019236600461083b565b610420565b6101416101a536600461083b565b6104df565b6101416101b8366004610908565b61057b565b6101416101cb3660046107e5565b61059d565b6101416101de36600461085a565b61060c565b61021f6101f13660046107ab565b6001600160a01b03918216600090815260016020908152604080832093909416825291909152205460ff1690565b6040516100f29190610a0e565b61021f61023a366004610815565b6000908152602081905260409020546001600160a01b0316151590565b6000818152602081905260408120546001600160a01b0316308114156102805750600092915050565b92915050565b60008381526020819052604081205484906001600160a01b0316338114806102d157506001600160a01b038116600090815260016020908152604080832033845290915290205460ff165b6102da57600080fd5b600086866040516020016102ef9291906109da565b6040516020818303038152906040528051906020012090506103118186610627565b85877fce0457fe73731f824cc272376169235128c118b49d344817417c6d108d155e82876040516103429190610a00565b60405180910390a39695505050505050565b60008281526020819052604090205482906001600160a01b03163381148061039f57506001600160a01b038116600090815260016020908152604080832033845290915290205460ff165b6103a857600080fd5b837f1d4f9bbfc9cab89d66e1a1562f2233ccbf1308cb4f63de2ead5787adddb8fa68846040516103d89190610a2a565b60405180910390a25050600091825260208290526040909120600101805467ffffffffffffffff909216600160a01b0267ffffffffffffffff60a01b19909216919091179055565b60008281526020819052604090205482906001600160a01b03163381148061046b57506001600160a01b038116600090815260016020908152604080832033845290915290205460ff165b61047457600080fd5b837f335721b01866dc23fbee8b6b2c7b1e14d6f05c28cd35a2c934239f94095602a0846040516104a49190610a00565b60405180910390a2505060009182526020829052604090912060010180546001600160a01b0319166001600160a01b03909216919091179055565b60008281526020819052604090205482906001600160a01b03163381148061052a57506001600160a01b038116600090815260016020908152604080832033845290915290205460ff165b61053357600080fd5b61053d8484610627565b837fd4735d920b0f87494915f556dd9b54c8f309026070caea5c737245152564d2668460405161056d9190610a00565b60405180910390a250505050565b6000610588868686610286565b9050610595818484610655565b505050505050565b3360008181526001602090815260408083206001600160a01b038716808552925291829020805460ff191685151517905590519091907f17307eab39ab6107e8899845ad3d59bd9653f200f220920489ca2b5937696c3190610600908590610a0e565b60405180910390a35050565b61061684846104df565b610621848383610655565b50505050565b60009182526020829052604090912080546001600160a01b0319166001600160a01b03909216919091179055565b6000838152602081905260409020600101546001600160a01b038381169116146106de576000838152602081905260409081902060010180546001600160a01b0319166001600160a01b0385161790555183907f335721b01866dc23fbee8b6b2c7b1e14d6f05c28cd35a2c934239f94095602a0906106d5908590610a00565b60405180910390a25b60008381526020819052604090206001015467ffffffffffffffff828116600160a01b909204161461077a5760008381526020819052604090819020600101805467ffffffffffffffff60a01b1916600160a01b67ffffffffffffffff8516021790555183907f1d4f9bbfc9cab89d66e1a1562f2233ccbf1308cb4f63de2ead5787adddb8fa6890610771908490610a2a565b60405180910390a25b505050565b803561028081610a49565b803561028081610a60565b803561028081610a68565b803561028081610a6e565b600080604083850312156107be57600080fd5b60006107ca858561077f565b92505060206107db8582860161077f565b9150509250929050565b600080604083850312156107f857600080fd5b6000610804858561077f565b92505060206107db8582860161078a565b60006020828403121561082757600080fd5b60006108338484610795565b949350505050565b6000806040838503121561084e57600080fd5b60006107ca8585610795565b6000806000806080858703121561087057600080fd5b600061087c8787610795565b945050602061088d8782880161077f565b935050604061089e8782880161077f565b92505060606108af878288016107a0565b91505092959194509250565b6000806000606084860312156108d057600080fd5b60006108dc8686610795565b93505060206108ed86828701610795565b92505060406108fe8682870161077f565b9150509250925092565b600080600080600060a0868803121561092057600080fd5b600061092c8888610795565b955050602061093d88828901610795565b945050604061094e8882890161077f565b935050606061095f8882890161077f565b9250506080610970888289016107a0565b9150509295509295909350565b6000806040838503121561099057600080fd5b600061099c8585610795565b92505060206107db858286016107a0565b6109b681610a38565b82525050565b8015156109b6565b806109b6565b67ffffffffffffffff81166109b6565b60006109e682856109c4565b6020820191506109f682846109c4565b5060200192915050565b6020810161028082846109ad565b6020810161028082846109bc565b6020810161028082846109c4565b6020810161028082846109ca565b60006001600160a01b038216610280565b610a5281610a38565b8114610a5d57600080fd5b50565b801515610a52565b80610a52565b67ffffffffffffffff8116610a5256fea2646970667358221220d70fbc386172e43225ac7fb890fd9e1aed918a0fb439f4df6a802d3b08e0c29b64736f6c6343000804003360806040523480156200001157600080fd5b50604051620029a3380380620029a3833981016040819052620000349162000079565b600b80546001600160a01b039384166001600160a01b031991821617909155600c8054929093169116179055620000f1565b80516200007381620000d7565b92915050565b600080604083850312156200008d57600080fd5b60006200009b858562000066565b9250506020620000ae8582860162000066565b9150509250929050565b60006001600160a01b03821662000073565b60006200007382620000b8565b620000e281620000ca565b8114620000ee57600080fd5b50565b6128a280620001016000396000f3fe608060405234801561001057600080fd5b506004361061018e5760003560e01c806377372213116100de578063bc1c58d111610097578063d5fa2b0011610071578063d5fa2b00146103d2578063e59d895d146103e5578063e985e9c5146103f8578063f1cb7e061461043457600080fd5b8063bc1c58d114610376578063c869023314610389578063ce3decdc146103bf57600080fd5b806377372213146102f75780638b95dd711461030a578063a22cb4651461031d578063a8fa568214610330578063ac9650d814610343578063ad5780af1461036357600080fd5b8063304e6ade1161014b57806359d1d43c1161012557806359d1d43c1461029e5780635c98042b146102be578063623195b0146102d1578063691f3431146102e457600080fd5b8063304e6ade146102385780633b3b57de1461024b5780634cbf6ba41461025e57600080fd5b806301ffc9a7146101935780630af179d7146101bc57806310f13a8c146101d1578063124a319c146101e45780632203ab561461020457806329cd62ea14610225575b600080fd5b6101a66101a1366004612328565b610447565b6040516101b391906124ca565b60405180910390f35b6101cf6101ca36600461218d565b610472565b005b6101cf6101df3660046121e2565b61065d565b6101f76101f236600461211a565b61070a565b6040516101b3919061249d565b61021761021236600461205a565b61095a565b6040516101b3929190612600565b6101cf61023336600461208a565b610a75565b6101cf61024636600461218d565b610af5565b6101f761025936600461201d565b610b54565b6101a661026c36600461205a565b600091825260066020908152604080842060048352818520548552825280842092845291905290205461ffff16151590565b6102b16102ac36600461218d565b610b87565b6040516101b39190612521565b6102b16102cc36600461201d565b610c4c565b6101cf6102df366004612267565b610cee565b6102b16102f236600461201d565b610d6f565b6101cf61030536600461218d565b610d8c565b6101cf6103183660046122ce565b610deb565b6101cf61032b366004611fac565b610eb0565b6102b161033e3660046120d7565b610f51565b610356610351366004611fdc565b610f94565b6040516101b391906124b9565b6101cf61037136600461201d565b6110d8565b6102b161038436600461201d565b611139565b6103b161039736600461201d565b600090815260096020526040902080546001909101549091565b6040516101b39291906124e6565b6101cf6103cd36600461218d565b611156565b6101cf6103e036600461203b565b611262565b6101cf6103f336600461214a565b611289565b6101a6610406366004611f72565b6001600160a01b039182166000908152600d6020908152604080832093909416825291909152205460ff1690565b6102b161044236600461205a565b611319565b60006001600160e01b03198216631592ca1b60e31b148061046c575061046c826113c7565b92915050565b8261047c816113ec565b61048557600080fd5b6000806060806000806104d260008a8a8080601f016020809104026020016040519081016040528093929190818152602001838380828437600092019190915250929392505061154b9050565b90505b805151602082015110156105f85761ffff861661053757806040015195506104fc816115ac565b93508360405160200161050f9190612491565b604051602081830303815290604052805190602001209150610530816115cd565b92506105ea565b6000610542826115ac565b9050816040015161ffff168761ffff16141580610566575061056485826115e9565b155b156105e8576105c18b86898d8d8080601f016020809104026020016040519081016040528093929190818152602001838380828437600092019190915250505060208801518c91506105b99082906126d3565b8a5115611607565b8160400151965081602001519550809450848051906020012092506105e5826115cd565b93505b505b6105f381611849565b6104d5565b50825115610652576106528984878b8b8080601f0160208091040260200160405190810160405280939291908181526020018383808284376000920191909152508b925061064a91508290508e6126d3565b885115611607565b505050505050505050565b84610667816113ec565b61067057600080fd5b8282600a60008981526020019081526020016000208787604051610695929190612484565b9081526040519081900360200190206106af929091611ce7565b5084846040516106c0929190612484565b6040518091039020867fd8c9334b1a9c2f9da342a0a2b32629c1a229b6445dad78947f674b44444a755087876040516106fa92919061250f565b60405180910390a3505050505050565b60008281526007602090815260408083206001600160e01b0319851684529091528120546001600160a01b0316801561074457905061046c565b600061074f85610b54565b90506001600160a01b03811661076a5760009250505061046c565b600080826001600160a01b03166301ffc9a760e01b60405160240161078f9190612501565b60408051601f198184030181529181526020820180516001600160e01b03166301ffc9a760e01b179052516107c49190612491565b600060405180830381855afa9150503d80600081146107ff576040519150601f19603f3d011682016040523d82523d6000602084013e610804565b606091505b5091509150811580610817575060208151105b8061084f575080601f8151811061083e57634e487b7160e01b600052603260045260246000fd5b01602001516001600160f81b031916155b1561086157600094505050505061046c565b826001600160a01b03168660405160240161087c9190612501565b60408051601f198184030181529181526020820180516001600160e01b03166301ffc9a760e01b179052516108b19190612491565b600060405180830381855afa9150503d80600081146108ec576040519150601f19603f3d011682016040523d82523d6000602084013e6108f1565b606091505b509092509050811580610905575060208151105b8061093d575080601f8151811061092c57634e487b7160e01b600052603260045260246000fd5b01602001516001600160f81b031916155b1561094f57600094505050505061046c565b509095945050505050565b600082815260208190526040812060609060015b848111610a55578085161580159061099e57506000818152602083905260408120805461099a90612763565b9050115b15610a4d57808260008381526020019081526020016000208080546109c290612763565b80601f01602080910402602001604051908101604052809291908181526020018280546109ee90612763565b8015610a3b5780601f10610a1057610100808354040283529160200191610a3b565b820191906000526020600020905b815481529060010190602001808311610a1e57829003601f168201915b50505050509050935093505050610a6e565b60011b61096e565b5060006040518060200160405280600081525092509250505b9250929050565b82610a7f816113ec565b610a8857600080fd5b6040805180820182528481526020808201858152600088815260099092529083902091518255516001909101555184907f1d6f5e03d3f63eb58751986629a5439baee5079ff04f345becb66e23eb154e4690610ae790869086906124e6565b60405180910390a250505050565b82610aff816113ec565b610b0857600080fd5b6000848152600260205260409020610b21908484611ce7565b50837fe379c1624ed7e714cc0937528a32359d69d5281337765313dba4e081b72d75788484604051610ae792919061250f565b600080610b6283603c611319565b9050805160001415610b775750600092915050565b610b8081611931565b9392505050565b6060600a60008581526020019081526020016000208383604051610bac929190612484565b90815260200160405180910390208054610bc590612763565b80601f0160208091040260200160405190810160405280929190818152602001828054610bf190612763565b8015610c3e5780601f10610c1357610100808354040283529160200191610c3e565b820191906000526020600020905b815481529060010190602001808311610c2157829003601f168201915b505050505090509392505050565b6000818152600360205260409020805460609190610c6990612763565b80601f0160208091040260200160405190810160405280929190818152602001828054610c9590612763565b8015610ce25780601f10610cb757610100808354040283529160200191610ce2565b820191906000526020600020905b815481529060010190602001808311610cc557829003601f168201915b50505050509050919050565b83610cf8816113ec565b610d0157600080fd5b83610d0d6001826126d3565b1615610d1857600080fd5b6000858152602081815260408083208784529091529020610d3a908484611ce7565b50604051849086907faa121bbeef5f32f5961a2a28966e769023910fc9479059ee3495d4c1a696efe390600090a35050505050565b6000818152600860205260409020805460609190610c6990612763565b82610d96816113ec565b610d9f57600080fd5b6000848152600860205260409020610db8908484611ce7565b50837fb7d29e911041e8d9b843369e890bcb72c9388692ba48b65ac54e7214c4c348f78484604051610ae792919061250f565b82610df5816113ec565b610dfe57600080fd5b837f65412581168e88a1e60c6459d7f44ae83ad0832e670826c05a4e2476b57af7528484604051610e30929190612600565b60405180910390a2603c831415610e8257837f52d7d861f09ab3d26239d492e8968629f95e9e318cf0b73bfddc441522a15fd2610e6c84611931565b604051610e7991906124ab565b60405180910390a25b600084815260016020908152604080832086845282529091208351610ea992850190611d6b565b5050505050565b336001600160a01b0383161415610ee25760405162461bcd60e51b8152600401610ed9906125b3565b60405180910390fd5b336000818152600d602090815260408083206001600160a01b038716808552925291829020805460ff191685151517905590519091907f17307eab39ab6107e8899845ad3d59bd9653f200f220920489ca2b5937696c3190610f459085906124ca565b60405180910390a35050565b6000838152600560209081526040808320600483528184205484528252808320858452825280832061ffff851684529091529020805460609190610bc590612763565b6060816001600160401b03811115610fbc57634e487b7160e01b600052604160045260246000fd5b604051908082528060200260200182016040528015610fef57816020015b6060815260200190600190039081610fda5790505b50905060005b828110156110d1576000803086868581811061102157634e487b7160e01b600052603260045260246000fd5b90506020028101906110339190612620565b604051611041929190612484565b600060405180830381855af49150503d806000811461107c576040519150601f19603f3d011682016040523d82523d6000602084013e611081565b606091505b50915091508161109057600080fd5b808484815181106110b157634e487b7160e01b600052603260045260246000fd5b6020026020010181905250505080806110c9906127de565b915050610ff5565b5092915050565b806110e2816113ec565b6110eb57600080fd5b6000828152600460205260408120805491611105836127de565b909155505060405182907fb757169b8492ca2f1c6619d9d76ce22803035c3b1d5f6930dffe7b127c1a198390600090a25050565b6000818152600260205260409020805460609190610c6990612763565b82611160816113ec565b61116957600080fd5b6000848152600360205260408120805461118290612763565b80601f01602080910402602001604051908101604052809291908181526020018280546111ae90612763565b80156111fb5780601f106111d0576101008083540402835291602001916111fb565b820191906000526020600020905b8154815290600101906020018083116111de57829003601f168201915b505050600088815260036020526040902092935061121e92915086905085611ce7565b50847f8f15ed4b723ef428f250961da8315675b507046737e19319fc1a4d81bfe87f8582868660405161125393929190612532565b60405180910390a25050505050565b8161126c816113ec565b61127557600080fd5b61128483603c61031885611950565b505050565b82611293816113ec565b61129c57600080fd5b60008481526007602090815260408083206001600160e01b0319871680855292529182902080546001600160a01b0319166001600160a01b038616179055905185907f7c69f06bea0bdef565b709e93a147836b0063ba2dd89f02d0b7e8d931e6a6daa9061130b90869061249d565b60405180910390a350505050565b6000828152600160209081526040808320848452909152902080546060919061134190612763565b80601f016020809104026020016040519081016040528092919081815260200182805461136d90612763565b80156113ba5780601f1061138f576101008083540402835291602001916113ba565b820191906000526020600020905b81548152906001019060200180831161139d57829003601f168201915b5050505050905092915050565b60006001600160e01b03198216631674750f60e21b148061046c575061046c82611980565b600b546040516302571be360e01b815260009182916001600160a01b03909116906302571be3906114219086906004016124d8565b60206040518083038186803b15801561143957600080fd5b505afa15801561144d573d6000803e3d6000fd5b505050506040513d601f19601f820116820180604052508101906114719190611f54565b600c549091506001600160a01b038083169116141561150d57600c546040516331a9108f60e11b81526001600160a01b0390911690636352211e906114ba9086906004016124d8565b60206040518083038186803b1580156114d257600080fd5b505afa1580156114e6573d6000803e3d6000fd5b505050506040513d601f19601f8201168201806040525081019061150a9190611f54565b90505b6001600160a01b038116331480610b8057506001600160a01b0381166000908152600d6020908152604080832033845290915290205460ff16610b80565b6115996040518060e001604052806060815260200160008152602001600061ffff168152602001600061ffff168152602001600063ffffffff16815260200160008152602001600081525090565b82815260c0810182905261046c81611849565b6020810151815160609161046c916115c490826119a5565b84519190611a12565b60a081015160c082015160609161046c916115c49082906126d3565b600081518351148015610b805750610b808360008460008751611a96565b6000878152600460209081526040822054885191890191909120909161162e878787611a12565b905083156117375760008a81526005602090815260408083208684528252808320858452825280832061ffff8c1684529091529020805461166e90612763565b1590506116c25760008a815260066020908152604080832086845282528083208584529091528120805461ffff16916116a683612748565b91906101000a81548161ffff021916908361ffff160217905550505b60008a81526005602090815260408083208684528252808320858452825280832061ffff8c16845290915281206116f891611ddf565b897f03528ed0c2a3ebc993b12ce3c16bb382f9c7d88ef7d8a1bf290eaf35955a12078a8a60405161172a929190612561565b60405180910390a261183d565b60008a81526005602090815260408083208684528252808320858452825280832061ffff8c1684529091529020805461176f90612763565b151590506117c45760008a815260066020908152604080832086845282528083208584529091528120805461ffff16916117a8836127bc565b91906101000a81548161ffff021916908361ffff160217905550505b60008a81526005602090815260408083208684528252808320858452825280832061ffff8c168452825290912082516117ff92840190611d6b565b50897f52a608b3303a48862d07a73d82fa221318c0027fbbcfb1b2329bface3f19ff2b8a8a8460405161183493929190612581565b60405180910390a25b50505050505050505050565b60c081015160208201819052815151116118605750565b6000611874826000015183602001516119a5565b826020015161188391906126bb565b82519091506118929082611ab9565b61ffff1660408301526118a66002826126bb565b82519091506118b59082611ab9565b61ffff1660608301526118c96002826126bb565b82519091506118d89082611ae1565b63ffffffff1660808301526118ee6004826126bb565b82519091506000906119009083611ab9565b61ffff1690506119116002836126bb565b60a08401819052915061192481836126bb565b60c0909301929092525050565b6000815160141461194157600080fd5b5060200151600160601b900490565b604080516014808252818301909252606091602082018180368337505050600160601b9290920260208301525090565b60006001600160e01b0319821663c869023360e01b148061046c575061046c82611b0b565b6000815b835181106119c757634e487b7160e01b600052600160045260246000fd5b60006119d38583611b30565b60ff1690506119e38160016126bb565b6119ed90836126bb565b9150806119fa5750611a00565b506119a9565b611a0a83826126d3565b949350505050565b8251606090611a2183856126bb565b1115611a2c57600080fd5b6000826001600160401b03811115611a5457634e487b7160e01b600052604160045260246000fd5b6040519080825280601f01601f191660200182016040528015611a7e576020820181803683370190505b5090506020808201908686010161094f828287611b62565b6000611aa3848484611bb8565b611aae878785611bb8565b149695505050505050565b8151600090611ac98360026126bb565b1115611ad457600080fd5b50016002015161ffff1690565b8151600090611af18360046126bb565b1115611afc57600080fd5b50016004015163ffffffff1690565b60006001600160e01b0319821663691f343160e01b148061046c575061046c82611bdc565b6000828281518110611b5257634e487b7160e01b600052603260045260246000fd5b016020015160f81c905092915050565b60208110611b9a5781518352611b796020846126bb565b9250611b866020836126bb565b9150611b936020826126d3565b9050611b62565b905182516020929092036101000a6000190180199091169116179052565b8251600090611bc783856126bb565b1115611bd257600080fd5b5091016020012090565b60006001600160e01b031982166304928c6760e21b148061046c575061046c8260006001600160e01b0319821663547d2b4160e11b1480611c2d57506001600160e01b03198216635c98042b60e01b145b8061046c575061046c8260006001600160e01b0319821663bc1c58d160e01b148061046c575061046c8260006001600160e01b03198216631d9dabef60e11b1480611c8857506001600160e01b031982166378e5bf0360e11b145b8061046c575061046c8260006001600160e01b03198216631101d5ab60e11b148061046c575061046c8260006001600160e01b03198216631592ca1b60e31b148061046c57506301ffc9a760e01b6001600160e01b031983161461046c565b828054611cf390612763565b90600052602060002090601f016020900481019282611d155760008555611d5b565b82601f10611d2e5782800160ff19823516178555611d5b565b82800160010185558215611d5b579182015b82811115611d5b578235825591602001919060010190611d40565b50611d67929150611e1c565b5090565b828054611d7790612763565b90600052602060002090601f016020900481019282611d995760008555611d5b565b82601f10611db257805160ff1916838001178555611d5b565b82800160010185558215611d5b579182015b82811115611d5b578251825591602001919060010190611dc4565b508054611deb90612763565b6000825580601f10611dfb575050565b601f016020900490600052602060002090810190611e199190611e1c565b50565b5b80821115611d675760008155600101611e1d565b6000611e44611e3f84612691565b612675565b905082815260208101848484011115611e5c57600080fd5b611e6784828561270c565b509392505050565b803561046c81612830565b805161046c81612830565b60008083601f840112611e9757600080fd5b5081356001600160401b03811115611eae57600080fd5b602083019150836020820283011115610a6e57600080fd5b803561046c81612844565b803561046c8161284c565b803561046c81612852565b60008083601f840112611ef957600080fd5b5081356001600160401b03811115611f1057600080fd5b602083019150836001820283011115610a6e57600080fd5b600082601f830112611f3957600080fd5b8135611a0a848260208601611e31565b803561046c81612862565b600060208284031215611f6657600080fd5b6000611a0a8484611e7a565b60008060408385031215611f8557600080fd5b6000611f918585611e6f565b9250506020611fa285828601611e6f565b9150509250929050565b60008060408385031215611fbf57600080fd5b6000611fcb8585611e6f565b9250506020611fa285828601611ec6565b60008060208385031215611fef57600080fd5b82356001600160401b0381111561200557600080fd5b61201185828601611e85565b92509250509250929050565b60006020828403121561202f57600080fd5b6000611a0a8484611ed1565b6000806040838503121561204e57600080fd5b6000611f918585611ed1565b6000806040838503121561206d57600080fd5b60006120798585611ed1565b9250506020611fa285828601611ed1565b60008060006060848603121561209f57600080fd5b60006120ab8686611ed1565b93505060206120bc86828701611ed1565b92505060406120cd86828701611ed1565b9150509250925092565b6000806000606084860312156120ec57600080fd5b60006120f88686611ed1565b935050602061210986828701611ed1565b92505060406120cd86828701611f49565b6000806040838503121561212d57600080fd5b60006121398585611ed1565b9250506020611fa285828601611edc565b60008060006060848603121561215f57600080fd5b600061216b8686611ed1565b935050602061217c86828701611edc565b92505060406120cd86828701611e6f565b6000806000604084860312156121a257600080fd5b60006121ae8686611ed1565b93505060208401356001600160401b038111156121ca57600080fd5b6121d686828701611ee7565b92509250509250925092565b6000806000806000606086880312156121fa57600080fd5b60006122068888611ed1565b95505060208601356001600160401b0381111561222257600080fd5b61222e88828901611ee7565b945094505060408601356001600160401b0381111561224c57600080fd5b61225888828901611ee7565b92509250509295509295909350565b6000806000806060858703121561227d57600080fd5b60006122898787611ed1565b945050602061229a87828801611ed1565b93505060408501356001600160401b038111156122b657600080fd5b6122c287828801611ee7565b95989497509550505050565b6000806000606084860312156122e357600080fd5b60006122ef8686611ed1565b935050602061230086828701611ed1565b92505060408401356001600160401b0381111561231c57600080fd5b6120cd86828701611f28565b60006020828403121561233a57600080fd5b6000611a0a8484611edc565b6000610b80838361242a565b61235b816126fb565b82525050565b61235b816126ea565b6000612374825190565b8084526020840193508360208202850161238e8560200190565b8060005b858110156123c357848403895281516123ab8582612346565b94506020830160209a909a0199925050600101612392565b5091979650505050505050565b80151561235b565b8061235b565b6001600160e01b0319811661235b565b818352600060208401935061240483858461270c565b601f19601f8401165b9093019392505050565b600061242483858461270c565b50500190565b6000612434825190565b80845260208401935061244b818560208601612718565b601f19601f82011661240d565b6000612462825190565b612470818560208601612718565b9290920192915050565b61ffff811661235b565b6000611a0a828486612417565b6000610b808284612458565b6020810161046c8284612361565b6020810161046c8284612352565b60208082528101610b80818461236a565b6020810161046c82846123d0565b6020810161046c82846123d8565b604081016124f482856123d8565b610b8060208301846123d8565b6020810161046c82846123de565b60208082528101611a0a8184866123ee565b60208082528101610b80818461242a565b60408082528101612543818661242a565b905081810360208301526125588184866123ee565b95945050505050565b60408082528101612572818561242a565b9050610b80602083018461247a565b60608082528101612592818661242a565b90506125a1602083018561247a565b8181036040830152612558818461242a565b6020808252810161046c81602981527f455243313135353a2073657474696e6720617070726f76616c20737461747573602082015268103337b91039b2b63360b91b604082015260600190565b6040810161260e82856123d8565b8181036020830152611a0a818461242a565b6000808335601e193685900301811261263857600080fd5b8084019250823591506001600160401b0382111561265557600080fd5b60208301925060018202360383131561266d57600080fd5b509250929050565b600061268060405190565b905061268c8282612790565b919050565b60006001600160401b038211156126aa576126aa61281a565b601f19601f83011660200192915050565b600082198211156126ce576126ce6127ee565b500190565b6000828210156126e5576126e56127ee565b500390565b60006001600160a01b03821661046c565b600061046c82600061046c826126ea565b82818337506000910152565b60005b8381101561273357818101518382015260200161271b565b83811115612742576000848401525b50505050565b61ffff1660008161275b5761275b6127ee565b506000190190565b60028104600182168061277757607f821691505b6020821081141561278a5761278a612804565b50919050565b601f19601f83011681018181106001600160401b03821117156127b5576127b561281a565b6040525050565b600061ffff8216915061ffff8214156127d7576127d76127ee565b5060010190565b60006000198214156127d7576127d75b634e487b7160e01b600052601160045260246000fd5b634e487b7160e01b600052602260045260246000fd5b634e487b7160e01b600052604160045260246000fd5b612839816126ea565b8114611e1957600080fd5b801515612839565b80612839565b6001600160e01b03198116612839565b61ffff811661283956fea2646970667358221220ba0daaabbe645b1cad501bd7b9ff9b9eed2d55242bb0549f8c0cbf2f44b92def64736f6c63430008040033608060405234801561001057600080fd5b5060405161042138038061042183398101604081905261002f91610074565b600080546001600160a01b0319166001600160a01b0393909316929092179091556001556100e3565b8051610063816100ca565b92915050565b8051610063816100da565b6000806040838503121561008757600080fd5b60006100938585610069565b92505060206100a485828601610058565b9150509250929050565b60006001600160a01b038216610063565b6000610063826100ae565b805b81146100d757600080fd5b50565b6100cc816100bf565b61032f806100f26000396000f3fe608060405234801561001057600080fd5b506004361061002b5760003560e01c8063d22057a914610030575b600080fd5b61004361003e366004610220565b610045565b005b600080546001546040518593926001600160a01b0316916302571be3916100719190869060200161026f565b604051602081830303815290604052805190602001206040518263ffffffff1660e01b81526004016100a39190610295565b60206040518083038186803b1580156100bb57600080fd5b505afa1580156100cf573d6000803e3d6000fd5b505050506040513d601f19601f820116820180604052508101906100f391906101dc565b90506001600160a01b038116158061011357506001600160a01b03811633145b61011c57600080fd5b6000546001546040516306ab592360e01b81526001600160a01b03909216916306ab59239161015191889088906004016102a3565b602060405180830381600087803b15801561016b57600080fd5b505af115801561017f573d6000803e3d6000fd5b505050506040513d601f19601f820116820180604052508101906101a39190610202565b5050505050565b80356101b5816102dc565b92915050565b80516101b5816102dc565b80356101b5816102f3565b80516101b5816102f3565b6000602082840312156101ee57600080fd5b60006101fa84846101bb565b949350505050565b60006020828403121561021457600080fd5b60006101fa84846101d1565b6000806040838503121561023357600080fd5b600061023f85856101c6565b9250506020610250858286016101aa565b9150509250929050565b610263816102cb565b82525050565b80610263565b600061027b8285610269565b60208201915061028b8284610269565b5060200192915050565b602081016101b58284610269565b606081016102b18286610269565b6102be6020830185610269565b6101fa604083018461025a565b60006001600160a01b0382166101b5565b6102e5816102cb565b81146102f057600080fd5b50565b806102e556fea26469706673582212208a922e5241e4e7ccf8c8a6b40ef7467fc38cccc701da60df827841243faee21864736f6c6343000804003360806040523480156200001157600080fd5b50604051620014a2380380620014a2833981016040819052620000349162000270565b6200003f33620001a9565b600280546001600160a01b038085166001600160a01b0319928316811790935560038054918516919092161790556040516302571be360e01b8152600091906302571be390620000b4907f91d1777781884d03a6757a803996e38de2a42967fb37eeaca72729271025a9e290600401620002d7565b60206040518083038186803b158015620000cd57600080fd5b505afa158015620000e2573d6000803e3d6000fd5b505050506040513d601f19601f8201168201806040525081019062000108919062000226565b90506001600160a01b03811615620001a057604051630f41a04d60e11b81526001600160a01b03821690631e83409a9062000148903390600401620002c7565b602060405180830381600087803b1580156200016357600080fd5b505af115801562000178573d6000803e3d6000fd5b505050506040513d601f19601f820116820180604052508101906200019e91906200024f565b505b50505062000332565b600080546001600160a01b038381166001600160a01b0319831681178455604051919092169283917f8be0079c531659141344cd1fd0a4f28419497f9722a3daafe3b4186f6b6457e09190a35050565b8051620002068162000306565b92915050565b8051620002068162000320565b8051620002068162000327565b6000602082840312156200023957600080fd5b6000620002478484620001f9565b949350505050565b6000602082840312156200026257600080fd5b60006200024784846200020c565b600080604083850312156200028457600080fd5b600062000292858562000219565b9250506020620002a58582860162000219565b9150509250929050565b620002ba81620002e7565b82525050565b80620002ba565b60208101620002068284620002af565b60208101620002068284620002c0565b60006001600160a01b03821662000206565b60006200020682620002e7565b6200031181620002e7565b81146200031d57600080fd5b50565b8062000311565b6200031181620002f9565b61116080620003426000396000f3fe608060405234801561001057600080fd5b50600436106100ea5760003560e01c80638d9522b81161008c578063c47f002711610066578063c47f0027146101cd578063da8c229e146101e0578063e0dba60f14610210578063f2fde38b1461022357600080fd5b80638d9522b81461018e5780638da5cb5b146101a1578063bffbe61c146101ba57600080fd5b80633f15457f116100c85780633f15457f1461013e5780634709bf4b1461015e578063715018a614610171578063828eab0e1461017b57600080fd5b80630ccc4a7f146100ef5780630f5a5466146101185780631e83409a1461012b575b600080fd5b6101026100fd366004610c4b565b610236565b60405161010f9190610e52565b60405180910390f35b610102610126366004610c11565b610331565b610102610139366004610bd5565b610347565b600254610151906001600160a01b031681565b60405161010f9190610ef4565b61010261016c366004610c11565b610355565b610179610445565b005b600354610151906001600160a01b031681565b61010261019c366004610c98565b61047b565b6000546001600160a01b031660405161010f9190610e1b565b6101026101c8366004610bd5565b61067e565b6101026101db366004610d5f565b6106c6565b6102036101ee366004610bd5565b60016020526000908152604090205460ff1681565b60405161010f9190610e44565b61017961021e366004610cf3565b610750565b610179610231366004610bd5565b6107da565b6000836001600160a01b03811633148061025f57503360009081526001602052604090205460ff165b806102e7575060025460405163e985e9c560e01b81526001600160a01b039091169063e985e9c5906102979084903390600401610e29565b60206040518083038186803b1580156102af57600080fd5b505afa1580156102c3573d6000803e3d6000fd5b505050506040513d601f19601f820116820180604052508101906102e79190610d23565b806102f657506102f681610836565b61031b5760405162461bcd60e51b815260040161031290610f86565b60405180910390fd5b6103268585856108c3565b91505b509392505050565b600061033e3384846108c3565b90505b92915050565b6000610341338360006108c3565b6000826001600160a01b03811633148061037e57503360009081526001602052604090205460ff165b80610406575060025460405163e985e9c560e01b81526001600160a01b039091169063e985e9c5906103b69084903390600401610e29565b60206040518083038186803b1580156103ce57600080fd5b505afa1580156103e2573d6000803e3d6000fd5b505050506040513d601f19601f820116820180604052508101906104069190610d23565b80610415575061041581610836565b6104315760405162461bcd60e51b815260040161031290610f86565b61043d848460006108c3565b949350505050565b6000546001600160a01b0316331461046f5760405162461bcd60e51b815260040161031290610f4c565b6104796000610a91565b565b6000836001600160a01b0381163314806104a457503360009081526001602052604090205460ff165b8061052c575060025460405163e985e9c560e01b81526001600160a01b039091169063e985e9c5906104dc9084903390600401610e29565b60206040518083038186803b1580156104f457600080fd5b505afa158015610508573d6000803e3d6000fd5b505050506040513d601f19601f8201168201806040525081019061052c9190610d23565b8061053b575061053b81610836565b6105575760405162461bcd60e51b815260040161031290610f86565b60035460009061057390879030906001600160a01b03166108c3565b600354604051637737221360e01b81529192506001600160a01b0316906377372213906105a69084908890600401610ed4565b600060405180830381600087803b1580156105c057600080fd5b505af11580156105d4573d6000803e3d6000fd5b50506002546001600160a01b031691506306ab5923905060008051602061110b83398151915261060389610ae1565b886040518463ffffffff1660e01b815260040161062293929190610e60565b602060405180830381600087803b15801561063c57600080fd5b505af1158015610650573d6000803e3d6000fd5b505050506040513d601f19601f820116820180604052508101906106749190610d41565b5095945050505050565b600060008051602061110b83398151915261069883610ae1565b6040516020016106a9929190610df5565b604051602081830303815290604052805190602001209050919050565b60035460009081906106e490339030906001600160a01b03166108c3565b600354604051637737221360e01b81529192506001600160a01b0316906377372213906107179084908790600401610ed4565b600060405180830381600087803b15801561073157600080fd5b505af1158015610745573d6000803e3d6000fd5b509295945050505050565b6000546001600160a01b0316331461077a5760405162461bcd60e51b815260040161031290610f4c565b6001600160a01b03821660008181526001602052604090819020805460ff1916841515179055517f4c97694570a07277810af7e5669ffd5f6a2d6b74b6e9a274b8b870fd5114cf87906107ce908490610e44565b60405180910390a25050565b6000546001600160a01b031633146108045760405162461bcd60e51b815260040161031290610f4c565b6001600160a01b03811661082a5760405162461bcd60e51b815260040161031290610f02565b61083381610a91565b50565b6000816001600160a01b0316638da5cb5b6040518163ffffffff1660e01b815260040160206040518083038186803b15801561087157600080fd5b505afa9250505080156108a1575060408051601f3d908101601f1916820190925261089e91810190610bf3565b60015b6108ad57506000919050565b6001600160a01b0316331492915050565b919050565b6000806108cf85610ae1565b9050600060008051602061110b83398151915260001b826040516020016108f7929190610df5565b60408051601f19818403018152908290528051602090910120600254630178b8bf60e01b83529092506000916001600160a01b0390911690630178b8bf90610943908590600401610e52565b60206040518083038186803b15801561095b57600080fd5b505afa15801561096f573d6000803e3d6000fd5b505050506040513d601f19601f820116820180604052508101906109939190610bf3565b905060006001600160a01b038616158015906109c15750816001600160a01b0316866001600160a01b031614155b90506000816109d057826109d2565b865b6002546040516305ef2c7f60e41b81529192506001600160a01b031690635ef2c7f090610a1a9060008051602061110b8339815191529089908d908790600090600401610e88565b600060405180830381600087803b158015610a3457600080fd5b505af1158015610a48573d6000803e3d6000fd5b50506040518692506001600160a01b038c1691507f6ada868dd3058cf77a48a74489fd7963688e5464b2b0fa957ace976243270e9290600090a3509193505050505b9392505050565b600080546001600160a01b038381166001600160a01b0319831681178455604051919092169283917f8be0079c531659141344cd1fd0a4f28419497f9722a3daafe3b4186f6b6457e09190a35050565b600060285b8015610b3b57600019016f181899199a1a9b1b9c1cb0b131b232b360811b600f84161a8153601090920491600019016f181899199a1a9b1b9c1cb0b131b232b360811b600f84161a8153601083049250610ae6565b50506028600020919050565b6000610b5a610b5584611010565b610ff9565b905082815260208101848484011115610b7257600080fd5b610329848285611069565b8035610341816110e8565b8051610341816110e8565b8035610341816110fc565b8051610341816110fc565b805161034181611104565b600082601f830112610bc557600080fd5b813561043d848260208601610b47565b600060208284031215610be757600080fd5b600061043d8484610b7d565b600060208284031215610c0557600080fd5b600061043d8484610b88565b60008060408385031215610c2457600080fd5b6000610c308585610b7d565b9250506020610c4185828601610b7d565b9150509250929050565b600080600060608486031215610c6057600080fd5b6000610c6c8686610b7d565b9350506020610c7d86828701610b7d565b9250506040610c8e86828701610b7d565b9150509250925092565b600080600060608486031215610cad57600080fd5b6000610cb98686610b7d565b9350506020610cca86828701610b7d565b925050604084013567ffffffffffffffff811115610ce757600080fd5b610c8e86828701610bb4565b60008060408385031215610d0657600080fd5b6000610d128585610b7d565b9250506020610c4185828601610b93565b600060208284031215610d3557600080fd5b600061043d8484610b9e565b600060208284031215610d5357600080fd5b600061043d8484610ba9565b600060208284031215610d7157600080fd5b813567ffffffffffffffff811115610d8857600080fd5b61043d84828501610bb4565b610d9d8161103b565b82525050565b801515610d9d565b80610d9d565b610d9d8161104c565b610d9d81611057565b6000610dcd825190565b808452602084019350610de4818560208601611075565b601f01601f19169290920192915050565b6000610e018285610dab565b602082019150610e118284610dab565b5060200192915050565b602081016103418284610d94565b60408101610e378285610d94565b610a8a6020830184610d94565b602081016103418284610da3565b602081016103418284610dab565b60608101610e6e8286610dab565b610e7b6020830185610dab565b61043d6040830184610d94565b60a08101610e968288610dab565b610ea36020830187610dab565b610eb06040830186610d94565b610ebd6060830185610d94565b610eca6080830184610dba565b9695505050505050565b60408101610ee28285610dab565b818103602083015261043d8184610dc3565b602081016103418284610db1565b6020808252810161034181602681527f4f776e61626c653a206e6577206f776e657220697320746865207a65726f206160208201526564647265737360d01b604082015260600190565b60208082528181019081527f4f776e61626c653a2063616c6c6572206973206e6f7420746865206f776e6572604083015260608201610341565b6020808252810161034181604981527f43616c6c6572206973206e6f74206120636f6e74726f6c6c6572206f7220617560208201527f74686f72697365642062792061646472657373206f722074686520616464726560408201526839b99034ba39b2b63360b91b606082015260800190565b600061100460405190565b90506108be82826110a5565b600067ffffffffffffffff82111561102a5761102a6110d2565b601f19601f83011660200192915050565b60006001600160a01b038216610341565b60006103418261103b565b600067ffffffffffffffff8216610341565b82818337506000910152565b60005b83811015611090578181015183820152602001611078565b8381111561109f576000848401525b50505050565b601f19601f830116810181811067ffffffffffffffff821117156110cb576110cb6110d2565b6040525050565b634e487b7160e01b600052604160045260246000fd5b6110f18161103b565b811461083357600080fd5b8015156110f1565b806110f156fe91d1777781884d03a6757a803996e38de2a42967fb37eeaca72729271025a9e2a2646970667358221220ba68f2ccd13c6551a63a32a98a1abf331074468421357b107a4b1bff9484b38e64736f6c634300080400334f5b812789fc606be1b3b16908db13fc7a9adf7ca72641f84d75b47069d3d7f0329539a1d23af1810c48a07fe7fc66a3b34fbc8b37e9b3cdb97bb88ceab7e4bf",
  "linkReferences": {},
  "deployedLinkReferences": {}
}