{
  "_format": "hh-sol-artifact-1",
  "contractName": "Faucet",
  "sourceName": "contracts/Faucet.sol",
  "abi": [
    {
      "inputs": [],
      "name": "balance",
      "outputs": [
        {
          "internalType": "uint256",
          "name": "",
          "type": "uint256"
        }
      ],
      "stateMutability": "view",
      "type": "function"
    },
    {
      "inputs": [
        {
          "internalType": "address",
          "name": "a",
          "type": "address"
        }
      ],
      "name": "canUse",
      "outputs": [
        {
          "internalType": "bool",
          "name": "",
          "type": "bool"
        }
      ],
      "stateMutability": "view",
      "type": "function"
    },
    {
      "inputs": [
        {
          "internalType": "address",
          "name": "a",
          "type": "address"
        }
      ],
      "name": "canUseAtBlock",
      "outputs": [
        {
          "internalType": "uint256",
          "name": "",
          "type": "uint256"
        }
      ],
      "stateMutability": "view",
      "type": "function"
    },
    {
      "inputs": [],
      "name": "claim",
      "outputs": [],
      "stateMutability": "nonpayable",
      "type": "function"
    },
    {
      "inputs": [],
      "name": "pay",
      "outputs": [],
      "stateMutability": "payable",
      "type": "function"
    }
  ],
  "bytecode": "0x608060405234801561001057600080fd5b50610321806100206000396000f3fe60806040526004361061004a5760003560e01c80631b9265b81461004f5780634e71d92d14610051578063aec9ea5514610066578063b69ef8a8146100b2578063fa12b14c146100c5575b600080fd5b005b34801561005d57600080fd5b5061004f61010b565b34801561007257600080fd5b5061009c6100813660046101f4565b6001600160a01b031660009081526020819052604090205490565b6040516100a99190610287565b60405180910390f35b3480156100be57600080fd5b504761009c565b3480156100d157600080fd5b506100fe6100e03660046101f4565b6001600160a01b031660009081526020819052604090205443101590565b6040516100a9919061022a565b336000908152602081905260409020544310156101435760405162461bcd60e51b815260040161013a90610238565b60405180910390fd5b61014f61384043610295565b3360009081526020819052604081209190915561016f47620f42406101a4565b60405190925033915082156108fc029083906000818181858888f193505050501580156101a0573d6000803e3d6000fd5b5050565b600080826101b7575060009050806101dc565b60018385816101d657634e487b7160e01b600052601260045260246000fd5b04915091505b9250929050565b80356101ee816102d4565b92915050565b60006020828403121561020657600080fd5b600061021284846101e3565b949350505050565b8015155b82525050565b8061021e565b602081016101ee828461021a565b602080825281016101ee81602b81527f596f75206d7573742077616974206265666f7265207573696e6720746865206660208201526a30bab1b2ba1030b3b0b4b760a91b604082015260600190565b602081016101ee8284610224565b600082198211156102a8576102a86102be565b500190565b60006001600160a01b0382166101ee565b634e487b7160e01b600052601160045260246000fd5b6102dd816102ad565b81146102e857600080fd5b5056fea26469706673582212208f8d51d263b2458055e5a7dcb396575f97ab103c720cf18e46891eb48e7084ab64736f6c63430008040033",
  "linkReferences": {},
  "deployedLinkReferences": {}
}