{
  "_format": "hh-sol-artifact-1",
  "contractName": "Preparation",
  "sourceName": "contracts/Preparation.sol",
  "abi": [
    {
      "inputs": [
        {
          "internalType": "contract Recipe",
          "name": "_recipe",
          "type": "address"
        },
        {
          "internalType": "uint256",
          "name": "_scalePecentage",
          "type": "uint256"
        }
      ],
      "stateMutability": "nonpayable",
      "type": "constructor"
    },
    {
      "inputs": [
        {
          "internalType": "uint256",
          "name": "completedStepIndex",
          "type": "uint256"
        },
        {
          "internalType": "uint256",
          "name": "_nextStepBlockHint",
          "type": "uint256"
        }
      ],
      "name": "completeStep",
      "outputs": [],
      "stateMutability": "nonpayable",
      "type": "function"
    },
    {
      "inputs": [
        {
          "internalType": "uint256",
          "name": "completedStepIndex",
          "type": "uint256"
        }
      ],
      "name": "completeStep",
      "outputs": [],
      "stateMutability": "nonpayable",
      "type": "function"
    },
    {
      "inputs": [],
      "name": "getNextStep",
      "outputs": [
        {
          "internalType": "uint256",
          "name": "",
          "type": "uint256"
        },
        {
          "internalType": "uint256",
          "name": "",
          "type": "uint256"
        }
      ],
      "stateMutability": "view",
      "type": "function"
    },
    {
      "inputs": [],
      "name": "getRecipe",
      "outputs": [
        {
          "internalType": "contract Recipe",
          "name": "",
          "type": "address"
        }
      ],
      "stateMutability": "view",
      "type": "function"
    },
    {
      "inputs": [],
      "name": "isCompleted",
      "outputs": [
        {
          "internalType": "bool",
          "name": "",
          "type": "bool"
        }
      ],
      "stateMutability": "view",
      "type": "function"
    }
  ],
  "bytecode": "0x608060405234801561001057600080fd5b5060405161045e38038061045e83398101604081905261002f9161009f565b60006001541161005a5760405162461bcd60e51b8152600401610051906100d9565b60405180910390fd5b600080546001600160a01b0319166001600160a01b039390931692909217909155600155610166565b805161008e81610149565b92915050565b805161008e81610160565b600080604083850312156100b257600080fd5b60006100be8585610083565b92505060206100cf85828601610094565b9150509250929050565b6020808252810161008e81603081527f5072657061726174696f6e206d7573742068617665206e6f6e2d7a65726f207360208201526f31b0b632903832b931b2b73a30b3b29760811b604082015260600190565b60006001600160a01b03821661008e565b600061008e8261012d565b6101528161013e565b811461015d57600080fd5b50565b80610152565b6102e9806101756000396000f3fe608060405234801561001057600080fd5b50600436106100575760003560e01c8063668ca5e01461005c578063a7ee4aa214610079578063ce9bd25d1461008e578063eaed5abb146100a1578063fa391c64146100ba575b600080fd5b60025460035460405161007092919061024c565b60405180910390f35b61008c6100873660046101dd565b6100cf565b005b61008c61009c366004610199565b6100e3565b6000546001600160a01b0316604051610070919061023e565b6100c26100f9565b6040516100709190610230565b6100da82600161026e565b60025560035550565b6100ee81600161026e565b600255506000600355565b60008060009054906101000a90046001600160a01b03166001600160a01b03166377c267eb6040518163ffffffff1660e01b815260040160206040518083038186803b15801561014857600080fd5b505afa15801561015c573d6000803e3d6000fd5b505050506040513d601f19601f8201168201806040525081019061018091906101bf565b60025414905090565b80355b92915050565b805161018c565b6000602082840312156101ab57600080fd5b60006101b78484610189565b949350505050565b6000602082840312156101d157600080fd5b60006101b78484610192565b600080604083850312156101f057600080fd5b60006101fc8585610189565b925050602061020d85828601610189565b9150509250929050565b8015155b82525050565b61021b81610286565b8061021b565b6020810161018c8284610217565b6020810161018c8284610221565b6040810161025a828561022a565b610267602083018461022a565b9392505050565b600082198211156102815761028161029d565b500190565b600061018c8260006001600160a01b03821661018c565b634e487b7160e01b600052601160045260246000fdfea2646970667358221220829655b0df85ee4c0ffbb88b0bb3345f693446f957424dc3b260477de5fb57a064736f6c63430008040033",
  "linkReferences": {},
  "deployedLinkReferences": {}
}