{
  "_format": "hh-sol-artifact-1",
  "contractName": "StringSet",
  "sourceName": "contracts/StringSet.sol",
  "abi": [
    {
      "inputs": [
        {
          "internalType": "string",
          "name": "str",
          "type": "string"
        }
      ],
      "name": "add",
      "outputs": [],
      "stateMutability": "nonpayable",
      "type": "function"
    },
    {
      "inputs": [
        {
          "internalType": "string[]",
          "name": "strs",
          "type": "string[]"
        }
      ],
      "name": "addAll",
      "outputs": [],
      "stateMutability": "nonpayable",
      "type": "function"
    },
    {
      "inputs": [
        {
          "internalType": "string",
          "name": "str",
          "type": "string"
        }
      ],
      "name": "contains",
      "outputs": [
        {
          "internalType": "bool",
          "name": "",
          "type": "bool"
        }
      ],
      "stateMutability": "view",
      "type": "function"
    },
    {
      "inputs": [],
      "name": "contents",
      "outputs": [
        {
          "internalType": "string[]",
          "name": "",
          "type": "string[]"
        }
      ],
      "stateMutability": "view",
      "type": "function"
    },
    {
      "inputs": [
        {
          "internalType": "string",
          "name": "str",
          "type": "string"
        }
      ],
      "name": "remove",
      "outputs": [],
      "stateMutability": "nonpayable",
      "type": "function"
    },
    {
      "inputs": [
        {
          "internalType": "string[]",
          "name": "strs",
          "type": "string[]"
        }
      ],
      "name": "removeAll",
      "outputs": [],
      "stateMutability": "nonpayable",
      "type": "function"
    }
  ],
  "bytecode": "0x608060405234801561001057600080fd5b50610b9f806100206000396000f3fe608060405234801561001057600080fd5b50600436106100625760003560e01c80632763b63c14610067578063366512111461007c5780636833d54f1461008f57806380599e4b146100b8578063955c9867146100cb578063b0c8f9dc146100e0575b600080fd5b61007a6100753660046107f5565b6100f3565b005b61007a61008a3660046107f5565b61019b565b6100a261009d36600461082a565b61023f565b6040516100af91906109b2565b60405180910390f35b61007a6100c636600461082a565b610268565b6100d361031d565b6040516100af91906109a1565b61007a6100ee36600461082a565b610590565b60005b815181101561019757306001600160a01b031663b0c8f9dc83838151811061012e57634e487b7160e01b600052603260045260246000fd5b60200260200101516040518263ffffffff1660e01b815260040161015291906109c2565b600060405180830381600087803b15801561016c57600080fd5b505af1158015610180573d6000803e3d6000fd5b50505050808061018f90610b0c565b9150506100f6565b5050565b60005b815181101561019757306001600160a01b03166380599e4b8383815181106101d657634e487b7160e01b600052603260045260246000fd5b60200260200101516040518263ffffffff1660e01b81526004016101fa91906109c2565b600060405180830381600087803b15801561021457600080fd5b505af1158015610228573d6000803e3d6000fd5b50505050808061023790610b0c565b91505061019e565b600080826040516102509190610995565b90815260405190819003602001902054151592915050565b6000816040516102789190610995565b908152602001604051809103902054600014156102b05760405162461bcd60e51b81526004016102a7906109d3565b60405180910390fd5b60006001600080846040516102c59190610995565b908152602001604051809103902054815260200190815260200160002060006101000a81548160ff0219169083151502179055506000808260405161030a9190610995565b9081526040519081900360200190205550565b606060008060028054905067ffffffffffffffff81111561034e57634e487b7160e01b600052604160045260246000fd5b60405190808252806020026020018201604052801561038157816020015b606081526020019060019003908161036c5790505b50905060005b6002548110156104b7576001600061039f8383610a5e565b815260208101919091526040016000205460ff16156104a557600281815481106103d957634e487b7160e01b600052603260045260246000fd5b9060005260206000200180546103ee90610ab2565b80601f016020809104026020016040519081016040528092919081815260200182805461041a90610ab2565b80156104675780601f1061043c57610100808354040283529160200191610467565b820191906000526020600020905b81548152906001019060200180831161044a57829003601f168201915b505050505082848151811061048c57634e487b7160e01b600052603260045260246000fd5b60209081029190910101526104a2836001610a5e565b92505b806104af81610b0c565b915050610387565b5060008267ffffffffffffffff8111156104e157634e487b7160e01b600052604160045260246000fd5b60405190808252806020026020018201604052801561051457816020015b60608152602001906001900390816104ff5790505b50905060005b838110156105885782818151811061054257634e487b7160e01b600052603260045260246000fd5b602002602001015182828151811061056a57634e487b7160e01b600052603260045260246000fd5b6020026020010181905250808061058090610b0c565b91505061051a565b509392505050565b6000816040516105a09190610995565b9081526020016040518091039020546000146105ce5760405162461bcd60e51b81526004016102a7906109e3565b6002546000906105df906001610a5e565b9050806000836040516105f29190610995565b90815260408051602092819003830190209290925560008381526001808352928120805460ff1916841790556002805493840181559052835161065a927f405787fa12a823e0f2b7631cc41b3ba8828b3321ca811111fa75cd3aa3bb5ace019185019061065f565b505050565b82805461066b90610ab2565b90600052602060002090601f01602090048101928261068d57600085556106d3565b82601f106106a657805160ff19168380011785556106d3565b828001600101855582156106d3579182015b828111156106d35782518255916020019190600101906106b8565b506106df9291506106e3565b5090565b5b808211156106df57600081556001016106e4565b600061070b61070684610a0f565b6109f3565b9050808382526020820190508285602086028201111561072a57600080fd5b60005b8581101561077057813567ffffffffffffffff81111561074c57600080fd5b80860161075989826107d4565b85525050602092830192919091019060010161072d565b5050509392505050565b600061078861070684610a33565b9050828152602081018484840111156107a057600080fd5b610588848285610a76565b600082601f8301126107bc57600080fd5b81356107cc8482602086016106f8565b949350505050565b600082601f8301126107e557600080fd5b81356107cc84826020860161077a565b60006020828403121561080757600080fd5b813567ffffffffffffffff81111561081e57600080fd5b6107cc848285016107ab565b60006020828403121561083c57600080fd5b813567ffffffffffffffff81111561085357600080fd5b6107cc848285016107d4565b600061086b83836108d8565b9392505050565b600061087c825190565b808452602084019350836020820285016108968560200190565b8060005b858110156108cb57848403895281516108b3858261085f565b94506020830160209a909a019992505060010161089a565b5091979650505050505050565b60006108e2825190565b8084526020840193506108f9818560208601610a82565b601f01601f19169290920192915050565b6000610914825190565b610922818560208601610a82565b9290920192915050565b601c81526000602082017f537472696e67206d75737420616c726561647920626520616464656400000000815291505b5060200190565b60208082527f537472696e67206d757374206e6f7420616c72656164792062652061646465649101908152600061095c565b600061086b828461090a565b6020808252810161086b8184610872565b8115158152602081015b92915050565b6020808252810161086b81846108d8565b602080825281016109bc8161092c565b602080825281016109bc81610963565b60006109fe60405190565b9050610a0a8282610adf565b919050565b600067ffffffffffffffff821115610a2957610a29610b53565b5060209081020190565b600067ffffffffffffffff821115610a4d57610a4d610b53565b601f19601f83011660200192915050565b60008219821115610a7157610a71610b27565b500190565b82818337506000910152565b60005b83811015610a9d578181015183820152602001610a85565b83811115610aac576000848401525b50505050565b600281046001821680610ac657607f821691505b60208210811415610ad957610ad9610b3d565b50919050565b601f19601f830116810181811067ffffffffffffffff82111715610b0557610b05610b53565b6040525050565b6000600019821415610b2057610b20610b27565b5060010190565b634e487b7160e01b600052601160045260246000fd5b634e487b7160e01b600052602260045260246000fd5b634e487b7160e01b600052604160045260246000fdfea264697066735822122076758d83b51affe57730562aca5bb2dc5f385331189d5000112d7e809030cba764736f6c63430008040033",
  "linkReferences": {},
  "deployedLinkReferences": {}
}